:100000000C9427040C944F040C944F040C94DC21A2
:100010000C94DC210C94DC210C944F040C944F04C0
:100020000C944F040C944F040C944F040C944F0404
:100030000C944F040C944F040C944F040C944F04F4
:100040000C9492210C944F040C9485200C945F2006
:100050000C944F040C944F040C944F040C944F04D4
:100060000C944F040C944F0400407A10F35A00A0F3
:10007000724E18090010A5D4E80000E87648170071
:1000800000E40B54020000CA9A3B000000E1F505B1
:10009000000080969800000040420F000000A086FB
:1000A00001000000102700000000E803000000002D
:1000B0006400000000000A000000000001000000D1
:1000C00000002C76D888DC674F0823DFC1DFAE59EB
:1000D000E1B1B796E5E3E453C63AE651997696E87E
:1000E000E6C28426EB898C9B62ED407C6FFCEFBC02
:1000F0009C9F40F2BAA56FA5F490055A2AF75C932D
:100100006B6CF9676DC11BFCE0E40D47FEF520E662
:10011000B500D0ED902E0300943577050080841E45
:10012000080000204E0A000000C80C333333330FA0
:10013000986E12831141EF8D2114893BE65516CF3D
:10014000FEE6DB18D1844B381BF77C1D901DA4BB49
:10015000E424203284725E228100C9F124ECA1E5FE
:100160003D274572726F722064656C6574696E67B5
:100170002070686F6E653A202B0044656C6574656D
:100180002070686F6E653A202B0057617463685069
:100190006F77657254696D652069733A2000526902
:1001A0006E6754696D652069733A20004C6F77540F
:1001B000656D702069733A20004869676854656D01
:1001C000702069733A20004E6574436865636B5410
:1001D000696D652069733A200054656D70436865E8
:1001E000636B54696D652069733A20006661696CC0
:1001F00065642E007061737365642E0054657374BA
:1002000020004661696C65642063656C6C3A20006F
:100210004200454550524F4D3A20004E6F742075B4
:1002200073652E0041362E0053494D3830304C2E28
:10023000004D353930652E005265626F6F742E00A7
:100240004175746F6465746563742E002E204D6F64
:1002500064656D3A200043757272656E742049447E
:100260003A200050726576696F75732049443A20D0
:100270000041542B435553443D312C2200534D53E0
:100280002072656D6F766564003400302C34004157
:10029000542B434D47443D007265626F6F746D6F20
:1002A00064656D00636C656172736D73006C656489
:1002B0006F00746573746F0067756172646F006EB0
:1002C0006574737461747573006D6F6E6579000A7F
:1002D00000206D696E000A54656D70436865636B3C
:1002E00054696D653A20000A486967683A20000A37
:1002F0004C6F773A20000A53656E736F72206572F7
:10030000726F72210043757272656E742074656D30
:1003100070657261747572653A2000696E666F006F
:100320006D6F64656D6964007265626F6F74006CF7
:1003300069737470686F6E65006D656D7465737454
:10034000006C697374636F6E6669670065646974D5
:100350006D61696E70686F6E6500330032006E32D9
:100360000031006E31005761746368207468652045
:10037000706F776572204F007761746368706F7774
:1003800065726F007265736574636F6E666967008E
:10039000726573657470686F6E650066756C6C72FB
:1003A000657365740074656D70636865636B74690B
:1003B0006D65006E6574636865636B74696D650077
:1003C0006869676874656D70006C6F7774656D70CF
:1003D0000072696E6774696D650077617463687037
:1003E0006F77657274696D650062616C616E6365DB
:1003F0006E756D0064656C65746570686F6E650020
:1004000061646470686F6E6500506F776572207309
:100410007570706C7920726573746F7265640050CA
:100420006F77657220737570706C7920646973637F
:100430006F6E6E65637465642000206D696E7574FF
:1004400065732061676F000A4C6F772074656D706B
:10045000657261747572653A20000A4869676820A0
:1004600074656D70657261747572653A20000A4337
:10047000757272656E742074656D706572617475E5
:1004800072653A20000A436865636B2074656D707D
:10049000657261747572652073656E736F72210089
:1004A0003B004154442B00416C61726D2052696ED7
:1004B000673A202B005072696D6172792070686F05
:1004C0006E653A202B002B4353513A002B43524583
:1004D000473A0041542B435553443D300055535344
:1004E000442071756572793A20002B435553443A84
:1004F00000534D532066726F6D3A202B002C220062
:100500002C2C002B434D543A0052696E67206672C2
:100510006F6D3A202B002C0052494E470054656DF8
:1005200070657261747572653A2000206174206292
:100530006F6F742E0047534D2054656D7065726166
:100540007475726520416C61726D20323031382EC5
:1005500031322E30332D30310000000000250028CC
:10056000002B0000000000230026002900040404E2
:10057000040404040402020202020203030303034C
:100580000301020408102040800102040810200129
:100590000204081020220041542B434D47533D22B2
:1005A0000000000000240027002A000000000800CE
:1005B00002010000030407000000000000000041E9
:1005C00054453000415445310041542B434E4D4970
:1005D0003D322C320041542B435343533D22475369
:1005E0004D220041542B434D47463D310041542B91
:1005F000434C49503D310044657465637465642023
:100600004D6F64656D49443A200041360053494DB1
:10061000383030004D3539300041544900415400E4
:1006200041542B434855500050686F6E65206164FB
:100630006465642E0050686F6E6520616C72656140
:1006400064792065786973747320696E20746865B5
:100650002063656C6C3A20004572726F722C2077B3
:10066000726F6E672063656C6C2E004572726F72DC
:100670002C206E6F7420736574206D61696E20701C
:10068000686F6E652E0050686F6E652073657474B8
:10069000696E6773206368616E6765642E005265DA
:1006A000626F6F744D6F64656D0047756172642091
:1006B0004F4E2E0020436F6E736F6C6500205068A4
:1006C0006F6E65202B004C656E67746820746F2018
:1006D00072657475726E3A200042616C616E63657A
:1006E000206E756D6265723A20004C6F6164206403
:1006F000656661756C742062616C616E636520640F
:100700006174612E0044656C6574652062616C6182
:100710006E636520646174612E004C6F61642064B7
:10072000656661756C742070686F6E6520646174B5
:10073000612E0044656C6574696E672070686F6E29
:100740006520646174612E0069007000720073009E
:1007500050686F6E6500E2849600526561642061A6
:10076000727261792070686F6E653A004175746FBE
:10077000646574656374004D6F64656D49443A2027
:10078000002054696D653A2000204D6F64653A2061
:10079000005761746368506F7765720048696768D5
:1007A00054656D703A20004C6F7754656D703A2037
:1007B0000054656D70436865636B54696D653A20DC
:1007C000004E6574436865636B54696D653A20003B
:1007D00047756172643A20004C65643A20005465A4
:1007E00073743A200052696E6754696D653A20004F
:1007F0005265616420656570726F6D636F6E6669C6
:10080000673A004C6F61642064656661756C7420A2
:10081000656570726F6D636F6E6669672064617481
:10082000612E0044656C6574696E67206565707241
:100830006F6D636F6E66696720646174612E004737
:1008400075617264204F46462E00E72CA32E1124BA
:100850001FBECFEFD8E0DEBFCDBF12E0A0E0B1E019
:10086000EAECFEE602C005900D92A838B107D9F770
:1008700024E0A8E8B2E001C01D92AC3BB207E1F76A
:1008800014E0C6E2D4E004C02197FE010E94FA34CD
:10089000C532D107C9F70E94E52D0C9458370C9446
:1008A0000000CF92DF92EF92FF920F931F93CF93AE
:1008B000DF93CDB7DEB7AA970FB6F894DEBF0FBEB1
:1008C000CDBF80918F02813031F46FE673E08EEA04
:1008D00092E00E943B2067E672E0CE0142960E94C1
:1008E000C21F6AE172E0CE0101960E94C21FAE01F2
:1008F0004E5E5F4FBE016F5F7F4F8FE693E00E94B9
:10090000C919CE0101960E94531FCE0142960E9442
:10091000531F67E672E0CE0142960E94C21F66E650
:1009200072E0CE0101960E94C21FAE014E5E5F4F83
:10093000BE016F5F7F4F8FE693E00E94C919CE0121
:1009400001960E94531FCE0142960E94531F0091B0
:100950006F03109170030115110531F480918E021F
:10096000813009F0ACC70DC0F80180818823B1F354
:10097000082E000C990B0E94FC36F80181938F0120
:10098000F3CF60E074E0CE0101960E94B01FBE017B
:100990006F5F7F4F8FE693E00E94141B8C01CE01A6
:1009A00001960E94531F17FD0FC06FE673E0CE0142
:1009B00001960E94B91F61E0CE0101960E94342485
:1009C000CE0101960E94531F64EF73E0CE010196A1
:1009D0000E94B01FBE016F5F7F4F8FE693E00E94C1
:1009E000141B8C01CE0101960E94531F17FD0EC1EE
:1009F0006FE673E0CE0184960E94B91F6CE172E04D
:100A0000CE0142960E94C21FBE016E5E7F4FCE0194
:100A100084960E940A1B4AE0BC01CE0101960E9406
:100A2000841FCE0101960E94BE19AB014F5F5F4F3C
:100A3000BE016C5D7F4FCE014E960E941510CE0117
:100A400001960E94531FCE0142960E94531F67E6F3
:100A500072E0CE0101960E94C21F6EE172E0CE01EB
:100A600042960E94C21FAE014F5F5F4FBE016E5E95
:100A70007F4FCE014E960E94C919CE0142960E9428
:100A8000531FCE0101960E94531F63E272E0CE0114
:100A900042960E94C21FBE016E5E7F4FCE014E96EF
:100AA0000E940A1B4AE0BC01CE0101960E94841FED
:100AB000CE0101960E94BE19AB014F5F5F4FBE0190
:100AC000625E7F4FCE0148960E941510CE010196BE
:100AD0000E94531FCE0142960E94531FBE01685EC2
:100AE0007F4FCE0142960E94B91F0FE211E021E034
:100AF0009DE0F92E6E01F5E0CF0ED11C6DE874E09B
:100B0000F801808191812AA70E948C22BC01CE012C
:100B100001960E94C21FBE016E5E7F4FCE010196FC
:100B20000E942E1BE82ECE0101960E94531F2AA57B
:100B3000EE2009F441C019821A821B821C82F60140
:100B40008F2D11928A95E9F7BE016F5F7F4FF801F3
:100B5000808191810E945822F8018081918160E01A
:100B600043960E94B222F8018081918160E0449610
:100B70000E94B222F8018081918160E045960E9436
:100B8000B222F8018081918160E046960E94B222F3
:100B90006AE771E08EEA92E00E94EC1FBE016E5E91
:100BA0007F4F8EEA92E00E943B200E9430240E94F8
:100BB000D1290E94A12320E0095E1F4FF1E00E3FE2
:100BC0001F0709F09BCF213089F462E671E08EEABD
:100BD00092E00E94EC1FBE016E5E7F4F8EEA92E0B3
:100BE0000E943B200E9430240E94B923CE014296ED
:100BF0000E94531FCE0148960E94531FCE014E966D
:100C00000E94531FCE0184960E94531F69EE73E029
:100C1000CE0101960E94B01FBE016F5F7F4F8FE62D
:100C200093E00E94141B8C01CE0101960E94531F79
:100C300017FDB5C06CE172E0CE0101960E94C21FA3
:100C4000BE016F5F7F4F8FE693E00E940A1B4AE070
:100C5000BC01CE0142960E94841FCE0142960E94A2
:100C6000BE19AB014F5F5F4F6FE673E0CE01489650
:100C70000E941510CE0142960E94531FCE0101968C
:100C80000E94531F65E272E0CE0101960E94C21FCE
:100C9000BE016F5F7F4FCE0148960E94141B4AE051
:100CA000BC01CE014E960E94841FCE014E960E943A
:100CB000BE199B0140E050E0BE01685E7F4FCE014F
:100CC00042960E94C41ACE014E960E94531FCE0136
:100CD00001960E94531F65E272E0CE014E960E947B
:100CE000C21FBE01625E7F4F8FE693E00E940A1B27
:100CF0004AE0BC01CE0184960E94841FCE018496F6
:100D00000E94BE19AB014F5F5F4F6FE673E0CE01EB
:100D100001960E941510CE0184960E94531FCE01A9
:100D20004E960E94531FCE0101960E94BE19162FA7
:100D3000BE016E5E7F4FCE014E960E94B91F6FE9D5
:100D400074E0CE014E960E949D196FE974E08EE129
:100D500090E00E945822612F80E390E00E94B2222E
:100D600061E081E390E00E94B2220E94502B8EEA63
:100D700092E00E9425200E9430240E94A123CE01EF
:100D80004E960E94531FCE0101960E94531FCE0122
:100D900042960E94531FCE0148960E94531F6AED4F
:100DA00073E0CE0101960E94B01FBE016F5F7F4FBE
:100DB0008FE693E00E94141B8C01CE0101960E94E5
:100DC000531F17FD5DC06CE172E0CE0101960E94D9
:100DD000C21FBE016F5F7F4F8FE693E00E940A1B28
:100DE0004AE0BC01CE0142960E94841FCE01429689
:100DF0000E94BE19AB014F5F5F4F6FE673E0CE01FB
:100E000048960E941510CE0142960E94531FCE01B3
:100E100001960E94531FBE01685E7F4FCE0142962D
:100E20000E94B91FCE0142960E94BE196F3F710504
:100E30008105910511F008F03EC7CE0142960E944F
:100E4000BE19162F87E190E00E94B2221093B004E1
:100E50006AE871E08EEA92E00E94EC1F87E190E080
:100E60000E94CE220E948A190E9430240E94A1234F
:100E7000CE0142960E94531FCE0148960E94531FF6
:100E800061ED73E0CE0101960E94B01FBE016F5F5D
:100E90007F4F8FE693E00E94141B8C01CE010196D8
:100EA0000E94531F17FD65C06CE172E0CE010196F0
:100EB0000E94C21FBE016F5F7F4F8FE693E00E94CA
:100EC0000A1B4AE0BC01CE0148960E94841FCE0155
:100ED00048960E94BE19AB014F5F5F4F6FE673E00B
:100EE000CE0142960E941510CE0148960E94531FD3
:100EF000CE0101960E94531FBE016E5E7F4FCE0150
:100F000001960E94B91FCE0101960E94BE19DC0114
:100F1000CB010A97A109B109863F9105A105B10549
:100F200008F0EBC6CE0101960E94BE19162F88E18B
:100F300090E00E94B222612F70E07093B70460933A
:100F4000B6046EE971E08EEA92E00E94EC1F88E13F
:100F500090E00E94CE220E948A190E9430240E94B2
:100F6000A123CE0101960E94531FCE0142960E94FA
:100F7000531F69EC73E0CE0101960E94B01FBE01C1
:100F80006F5F7F4F8FE693E00E94141B8C01CE01B0
:100F900001960E94531F17FD6FC06CE172E0CE01F5
:100FA00001960E94C21FBE016F5F7F4F8FE693E0E4
:100FB0000E940A1B4AE0BC01CE0148960E94841F91
:100FC000CE0148960E94BE19AB014F5F5F4F6FE69E
:100FD00073E0CE0142960E941510CE0148960E9401
:100FE000531FCE0101960E94531FBE016E5E7F4FBC
:100FF000CE0101960E94B91FCE0101960E94BE1932
:101000008B019C010E5C1F4F2F4F3F4F003B110582
:101010002105310508F086C62091B104022F220F68
:10102000110B220B330B60177107820793070CF02B
:1010300079C6CE0101960E94BE19162F84E190E078
:101040000E94B2221093B2046CEA71E08EEA92E040
:101050000E94EC1F84E190E00E94CE220E948A1937
:101060000E9430240E94A123CE0101960E94531FAA
:10107000CE0142960E94531F60EC73E0CE010196B0
:101080000E94B01FBE016F5F7F4F8FE693E00E940A
:10109000141B8C01CE0101960E94531F17FD6FC0D7
:1010A0006CE172E0CE0101960E94C21FBE016F5F2B
:1010B0007F4F8FE693E00E940A1B4AE0BC01CE01FD
:1010C00048960E94841FCE0148960E94BE19AB012B
:1010D0004F5F5F4F6FE673E0CE0142960E9415109E
:1010E000CE0148960E94531FCE0101960E94531FC5
:1010F000BE016E5E7F4FCE0101960E94B91FCE01E8
:1011000001960E94BE198B019C010E5C1F4F2F4F50
:101110003F4F003B11052105310508F019C620910C
:10112000B204022F220F110B220B330B06171707E5
:10113000280739070CF00CC6CE0101960E94BE1993
:10114000162F85E190E00E94B2221093B10469EB62
:1011500071E08EEA92E00E94EC1F85E190E00E942F
:10116000CE220E948A190E9430240E94A123CE011F
:1011700001960E94531FCE0142960E94531F63EBBB
:1011800073E0CE0101960E94B01FBE016F5F7F4FDA
:101190008FE693E00E94141B8C01CE0101960E9401
:1011A000531F17FD60C06CE172E0CE0101960E94F2
:1011B000C21FBE016F5F7F4F8FE693E00E940A1B44
:1011C0004AE0BC01CE0148960E94841FCE01489699
:1011D0000E94BE19AB014F5F5F4F6FE673E0CE0117
:1011E00042960E941510CE0148960E94531FCE01D0
:1011F00001960E94531FBE016E5E7F4FCE01019685
:101200000E94B91FCE0101960E94BE196D3371056F
:101210008105910508F0B2C5CE0101960E94BE1964
:10122000162F8FE090E00E94B222612F70E0709341
:10123000B5046093B40467EC71E08EEA92E00E941A
:10124000EC1F8FE090E00E94CE220E948A190E943B
:1012500030240E94A123CE0101960E94531FCE018B
:1012600042960E94531F65EA73E0CE0101960E94E8
:10127000B01FBE016F5F7F4F8FE693E00E94141B8B
:101280008C01CE0101960E94531F17FD60C06CE1D6
:1012900072E0CE0101960E94C21FBE016F5F7F4FB8
:1012A0008FE693E00E940A1B4AE0BC01CE014896FB
:1012B0000E94841FCE0148960E94BE19AB014F5F69
:1012C0005F4F6FE673E0CE0142960E941510CE018B
:1012D00048960E94531FCE0101960E94531FBE01E3
:1012E0006E5E7F4FCE0101960E94B91FCE0101961E
:1012F0000E94BE19DC01CB010197A109B109CC976D
:10130000A105B10508F04FC5CE0101960E94BE1996
:10131000162F82E190E00E94B2221093B30469ED8F
:1013200071E08EEA92E00E94EC1F82E190E00E9460
:10133000CE220E948A190E9430240E94A123CE014D
:1013400001960E94531FCE0142960E94531F6BE9E3
:1013500073E0CE0101960E94B01FBE016F5F7F4F08
:101360008FE693E00E94141B8C01CE0101960E942F
:10137000531F17FD1AC06FEF80E090E00E94B22269
:101380000E9469286FEF83E690E00E94B2220E94DB
:10139000EA2A6FEF81E390E00E94B2220E94502B74
:1013A0000E94A123E0E0F0E0099560E973E0CE013E
:1013B00001960E94B01FBE016F5F7F4F8FE693E0E2
:1013C0000E94141B8C01CE0101960E94531F17FD31
:1013D0000CC06FEF83E690E00E94B2220E94EA2ADE
:1013E0000E94A123E0E0F0E0099564E873E0CE01FB
:1013F00001960E94B01FBE016F5F7F4F8FE693E0A2
:101400000E94141B8C01CE0101960E94531F17FDF0
:101410000CC06FEF80E090E00E94B2220E94692829
:101420000E94A123E0E0F0E0099568E773E0CE01B7
:1014300001960E94B01FBE016F5F7F4F8FE693E061
:101440000E94141B8C01CE0101960E94531F17FDB0
:1014500075C066E673E081E593E00E94921C63E646
:1014600073E0CE0101960E94B01FBE016F5F7F4FF7
:101470008FE693E00E94141B8C01CE0101960E941E
:10148000531F17FD06C081E08093EA0161E673E017
:1014900019C06EE573E0CE0101960E94B01FBE0137
:1014A0006F5F7F4F8FE693E00E94141B8C01CE018B
:1014B00001960E94531F17FD0CC082E08093EA0141
:1014C0006CE573E08EEA92E00E94EC1F67E272E046
:1014D0000AC01092EA016AE573E08EEA92E00E9487
:1014E000EC1F69E272E081E593E00E94831C609149
:1014F000EA0183E190E00E94B22280918D02813066
:10150000E9F463E272E0CE0101960E94C21F63E635
:1015100073E0CE0101960E94371CBC01CE014296B9
:101520000E94B91FCE0142960E94D022CE0142965F
:101530000E94531FCE0101960E94531F6CE473E07A
:10154000CE0101960E94B01FBE016F5F7F4F8FE6F4
:1015500093E00E94141B8C01CE0101960E94531F40
:1015600017FD0FC06FE673E0CE0101960E94B91F10
:1015700062E0CE0101960E943424CE0101960E94C1
:10158000531F61E473E0CE0101960E94B01FBE01BB
:101590006F5F7F4F8FE693E00E94141B8C01CE019A
:1015A00001960E94531F17FD04C00E9469280E94E3
:1015B000502B69E373E0CE0101960E94B01FBE017B
:1015C0006F5F7F4F8FE693E00E94141B8C01CE016A
:1015D00001960E94531F17FD84C00E944D2F2DEFCE
:1015E00030E040E050E00E94923382E0D82ED60EE8
:1015F00062E172E08EEA92E00E94EC1F4AE060E055
:1016000074E080E090E00E94411860E172E08EEAB0
:1016100092E00E944D2000E010E06D2DC8010E9474
:10162000843365E070E080E090E00E944C210F5F21
:101630001F4F0115F4E01F0781F7E12CF12C00E0AA
:1016400010E0C8010E94CE228D1529F162E072E0FF
:101650008EEA92E00E94EC1FC8010E94CE22C82EA2
:101660004AE0B801CE0101960E94581F6DE573E073
:10167000CE0101960E94371C6C2D0E94751CBC0186
:101680008EEA92E00E943B20CE0101960E94531FF9
:101690008FEFE81AF80A65E070E080E090E00E94C1
:1016A0004C210F5F1F4F0115E4E01E0751F66CEF50
:1016B00071E08EEA92E00E94EC1FE114F10409F05F
:1016C00088C364EF71E08EEA92E00E944D200E9490
:1016D000302464EF71E080E090E00E944C21F7013B
:1016E00009956FE273E0CE0101960E94B01FBE0122
:1016F0006F5F7F4F8FE693E00E94141B8C01CE0139
:1017000001960E94531F17FF0E94D12968E273E0DF
:10171000CE0101960E94B01FBE016F5F7F4F8FE622
:1017200093E00E94141B8C01CE0101960E94531F6E
:1017300017FD09C064EF71E080E090E00E944C2149
:10174000E0E0F0E0099560E273E0CE0101960E94CE
:10175000B01FBE016F5F7F4F8FE693E00E94141BA6
:101760008C01CE0101960E94531F17FDA6C06CE1AB
:1017700072E0CE0142960E94C21FBE016E5E7F4F94
:101780008FE693E00E940A1B4AE0BC01CE01489616
:101790000E94841FCE0148960E94BE19AB014F5F84
:1017A0005F4F6FE673E0CE0101960E941510CE01E7
:1017B00048960E94531FCE0142960E94531FCE01AD
:1017C00001960E94BE196B3071058105910508F0E4
:1017D00007C3CE0101960E94BE19162F63E672E080
:1017E0008EEA92E00E94EC1F80917604082E000C95
:1017F000990B0E945719612F89E190E00E94B22253
:101800001093760466E572E08EEA92E00E94EC1F87
:10181000C09076040C2C000CDD08EE08FF08F7FEE3
:101820000EC06DE28EEA92E00E94D71F66277727EE
:10183000CB016C197D098E099F094AE003C04AE07B
:10184000C701B6010E9441186CE472E08EEA92E092
:101850000E94EC1F111116C060E472E08EEA92E063
:101860000E944D2068E372E08EEA92E00E944D20D3
:1018700064EF71E080E090E00E944C21E0E0F0E055
:10188000099515C0113019F461E372E00CC01230F3
:1018900019F468E272E007C0133019F464E272E0F0
:1018A00002C06BE172E08EEA92E00E944D200E943D
:1018B0003024CE0101960E94531F10928E026BE1DC
:1018C00073E0CE0101960E94B01FBE016F5F7F4F93
:1018D0008FE693E00E94141B8C01CE0101960E94BA
:1018E000531F17FD9EC00E94060F65E073E081E55F
:1018F00093E00E94921C6091890270918A0280910B
:101900008B0290918C020E94CC1BC0908902D090D7
:101910008A02E0908B02F0908C0220E030E04CE5EF
:1019200052ECC701B6010E94583287FD0AC020E080
:1019300030E04AEF52E4C701B6010E94C8341816DD
:1019400034F466EF72E081E593E00E94601B6FEE75
:1019500072E081E593E00E94601B8091B204082E42
:10196000000C990B0E940C1C67EE72E081E593E07D
:101970000E94601B8091B104082E000C990B0E94FC
:101980000C1C66ED72E081E593E00E94601B809183
:10199000B304082E000C990B0E940C1C61ED72E040
:1019A00081E593E00E94601B6FEC72E081E593E0BB
:1019B0000E94601B40914F035091500360914B0374
:1019C00070914C0381E593E00E949E1B80918D02F3
:1019D0008130E9F463E272E0CE0101960E94C21FF9
:1019E00063E673E0CE0101960E94371CBC01CE0174
:1019F00042960E94B91FCE0142960E94D022CE018B
:101A000042960E94531FCE0101960E94531F80915F
:101A10008F02813031F461E573E08EEA92E00E943A
:101A20003B2069EC72E0CE0101960E94B01FBE011E
:101A30006F5F7F4F8FE693E00E94141B8C01CE01F5
:101A400001960E94531F17FD18C080918F028130AC
:101A500011F480938A0461E772E089E893E00E94C0
:101A6000EC1F65E773E089E893E00E94DE1F6CE2FB
:101A700072E089E893E00E9429206FEB72E0CE01CA
:101A800001960E94B01FBE016F5F7F4F8FE693E00B
:101A90000E94141B8C01CE0101960E94531F17FD5A
:101AA00012C080918802811108C080918F020E942B
:101AB000CD2381E08093880206C080918F020E942E
:101AC000BD231092880268EB72E0CE0101960E945D
:101AD000B01FBE016F5F7F4F8FE693E00E94141B23
:101AE0008C01CE0101960E94531F17FD1BC063E3BA
:101AF00072E0CE0101960E94C21FBE016F5F7F4F50
:101B00008FE693E00E94141B8C01CE0101960E9487
:101B1000531F80918F0217FD03C00E94D02B02C07B
:101B20000E945D2C62EB72E0CE0101960E94B01F14
:101B3000BE016F5F7F4F8FE693E00E94141B8C0104
:101B4000CE0101960E94531F17FD22C063E372E08D
:101B5000CE0101960E94C21FBE016F5F7F4F8FE6CC
:101B600093E00E94141B8C01CE0101960E94531F2A
:101B700017FD04C081E08093750402C010927504C3
:101B8000609175048CE090E00E94B2220E94C4260D
:101B90006DEA72E0CE0101960E94B01FBE016F5F38
:101BA0007F4F8FE693E00E94141B8C01CE010196BB
:101BB0000E94531F17FD20C063E372E0CE0101961F
:101BC0000E94C21FBE016F5F7F4F8FE693E00E94AD
:101BD000141B8C01CE0101960E94531F17FD04C0F7
:101BE00081E08093EB0102C01092EB016091EB0168
:101BF0008DE090E00E94B22264EA72E0CE0101968C
:101C00000E94B01FBE016F5F7F4F8FE693E00E947E
:101C1000141B8C01CE0101960E94531F17FD23C097
:101C20006FE872E089E893E00E94EC1F80917604EF
:101C3000813031F46BE872E089E893E00E944D2036
:101C4000809176048250823030F469E872E089E84D
:101C500093E00E944D206DE772E08EEA92E00E94D0
:101C60004D200E94A12368E972E0CE0101960E94F6
:101C7000B01FBE016F5F7F4F8FE693E00E94141B81
:101C80008C01CE0101960E94531F17FF0E944D2820
:101C900010928D0210928F02AA960FB6F894DEBFB2
:101CA0000FBECDBFDF91CF911F910F91FF90EF90AD
:101CB000DF90CF9008958091B0041F8E1E8E19A2E0
:101CC00018A21BA21AA24AE0BE016F5F7F4F90E0EC
:101CD0000E94C82FBE016F5F7F4FCE014E960E94BB
:101CE000251FBE01625E7F4FCE0142960E94921E6A
:101CF000CE014E960E94531FA0C86091B604709109
:101D0000B7044AE0CE0148960E94581FBE01685EA3
:101D10007F4FCE0101960E94921ECE0148960E94EE
:101D2000531F00C96091B204062E000C770B4AE0E5
:101D3000CE0148960E94841FBE01685E7F4FCE018F
:101D400001960E94921ECE0148960E94531F71C9AF
:101D50006091B104062E000C770B4AE0CE01489644
:101D60000E94841FBE01685E7F4FCE0101960E94D3
:101D7000921ECE0148960E94531FDEC96091B404A2
:101D80007091B5044AE0CE0148960E94581FBE01EA
:101D9000685E7F4FCE0101960E94921ECE0148964A
:101DA0000E94531F39CA6091B304062E000C770BB2
:101DB0004AE0CE0148960E94841FBE01685E7F4FB4
:101DC000CE0101960E94921ECE0148960E94531F9A
:101DD0009BCA6CEE71E08EEA92E00E944D2081CCAD
:101DE00060917604062E000C770B4AE0CE014296F5
:101DF0000E94841FBE016E5E7F4FCE0101960E943D
:101E0000921ECE0142960E94531FE3CC8F929F9266
:101E1000AF92BF92CF92DF92EF92FF920E94201971
:101E20008CEC0E94C01884E40E94C01868EE73E035
:101E300080E090E00E944C210E9420198CEC0E94CE
:101E4000C0188EEB0E94C0180E948418F82E0E94C1
:101E500084186F2D70E0782B072E000C880B990BDF
:101E60000E945F3220E030E040E85DE30E94BE3235
:101E70006093890270938A0280938B0290938C0204
:101E80006DE175E08EEA92E00E94EC1FC09089023D
:101E9000D0908A02E0908B02F0908C02A70196010C
:101EA000C701B6010E94CD34882319F061E372E0C6
:101EB0001AC046015701E894B7F82FEF3FEF4FE7FC
:101EC0005FE7C501B4010E94CD34811111C02FEF2D
:101ED0003FEF4FE75FE7C501B4010E945832181683
:101EE0003CF465E372E08EEA92E00E94102076C036
:101EF0002FEF3FEF4FE75FE4C701B6010E94C83400
:101F000018161CF469E372E0EECF2FEF3FEF4FE7B6
:101F10005FECC701B6010E94583287FDF3CF20E085
:101F200030E0A901C701B6010E94583287FF09C0FD
:101F30006DE28EEA92E00E94D71FF7FAF094F7F86C
:101F4000F0942AE037ED43EA5BE3C701B6010E9453
:101F50002D344B015C010E9499346B017C010E947D
:101F60005D329B01AC01C501B4010E942C344B01D0
:101F70005C014AE0C701B6010E9441186EE28EEA98
:101F800092E00E94D71F20E030E040E251E4C5011A
:101F9000B4010E94BE324B015C010E9499346B0176
:101FA000E12CF12C4AE0C701B6010E944118C7019B
:101FB000B6010E945D329B01AC01C501B4010E94D3
:101FC0002C3420E030E040E251E40E94BE320E9416
:101FD000993480E090E04AE00E9441188EEA92E055
:101FE0000E94252020E030E0A901609189027091D3
:101FF0008A0280918B0290918C020E94583281114A
:1020000008C080910101815087FF04C01092010136
:1020100003C082E080930101FF90EF90DF90CF90AA
:10202000BF90AF909F908F900895CF93DF93EC0176
:10203000FB01248135810E94C41ACE01DF91CF912A
:1020400008958F929F92AF92BF92CF92DF92EF92BC
:10205000FF920F931F93CF93DF93CDB7DEB76F97A8
:102060000FB6F894DEBF0FBECDBF8091EA0181307C
:1020700031F480910201813009F081C003C08230C7
:1020800009F07DC0E2EBF5E08491E8E8F5E0F4903A
:10209000E4E7F5E014911123A1F081110E94B7202B
:1020A000E12FF0E0EE0FFF1FED59FA4FA591B4912B
:1020B000EC91EF2131E020E009F430E0832F922F02
:1020C00002C080E090E080939002892B39F58091E6
:1020D0000001811123C081E08093000164E670E07B
:1020E00080E090E00E944C216FE174E081E593E094
:1020F0000E94921C80919F0281110AC00E94862139
:1021000060939B0270939C0280939D0290939E0229
:1021100081E080939F0282E080939A0280919002F6
:102120008130E9F4809100018130C9F410929F025E
:102130001092000164E670E080E090E00E944C2183
:1021400080919902813059F469E074E081E593E06F
:102150000E94921C82E00E94262310929902809194
:102160009002813061F480910001823041F410923C
:10217000000164E670E080E090E00E944C210E9443
:1021800086216B017C01A090B404B090B504A11429
:10219000B104E9F18091910290919202A091930291
:1021A000B0919402A7019601281B390B4A0B5B0BD7
:1021B000CA01B90128EE33E040E050E00E94FB3351
:1021C0006CE36A9DC0016B9D900D1124A0E0B0E00E
:1021D00082179307A407B507D0F4C0929102D0925A
:1021E0009202E0929302F09294028091880281110F
:1021F00008C080918F020E94CD2381E080938802E5
:1022000006C080918F020E94BD23109288020E9416
:1022100086216B017C011091B3048091950290910D
:102220009602A0919702B0919802A7019601281BEF
:10223000390B4A0B5B0BCA01B90128EE33E040E0D1
:1022400050E00E94FB336CE31602C0011124092EFA
:10225000000CAA0BBB0B82179307A407B50750F419
:10226000C0929502D0929602E0929702F092980264
:102270000E94060F80919F028130C9F50E9486213D
:102280001091B004C0909B02D0909C02E0909D02FF
:10229000F0909E026C197D098E099F0928EE33E0AB
:1022A00040E050E00E94FB33ECE31E9FC00111248C
:1022B000092E000CAA0BBB0B82179307A407B507C6
:1022C000B0F4112359F0612F81E593E00E944A1C7C
:1022D0006AE374E081E593E00E94601B80919A02BA
:1022E0000E94262381E08093990210929F020E940F
:1022F00086216B017C018091010181112FC060E07A
:102300008CE00E94E02060E08AE00E94E02060E033
:102310008BE00E94E02080919E04811139C183E00E
:1023200080939E0467E573E0CE0101960E94B91F79
:1023300065E874E0CE0101960E94901BBC0181E526
:1023400093E00E943C1FCE0101960E94531F6EE64F
:1023500074E081E593E00E94601BCBC0809089020D
:1023600090908A02A0908B02B0908C026091B10490
:10237000062E000C770B880B990B0E945F329B0195
:10238000AC01C501B4010E94C83418160CF04AC053
:1023900061E08BE00E94E02061E08CE00E94E020A0
:1023A00080910201813011F460E029C08091A30284
:1023B0009091A402A091A502B091A602A701960156
:1023C000281B390B4A0B5B0BDA01C901883B9B4088
:1023D000A105B105B8F0C092A302D092A402E09288
:1023E000A502F092A6028091A202811104C081E0B0
:1023F0008093A20202C01092A2026091A2028AE01F
:102400000E94E02080919E048111C2C081E08093EF
:102410009E0467E573E0CE0101960E94B91F6AE54C
:1024200074E05AC08091B204682F880F770B880B34
:10243000990B0E945F329B01AC01C501B4010E945F
:10244000583261E087FF63C08CE00E94E02061E0C9
:102450008AE00E94E02080910201813011F460E066
:1024600029C08091A3029091A402A091A502B091ED
:10247000A602A7019601281B390B4A0B5B0BDA0158
:10248000C901883B9B40A105B105B8F0C092A302E9
:10249000D092A402E092A502F092A6028091A1023D
:1024A000811104C081E08093A10202C01092A102B8
:1024B0006091A1028BE00E94E02080919E04811136
:1024C00067C082E080939E0467E573E0CE010196C9
:1024D0000E94B91F67E474E0CE0101960E94901B30
:1024E000BC0181E593E00E943C1FCE0101960E9451
:1024F000531F6091890270918A0280918B029091A2
:102500008C020E94CC1B81E00E94262341C08BE0FC
:102510000E94E02061E08AE00E94E02080910201B8
:10252000813041F48091EB01813011F460E02BC0E7
:1025300061E029C08091A3029091A402A091A5021C
:10254000B091A602A7019601281B390B4A0B5B0B21
:10255000DA01C901883B9B40A105B105B8F0C092E2
:10256000A302D092A402E092A502F092A60280916A
:10257000A002811104C081E08093A00202C01092E9
:10258000A0026091A0028CE00E94E02010929E04C4
:1025900080917804813011F40E94212480918B0471
:1025A000813009F058C0E091AB0217E11E9FF001A5
:1025B0001124ED5FFE4F8589968944960E94CE22B4
:1025C000813009F048C00E9486216093A702709371
:1025D000A8028093A9029093AA0268E873E180E0C0
:1025E00090E00E944C2167EA74E08EEA92E00E943B
:1025F000EC1FE091AB021E9FF0011124ED5FFE4F36
:102600006DE874E0858996890E948C22BC018EEA6F
:1026100092E00E94292062EA74E089E893E00E9437
:10262000EC1FE091AB021E9FF0011124ED5FFE4F05
:102630006DE874E0858996890E948C22BC0189E846
:1026400093E00E94102060EA74E089E893E00E9421
:102650004D2010928B0410918C04113041F50E9492
:102660008621C090A702D090A802E090A902F09025
:10267000AA026C197D098E099F0928EE33E040E01B
:1026800050E00E94FB338091B6049091B704A0E023
:10269000B0E082179307A407B50748F410937804B5
:1026A0008091AB028F5F8093AB0210938B0480917B
:1026B000AB028B3040F48091020181110DC08091FA
:1026C0008C04813049F410928C0481E0809378046A
:1026D0001092AB0210928B0489E893E00E94531E83
:1026E000892B09F411C489E893E00E94531E892BB9
:1026F00079F089E893E00E946B1E809377040E9432
:10270000F71B6AE070E080E090E00E944C21EBCF84
:1027100080917604823011F412E001C011E068E18A
:1027200075E0CE0101960E94B01FBE016F5F7F4F22
:102730008FE693E00E94141B7C01CE0101960E945B
:10274000531FF7FCF8C066E175E0CE0143960E9486
:10275000B01FBE016D5E7F4F8FE693E00E94141B99
:102760004AE0BC01CE0149960E94841FCE014996E1
:102770000E94BE196B017C0163E472E0CE010196F8
:102780000E94C21FBE016F5F7F4F8FE693E00E94E1
:10279000141B4AE0BC01CE010D960E94841FCE019D
:1027A0000D960E94BE19960121503109412F50E02B
:1027B000460F571F6FE673E0CE0107960E94C41ABA
:1027C000CE010D960E94531FCE0101960E94531F09
:1027D000CE0149960E94531FCE0143960E94531F7B
:1027E00069E075E08EEA92E00E94EC1FBE01695F2D
:1027F0007F4F8EEA92E00E943B20BE01695F7F4FCF
:10280000CE010D960E94B91F6DE874E08091180109
:10281000909119010E948C22BC01CE0101960E9468
:10282000C21F8D819E81892B41F0E981FA8111E0DF
:102830008081882319F010E001C011E0CE010196DB
:102840000E94531F112309F44AC069E774E0CE01C6
:102850000D960E949D1969E774E08091180190918E
:1028600019010E945822809118019091190161E08C
:1028700043960E94B222809118019091190161E063
:1028800044960E94B222809118019091190161E052
:1028900045960E94B222809118019091190161E041
:1028A00046960E94B22265EB74E08EEA92E00E94A6
:1028B000EC1FBE01635F7F4F8EEA92E00E943B20D7
:1028C0000E9430240E94A1230E94212468EE73E01C
:1028D00080E090E00E944C21E0E0F0E00995CE011C
:1028E0000D960E94531FBE01695F7F4FCE01019676
:1028F0000E94B91FCE0101960E94DD23182FCE0140
:1029000001960E94531F113079F40E942124809176
:102910000201813021F480E00E945D2C07C081110A
:1029200005C00E94D02B02C00E942124CE01079630
:102930000E94531FD9C263E075E0CE0101960E9448
:10294000B01FBE016F5F7F4F8FE693E00E94141BA4
:102950007C01CE0101960E94531FF7FC09C16FE66E
:1029600073E08EEA92E00E943B20809176048D7F96
:10297000813009F057C060E075E0CE010D960E94ED
:10298000B01FBE01635F7F4F8FE693E00E94141B70
:102990004AE0BC01CE0143960E94841FCE014396BB
:1029A0000E94BE196B017C016DE372E0CE010196BD
:1029B0000E94C21FBE016F5F7F4F8FE693E00E94AF
:1029C000141B4AE0BC01CE0107960E94841FCE0171
:1029D00007960E94BE19960121503109AB01485F4C
:1029E0005F4F6FE673E0CE0149960E94C41ABE01A4
:1029F000675E7F4F89E693E00E94921ECE01499662
:102A00000E94531FCE0107960E94531FCE010196CC
:102A10000E94531FCE0143960E94531FCE010D9674
:102A20000E94531F80917604823009F057C06DEFE9
:102A300074E0CE010D960E94B01FBE01635F7F4F10
:102A40008FE693E00E94141B4AE0BC01CE0143963E
:102A50000E94841FCE0143960E94BE196B017C0127
:102A60006DE372E0CE0101960E94C21FBE016F5F4E
:102A70007F4F8FE693E00E94141B4AE0BC01CE0119
:102A800007960E94841FCE0107960E94BE199601E8
:102A900021503109AB01485F5F4F6FE673E0CE0113
:102AA00049960E94C41ABE01675E7F4F89E693E093
:102AB0000E94921ECE0149960E94531FCE01079696
:102AC0000E94531FCE0101960E94531FCE014396D0
:102AD0000E94531FCE010D960E94531F61EF74E0B8
:102AE0008EEA92E00E94EC1F69E673E08EEA92E0C3
:102AF0000E943B2069E673E0CE0101960E94B91F57
:102B0000CE0101960E94DD23182FCE0101960E946E
:102B1000531F113009F0E8C169E673E0CE01079652
:102B20000E94B91F6DE874E080911801909119011D
:102B30000E948C22BC01CE0101960E94C21FBE01E0
:102B4000695F7F4FCE0101960E942E1BF82ECE01A9
:102B500001960E94531FCE0107960E94531FF11049
:102B600010938E0281E080938D020E945104BCC1BB
:102B70006AEE74E0CE0101960E94B01FBE016F5F45
:102B80007F4F8FE693E00E94141B7C01CE010196DB
:102B90000E94531FF7FCAFC06DED74E08EEA92E027
:102BA0000E94EC1F6FE673E08EEA92E00E943B20E9
:102BB00063E472E0CE0101960E94C21FBE016F5F06
:102BC0007F4F8FE693E00E94141B7C01CE0101969B
:102BD0000E94531FF7FC82C063E472E0CE010D96A1
:102BE0000E94C21FBE01635F7F4F8FE693E00E9489
:102BF000141B4AE0BC01CE0143960E94841FCE0103
:102C000043960E94BE192091E90130E08901060F28
:102C1000171F63E472E0CE0101960E94C21FBE013D
:102C20006F5F7F4F8FE693E00E94141B4AE0BC0168
:102C3000CE0107960E94841FCE0107960E94BE19FE
:102C4000AB014F5F5F4F98016FE673E0CE0149968D
:102C50000E94C41ABE01675E7F4F81E593E00E9427
:102C6000921ECE0149960E94531FCE0107960E94E4
:102C7000531FCE0101960E94531FCE0143960E941E
:102C8000531FCE010D960E94531F80918A0481111B
:102C90001DC063E272E0CE0101960E94C21F63E68E
:102CA00073E0CE0101960E94371CBC01CE0107964D
:102CB0000E94B91FCE0107960E94D022CE0107962E
:102CC0000E94531FCE0101960E94531F10928A0446
:102CD00068EE73E080E090E00E944C2163ED74E0C8
:102CE00089E893E00E944D2068EC70E080E090E07D
:102CF0000E944C21F9C06CEC74E0CE0101960E9458
:102D0000B01FBE016F5F7F4F8FE693E00E94141BE0
:102D10007C01CE0101960E94531FF7FC59C06FE65B
:102D200073E08EEA92E00E943B2065E472E0CE01FF
:102D300001960E94C21FBE016F5F7F4F8FE693E036
:102D40000E94141B7C01CE0101960E94531FF7FCC8
:102D5000CBC068E472E0CE0101960E94C21FBE01A2
:102D60006F5F7F4F8FE693E00E94141B4AE0BC0127
:102D7000CE0107960E94841FCE0107960E94BE19BD
:102D8000AB014F5F5F4F6FE673E0CE010D960E947F
:102D90001510CE010D960E94BE196093AD02CE01B2
:102DA0000D966F8F0E94531FCE0107960E94531FEE
:102DB000CE0101960E94531F6F8D862F0E948A19A3
:102DC0008091AD02813009F48FC00E944D288CC0E3
:102DD00066EC74E0CE0101960E94B01FBE016F5FE9
:102DE0007F4F8FE693E00E94141B7C01CE01019679
:102DF0000E94531FF7FC78C06FE673E08EEA92E002
:102E00000E943B2065E472E0CE0101960E94C21F41
:102E1000BE016F5F7F4F8FE693E00E94141B7C0121
:102E2000CE0101960E94531FF7FC5EC068E472E079
:102E3000CE010D960E94C21FBE01635F7F4F8FE6D9
:102E400093E00E94141B4AE0BC01CE0143960E940D
:102E5000841FCE0143960E94BE196B017C0165E47C
:102E600072E0CE0101960E94C21FBE016F5F7F4FCC
:102E70008FE693E00E94141B4AE0BC01CE01079646
:102E80000E94841FCE0107960E94BE19AB014E5FBF
:102E90005F4F96016FE673E0CE0149960E94C41A17
:102EA000CE0149960E94BE196093AC02CE014996AC
:102EB0006F8F0E94531FCE0107960E94531FCE01B1
:102EC00001960E94531FCE0143960E94531FCE01CC
:102ED0000D960E94531F6F8D862F0E948A19809134
:102EE000AC02833609F471CF80917504813031F4DE
:102EF0006FE673E08EEA92E00E943B2067E672E0A4
:102F00008FE693E00E94251F8EEA92E00E94171D33
:102F1000892B61F18EEA92E00E94171D892B79F0CE
:102F20008EEA92E00E94F51C809377040E94F71BC2
:102F300064E170E080E090E00E944C21EBCF809152
:102F40007504813031F46FE673E089E893E00E9404
:102F50003B2081E080938E0280938F020E94510477
:102F600067E672E08FE693E00E94251F6F960FB62A
:102F7000F894DEBF0FBECDBFDF91CF911F910F91AF
:102F8000FF90EF90DF90CF90BF90AF909F908F9089
:102F900008950E94F736AF92BF92CF92DF92EF92E0
:102FA000FF920F931F93CF93DF937B018A01FB0165
:102FB000448155814115510561F1FC012481358120
:102FC0002115310531F12417350718F102171307C0
:102FD00018F0890101501109FC01A080B180C501E0
:102FE000DFEFCFEF6501C00ED11EC816D906A0F0E5
:102FF000F701608171810E943E37009769F09C0162
:103000002A193B090217130710F0D22FC32F01967C
:10301000ECCF8FEF9FEF02C08D2F9C2FDF91CF91D0
:103020001F910F91FF90EF90DF90CF90BF90AF90E6
:103030000895EEEAF2E0A089B18982E08C93A4853C
:10304000B5851C92A685B7858FEC8C93108EA489CC
:10305000B58986E08C93A289B3898C9180618C9329
:10306000A289B3898C9188608C93A289B3898C9151
:1030700080688C930288F389E02D80818F7D808326
:1030800008958F929F92AF92BF920F931F93CF9309
:10309000DF93CDB7DEB7A1970FB6F894DEBF0FBEB2
:1030A000CDBF19A2423008F44AE08E010F5D1F4FD8
:1030B000842E912CA12CB12CA50194010E94FB33EC
:1030C000E62FB901CA0101501109EA3014F4E05D9C
:1030D00001C0E95CD801EC93232B242B252B61F74D
:1030E000B8018EEA92E00E941020A1960FB6F894E3
:1030F000DEBF0FBECDBFDF91CF911F910F91BF906B
:10310000AF909F908F900895EF92FF920F931F932F
:10311000CF93DF9348E050E031E080E097E0E92E84
:10312000F12CC3E2D0E00FEC10E090917B03E09132
:103130007C03F0917D03F8942181292B2183628106
:10314000292F209562236283D7011197F1F76181BE
:1031500026232183DE011197F1F720817894F8016D
:103160003197F1F7922309F0832B330F4150510926
:10317000E1F6DF91CF911F910F91FF90EF900895AD
:10318000CF92DF92EF92FF920F931F93CF93DF9333
:1031900028E030E041E06FEF70E09FE0C92ED12CD5
:1031A000C3E2D0E007ED10E090917B03E0917C0357
:1031B000F0917D03592F5095F42EF82281F0F89468
:1031C000F2805F2152835181592B5183DE01119787
:1031D000F1F75281952B92837894F8010FC0F894FF
:1031E000F2805F2152835181592B5183DB0111976A
:1031F000F1F75281952B92837894F6013197F1F78C
:10320000440F2150310981F6F894E0917C03F0914C
:103210007D03918180917B03809598239183E09138
:103220007C03F0917D039281892382837894DF91DE
:10323000CF911F910F91FF90EF90DF90CF90089565
:1032400090917B03E0917C03F0917D03F894818160
:10325000292F20958223818378948DE743E050E0E5
:10326000815021F1DA011197F1F730813923C1F34F
:10327000F8948281822382838181892B818378944F
:10328000ABE7B7E01197F1F7F89481812823218308
:10329000A3E1B1E01197F1F78081982381E009F073
:1032A00080E07894E3E6F6E03197F1F70895CF9265
:1032B000DF92EF92FF92CF93DF936C01990FEE08AC
:1032C000FF08F7FE14C06DE28EEA92E00E94D71F5D
:1032D000EC0166277727CB016C197D098E099F09C0
:1032E0004AE00E9441187C01EC0EFD1E06C04AE037
:1032F000C701B6010E9441187C018EEA92E00E944B
:1033000025208E0D9F1DDF91CF91FF90EF90DF90D4
:10331000CF900895CF93DF93682F70E080E090E026
:103320004AE00E944118EC018EEA92E00E942520BA
:103330008C0F9D1FDF91CF9108950F931F93CF9313
:10334000DF93FC01C481D581209719F4FB01108221
:1033500010C0C031D10510F0C0E1D0E08B01FC01FC
:1033600060817181AE01C8010E942F37C00FD11F4B
:103370001882DF91CF911F910F910895FC018081F8
:103380009181009711F00C945B2F60E070E0CB010D
:1033900008952F923F924F925F926F927F928F92F9
:1033A0009F92AF92BF92CF92DF92EF92FF920F93D4
:1033B0001F93CF93DF93FC01448055804114510447
:1033C00009F4CFC0FB01648075806114710409F4B5
:1033D000C8C07A016B01EC01FA01A480B580A6187F
:1033E000B70808811981A114B104C1F4F601608104
:1033F0007181C8010E943E37EC01892B09F4B1C0EC
:10340000F7016081718144815581CE010E940437AA
:10341000F701048115810C0F1D1FE8CFB7FE02C014
:10342000480106C0FB01208031804201C80142C032
:10343000F60160817181C4010E943E372C01892B05
:1034400019F1320168187908A301B401C8010E947A
:103450000437060D171DF701608171814481558184
:10346000C8010E940437F70184819581080F191F54
:10347000F60184809580840C951C8C819D818A0D39
:103480009B1D9D838C83D4CFB401C801DF91CF9164
:103490001F910F91FF90EF90DF90CF90BF90AF9072
:1034A0009F908F907F906F905F904F903F902F9064
:1034B0000C942837B1010E943E37009729F0860D01
:1034C000971D8A0C9B1CF6CF8414950409F449C0FF
:1034D0008A819B818815990560F4B4016F5F7F4FE5
:1034E000C8010E942D360097E1F1998388839B8261
:1034F0008A824C815D814150510957FD32C0B6012D
:10350000CE010E94CB178C0197FD2BC08881998139
:10351000F60124813581200F311F820F931F4C81CA
:103520005D81421B530BBC018A0D9B1D0E940D3710
:103530008C819D818A0D9B1D9D838C83288139817F
:10354000F901E80FF91F108288819981F7016081E4
:10355000718144815581800F911F0E940437A80119
:10356000CACFDF91CF911F910F91FF90EF90DF9025
:10357000CF90BF90AF909F908F907F906F905F9013
:103580004F903F902F900895BF92CF92DF92EF928D
:10359000FF920F931F93CF93DF937C016B018A01FE
:1035A000E9012417350720F4812F8901C42FD82F72
:1035B00067E672E0C7010E94C21FD60114968D9182
:1035C0009C91159708171907D0F48C179D0708F4DC
:1035D000EC01D601ED91FC911197EC0FFD1FB0802D
:1035E00010824D915C91BA01600F711FC7010E945A
:1035F000251FD601ED91FC91EC0FFD1FB082C70194
:10360000DF91CF911F910F91FF90EF90DF90CF90BE
:10361000BF900895FC0144815581FB0124813581CF
:10362000421B530B0C94CB17CF93DF93FC012481E7
:103630003581232B71F0FB01DC01CD91DC916081A0
:103640007181CE010E943E37009719F08C1B9D0BB3
:1036500002C08FEF9FEFDF91CF910895FC0124818D
:103660003581FB01448155812417350721F5FC0183
:1036700080819181FB0160817181009719F0611552
:103680007105A1F46115710549F0232BB1F0FB011F
:10369000808190E09195819591090AC0009769F029
:1036A000232B59F0FC01808190E002C00E941F375B
:1036B00021E0892B19F020E001C021E0822F08953C
:1036C000EF92FF920F931F93CF93DF9361157105D4
:1036D00011F480E01EC08B01EC01CB010E94892F08
:1036E0000097B1F02C813D817C01E20EF31EB70101
:1036F000CE010E94CB1E882361F3288139818C8101
:103700009D81B801820F931F0E94822FFD82EC825F
:1037100081E0DF91CF911F910F91FF90EF9008957D
:10372000CF93DF93EC010E94601B811103C0CE0197
:103730000E94F21ECE01DF91CF910895EF92FF9289
:103740000F931F93CF93DF93FC0124813581611583
:10375000710511F480E019C041155105A9F07B01F4
:10376000EC018A01020F131FB8010E94CB1E8823AF
:1037700089F3288139818C819D81B701820F931F44
:103780000E9428371D830C8381E0DF91CF911F9128
:103790000F91FF90EF9008950F931F93CF93DF93B6
:1037A000CDB7DEB764970FB6F894DEBF0FBECDBFBE
:1037B0008E010F5F1F4F22E044E00E94DF2EFC01CC
:1037C00001900020E9F73197AF01481B590BBC016C
:1037D00081E593E00E949E1B64960FB6F894DEBFCD
:1037E0000FBECDBFDF91CF911F910F910895CF9361
:1037F000DF9300D0CDB7DEB789831A8241E050E075
:10380000BE016F5F7F4F8FE693E00E949E1B0F907B
:103810000F90DF91CF9108950F931F93CF93DF9374
:10382000CDB7DEB728970FB6F894DEBF0FBECDBF79
:103830004AE08E010F5F1F4FB8010E949D2FF801D3
:1038400001900020E9F73197AF01401B510BB801FF
:1038500081E593E00E949E1B28960FB6F894DEBF88
:103860000FBECDBFDF91CF911F910F910895CF93E0
:10387000DF93EC01FB0144815581608171810E94DD
:103880009E1B811103C0CE010E94F21ECE01DF916A
:10389000CF910895EF92FF920F931F93CF93DF93F1
:1038A00000D000D0CDB7DEB77C01862F4AE08E0174
:1038B0000F5F1F4FB80190E00E949D2FF80101900B
:1038C0000020E9F73197AF01401B510BB801C70148
:1038D0000E949E1B0F900F900F900F90DF91CF9141
:1038E0001F910F91FF90EF900895CF93DF93EC011C
:1038F0000E944A1C811103C0CE010E94F21ECE011B
:10390000DF91CF9108956115710551F0FB01019090
:103910000020E9F73197AF01461B570B0C949E1B13
:1039200080E00895EF92FF920F931F93CF93DF9360
:10393000EC018B016115710551F0CB010E94892FBB
:103940007C01BC01CE010E94CB1E811104C0CE01BE
:103950000E94F21E07C0FD82EC82B8018881998125
:103960000E94822FCE01DF91CF911F910F91FF9086
:10397000EF9008950895CF92DF92EF92FF920F9308
:103980001F93CF93DF936C017A018B01C0E0D0E0ED
:10399000CE15DF0589F0D8016D918D01D601ED912D
:1039A000FC910190F081E02DC6010995892B11F45D
:1039B0007E0102C02196ECCFC701DF91CF911F910C
:1039C0000F91FF90EF90DF90CF900895FC01538D01
:1039D000448D252F30E0842F90E0821B930B5417E9
:1039E00010F0CF96089501970895FC01918D828D76
:1039F000981761F0828DDF01A80FB11D5D968C9143
:103A0000928D9F5F9F73928F90E008958FEF9FEF4D
:103A10000895FC01918D828D981731F0828DE80F09
:103A2000F11D858D90E008958FEF9FEF0895FC01C3
:103A3000918D228D892F90E0805C9F4F821B910990
:103A40008F73992708958EEA92E00E94171D21E056
:103A5000892B09F420E0822F0895FC01848DDF0179
:103A6000A80FB11DA35ABF4F2C91848D90E00196F1
:103A70008F739927848FA689B7892C93A089B189E0
:103A80008C9180648C93938D848D981306C00288EA
:103A9000F389E02D80818F7D80830895EF92FF92DE
:103AA0000F931F93CF93DF93EC0181E0888F9B8D61
:103AB0008C8D981305C0E889F989808185FD24C023
:103AC000F62E0B8D10E00F5F1F4F0F731127E02EA6
:103AD0008C8DE8120CC00FB607FCFACFE889F98983
:103AE000808185FFF5CFCE010E942D1DF1CF8B8DFA
:103AF000FE01E80FF11DE35AFF4FF0820B8FEA89B8
:103B0000FB898081806207C0EE89FF896083E88934
:103B1000F98980818064808381E090E0DF91CF919A
:103B20001F910F91FF90EF900895CF93DF93EC01D9
:103B3000888D8823C9F0EA89FB89808185FD05C0CD
:103B4000A889B9898C9186FD0FC00FB607FCF5CF07
:103B5000808185FFF2CFA889B9898C9185FFEDCF4F
:103B6000CE010E942D1DE7CFDF91CF91089580E017
:103B700090E0892B29F00E94231D81110C940000F4
:103B800008953FB7F8948091710490917204A091C8
:103B90007304B091740426B5A89B05C02F3F19F09B
:103BA0000196A11DB11D3FBFBA2FA92F982F8827BD
:103BB000820F911DA11DB11DBC01CD0142E0660F18
:103BC000771F881F991F4A95D1F708952091AA035E
:103BD0003091AB032817390771F49091A9038091B4
:103BE000A803981741F0E091A903F0E0E455FC4FD9
:103BF000808190E008958FEF9FEF089508951F93BF
:103C0000CF93DF93DC015C962D913C915D9721155C
:103C1000310539F481E090E013969C938E931297CE
:103C20003DC05196ED91FC91529750969C915097C2
:103C3000892F80951FB75E964C915E9741FB772741
:103C400070F941FD6095F8944081772311F0492B7C
:103C500001C048234083E9012197F1F748E05081F2
:103C600060FF02C0592B01C058235083E9012197FE
:103C7000F1F76695415099F7772321F090818923D8
:103C8000808303C08081982B90831FBF5C968D91A9
:103C90009C915D970197F1F721E030E0C901DF9138
:103CA000CF911F9108952091AA033091AB0328175B
:103CB000390771F48091A8032091A90390E0805402
:103CC0009F4F821B910960EC70E00E94D2340895EE
:103CD00080E090E008952091AA033091AB0328176B
:103CE0003907C9F49091A9038091A803981799F016
:103CF000E091A903F0E0E455FC4F20818091A903F5
:103D000090E0019660EC70E00E94D2348093A903A9
:103D1000822F90E008958FEF9FEF0895089580E03F
:103D200090E008950F931F93CF93DF938C01EB01E5
:103D3000FC01808191810097B1F0688179816115E2
:103D4000710579F0428153812C813D8142175307DF
:103D500040F00E9428378C819D81F80195838483EF
:103D600013C00E94953588819981F80191838083E1
:103D70008A819B81938382838C819D8195838483B7
:103D8000198218821B821A821D821C82DF91CF91B8
:103D90001F910F9108950F931F93CF93DF93EC0121
:103DA00088819981009729F02A813B81261737075E
:103DB00088F48B016F5F7F4F0E942D36009761F072
:103DC000998388831B830A832C813D81232B11F4E3
:103DD000FC01108281E001C080E0DF91CF911F9152
:103DE0000F910895CF93DF93EC018881998100971B
:103DF00011F00E949535198218821D821C821B8247
:103E00001A82DF91CF910895EF92FF920F931F9343
:103E1000CF93DF93EC017B018A01BA010E94CB1E94
:103E2000811104C0CE010E94F21E07C01D830C83C5
:103E3000B701888199810E942837CE01DF91CF9107
:103E40001F910F91FF90EF900895CF93DF93EC01B6
:103E50006115710559F0FB0101900020E9F73197D8
:103E6000AF01461B570B0E94041F02C00E94F21EA6
:103E7000CE01DF91CF910895CF93DF93EC01FB0149
:103E80008617970761F0608171816115710529F0CE
:103E9000448155810E94041F02C00E94F21ECE017F
:103EA000DF91CF910895FC01808191810C9495352B
:103EB0000F931F93CF93DF93CDB7DEB761970FB604
:103EC000F894DEBF0FBECDBF8C01CB01F80111828B
:103ED0001082138212821582148250E0BE016F5F3D
:103EE0007F4F0E94BD2FBE016F5F7F4FC8010E94B0
:103EF000251F61960FB6F894DEBF0FBECDBFDF91D0
:103F0000CF911F910F9108950F931F93CF93DF933C
:103F1000CDB7DEB762970FB6F894DEBF0FBECDBF48
:103F20008C01CB01F801118210821382128215825A
:103F3000148250E0BE016F5F7F4F0E94922FBE013E
:103F40006F5F7F4FC8010E94251F62960FB6F894DD
:103F5000DEBF0FBECDBFDF91CF911F910F910895AE
:103F6000FC011182108213821282158214820C9439
:103F7000921CFC011182108213821282158214821B
:103F80000C943C1FFC011182108213821282158254
:103F900014826115710551F0FB0101900020E9F7D1
:103FA0003197AF01461B570B0C94041F0895DC0199
:103FB000ED91FC910190F081E02D0994DC01ED91EF
:103FC000FC91DB0114964D915C9115976D917C915C
:103FD0000280F381E02D0994EF92FF920F931F93DB
:103FE000CF93DF938C017B01C0E0D0E0F701EC0FB1
:103FF000FD1F6491662361F0D801ED91FC91019061
:10400000F081E02DC8010995892B11F02196EECFA2
:10401000CE01DF91CF911F910F91FF90EF90089506
:104020006115710579F0FB0101900020E9F73197E6
:10403000AF01461B570BDC01ED91FC910280F3812F
:10404000E02D099480E090E0089565E672E00C941C
:1040500010200F931F93CF93DF93EC010E94102049
:104060008C01CE010E942520800F911FDF91CF91FE
:104070001F910F9108950F931F93CF93DF93EC013E
:104080000E94DE1F8C01CE010E942520800F911F0F
:10409000DF91CF911F910F9108950F931F93CF93AD
:1040A000DF93EC010E94EC1F8C01CE010E942520C1
:1040B000800F911FDF91CF911F910F9108951F9253
:1040C0000F920FB60F9211242F933F934F935F934C
:1040D0006F937F938F939F93AF93BF93EF93FF93D0
:1040E0008EEA92E00E942D1DFF91EF91BF91AF915A
:1040F0009F918F917F916F915F914F913F912F9100
:104100000F900FBE0F901F9018951F920F920FB631
:104110000F9211242F938F939F93EF93FF93E0912E
:10412000BE02F091BF028081E091C402F091C5020D
:1041300082FD12C090818091C7028F5F8F732091A2
:10414000C802821751F0E091C702F0E0E255FD4F3E
:10415000958F8093C70201C08081FF91EF919F915D
:104160008F912F910F900FBE0F901F901895833055
:1041700081F028F4813099F08230A1F008958730E1
:10418000A9F08830B9F08430D1F4809180008F7D1F
:1041900003C0809180008F7780938000089584B55C
:1041A0008F7702C084B58F7D84BD08958091B00063
:1041B0008F7703C08091B0008F7D8093B000089509
:1041C0001F93CF93DF93282F30E0F901E555FA4F85
:1041D0008491F901EF57FA4FD491F901E359FA4F5D
:1041E000C491CC23C9F0162F81110E94B720EC2F67
:1041F000F0E0EE0FFF1FE75AFA4FA591B4918FB789
:10420000F894111105C09C91ED2FE095E92302C0AF
:10421000EC91ED2BEC938FBFDF91CF911F9108951F
:10422000CF93DF9390E0FC01EF57FA4F2491FC010C
:10423000E359FA4F8491882361F190E0880F991F28
:10424000FC01EF55FA4FC591D491FC01E75AFA4FA2
:10425000A591B491611109C09FB7F8948881209508
:1042600082238883EC912E230BC0623061F49FB7C8
:10427000F8943881822F809583238883EC912E2BAC
:104280002C939FBF06C08FB7F894E8812E2B28830C
:104290008FBFDF91CF9108958F929F92AF92BF927F
:1042A000CF92DF92EF92FF926B017C010E94C11DC1
:1042B0004B015C01C114D104E104F104F1F00E944E
:1042C000C11DDC01CB0188199909AA09BB09883EE7
:1042D0009340A105B10570F321E0C21AD108E108AD
:1042E000F10888EE880E83E0981EA11CB11CC11451
:1042F000D104E104F10419F7DDCFFF90EF90DF90D6
:10430000CF90BF90AF909F908F9008952FB7F89463
:1043100060916D0470916E0480916F0490917004AF
:104320002FBF08951F920F920FB60F9211242F9353
:104330003F938F939F93AF93BF9380916D04909120
:104340006E04A0916F04B091700430916C0423E06E
:10435000230F2D3720F40196A11DB11D05C026E8BD
:10436000230F0296A11DB11D20936C0480936D0450
:1043700090936E04A0936F04B093700480917104C5
:1043800090917204A0917304B09174040196A11DE0
:10439000B11D8093710490937204A0937304B09341
:1043A0007404BF91AF919F918F913F912F910F9086
:1043B0000FBE0F901F9018951F920F920FB60F927D
:1043C00011242F933F934F935F936F937F938F931A
:1043D0009F93AF93BF93EF93FF93E091AA03F09164
:1043E000AB03309709F453C0968DA685B7858585B4
:1043F00091FF04C09C91892329F449C09C91892391
:1044000009F045C0A389B4899C9185898095892349
:104410008C93868997890197F1F7608D718DA685B8
:10442000B785558538E020E0CB010197F1F7822F61
:1044300090E095958795282F4C91452309F02068A9
:10444000315091F7868D81FD20958091A80390E0F1
:10445000019660EC70E00E94D2349091A903981705
:1044600049F0A091A803B0E0A455BC4F2C938093D1
:10447000A80303C0868D8160868F828D938D0197FE
:10448000F1F7A389B4899C918589892B8C93FF913D
:10449000EF91BF91AF919F918F917F916F915F91BC
:1044A0004F913F912F910F900FBE0F901F90189535
:1044B000AF92BF92CF92DF92EF92FF920F931F9332
:1044C000CF93DF931F92CDB7DEB75C017B018B01E9
:1044D0006C0181E1C80ED11CF80161918F01C50109
:1044E00069830E947C336981681719F0C5010E94B5
:1044F0008433FFEFAF1ABF0AAC14BD0469F7C701DC
:104500000F90DF91CF911F910F91FF90EF90DF906F
:10451000CF90BF90AF900895CF92DF92EF92FF922D
:104520000F931F93CF93DF93EB017B0121E1E20E09
:10453000F11C8B016C01C61AD70AC601800F911FAE
:104540000E947C33F80181938F01EE15FF05A9F7D6
:10455000CE01DF91CF911F910F91FF90EF90DF90EF
:10456000CF9008950F931F93CF93DF931F92CDB7F2
:10457000DEB78C0169830E947C336981681741F042
:10458000C8010F90DF91CF911F910F910C9484334C
:104590000F90DF91CF911F910F9108950C947C3370
:1045A000CF93DF93EC0168EE73E080E090E00E942F
:1045B0004C2167E975E089E893E00E94EC1FBE0199
:1045C00089E893E00E94DE1F65E975E089E893E0E1
:1045D0000E944D2064EF71E080E090E00E944C2149
:1045E00061E573E089E893E00E94DE1F64EF71E00B
:1045F00080E090E00E944C216AE189E893E00E940B
:10460000D71F64EF71E080E090E00E944C2168E6E3
:1046100072E08EEA92E00E941020BE018EEA92E0E3
:104620000E94DE1F6DE573E08EEA92E00E94DE1FBD
:1046300061E573E08EEA92E00E943B2068E873E156
:1046400080E090E0DF91CF910C944C21CF92DF92EB
:10465000EF92FF920F931F93CF93DF93CDB7DEB707
:1046600062970FB6F894DEBF0FBECDBF90910201E6
:10467000913009F057C0182F83E0E82E81E0F82E22
:104680000AE0113031F4F701C588D688C601439697
:1046900007C01230D9F5F701C588D688C6014596FE
:1046A0000E94CE22813091F56DE874E0C6010E942F
:1046B0008C22BC01CE0107960E94C21F63E272E009
:1046C000CE0101960E94C21FBE01695F7F4FCE01DD
:1046D00001960E94371CBC01CE010D960E94B91FA5
:1046E000CE010D960E94D022CE010D960E94531F3E
:1046F000CE0101960E94531FCE0107960E94531FC0
:1047000068EE73E080E090E00E944C210150F7E1F8
:10471000EF0EF11C0111B5CF113021F410938C0470
:1047200010938B0462960FB6F894DEBF0FBECDBF18
:10473000DF91CF911F910F91FF90EF90DF90CF907D
:10474000089561E08BE00E94E02064E670E080E084
:1047500090E00E944C2160E08BE00E94E02064E643
:1047600070E080E090E00E944C2161E08BE00C94CE
:10477000E0200E94A1230C94A123813011F48093A6
:104780008A046FE672E089E893E00E94292068EECF
:1047900073E080E090E00C944C21813011F4809320
:1047A0008A0468E772E089E893E00E94292068EEB5
:1047B00073E080E090E00C944C21CF92DF92FF9266
:1047C0000F931F93CF93DF9300D000D000D0CDB7CD
:1047D000DEB76C0103E011E06DE874E0F801858953
:1047E00096890E948C22BC01CE0101960E94C21FB4
:1047F000B601CE0101960E942E1BF82ECE01019625
:104800000E94531FFF2041F0B60183E693E00E940F
:104810003C1FFF24F39406C0095E1F4FF1E0093EE0
:104820001F07D1F68F2D26960FB6F894DEBF0FBE68
:10483000CDBFDF91CF911F910F91FF90DF90CF906F
:10484000089560ED77E080E090E00E944C2160E206
:1048500076E089E893E00E944D2010927804089554
:104860008EEA92E00C9425208F929F92AF92BF9295
:10487000CF92DF92EF92FF920F931F93CF93DF932C
:10488000CDB7DEB76E970FB6F894DEBF0FBECDBFC3
:104890007C01162F6CE172E0CE0101960E94C21FCE
:1048A000BE016F5F7F4FC7010E940A1B4AE0BC0137
:1048B000CE0107960E94841FCE0107960E94BE1962
:1048C000AB014F5F5F4FB701CE0143960E941510B9
:1048D000CE0107960E94531FCE0101960E94531FDE
:1048E0006FE772E0CE0101960E94C21FBE016F5FAA
:1048F0007F4FCE0143960E94141BD92ECE01019604
:104900000E94531FD094DD1CDD24DD1C61E872E0A1
:10491000CE0101960E94C21FBE016F5F7F4FCE0184
:1049200043960E94141BC92ECE0101960E94531F6C
:10493000C094CC1CCC24CC1C63E872E0CE01019660
:104940000E94C21FBE016F5F7F4FCE0143960E943F
:10495000141BE92ECE0101960E94531FE094EE1C19
:10496000EE24EE1C65E872E0CE0101960E94C21FA3
:10497000BE016F5F7F4FCE0143960E94141BF92E3C
:10498000CE0101960E94531FF094FF1CFF24FF1CD0
:1049900067E672E0CE0107960E94C21F6FE772E0E1
:1049A000CE0101960E94C21FAE01495F5F4FBE015A
:1049B0006F5F7F4FCE0143960E94C919CE010196C9
:1049C0000E94531FCE0107960E94531F67E672E0B4
:1049D000CE0107960E94C21F61E872E0CE010196E7
:1049E0000E94C21FAE01495F5F4FBE016F5F7F4FE4
:1049F000CE0143960E94C919CE0101960E94531F11
:104A0000CE0107960E94531F67E672E0CE0107961B
:104A10000E94C21F63E872E0CE0101960E94C21F8D
:104A2000AE01495F5F4FBE016F5F7F4FCE0143967E
:104A30000E94C919CE0101960E94531FCE0107960C
:104A40000E94531F67E672E0CE0107960E94C21FC4
:104A500065E872E0CE0101960E94C21FAE01495F77
:104A60005F4FBE016F5F7F4FCE0143960E94C91911
:104A7000CE0101960E94531FCE0107960E94531F3C
:104A800067E672E0CE0107960E94C21F6EE172E0F7
:104A9000CE0101960E94C21FAE01495F5F4FBE0169
:104AA0006F5F7F4FCE0143960E94C919CE010196D8
:104AB0000E94531FCE0107960E94531F63E272E0CB
:104AC000CE0101960E94C21FBE016F5F7F4FCE01D3
:104AD00043960E94141B4AE0BC01CE0107960E9437
:104AE000841FCE0107960E94BE199B0140E050E052
:104AF000BE016D5E7F4FCE010D960E94C41ACE019D
:104B000007960E94531FCE0101960E94531F63E235
:104B100072E0CE0101960E94C21FBE016F5F7F4FFF
:104B2000CE0143960E940A1B4AE0BC01CE01499681
:104B30000E94841FCE0149960E94BE19AB014F5FAF
:104B40005F4FBE016D5E7F4FCE0107960E9415102C
:104B5000CE0149960E94531FCE0101960E94531F19
:104B6000113009F0C6C0CE010D960E94BE19062F65
:104B7000BE01695F7F4FCE0149960E94B91F6DE863
:104B800074E080911801909119010E948C22BC015F
:104B9000CE0101960E94C21F8D819E81892B39F022
:104BA000E981FA818081882319F010E001C011E0C9
:104BB000CE0101960E94531F112361F06BE676E04F
:104BC0008EEA92E00E944D200E9430240E94B92378
:104BD00080E001C081E09EEF900F9A3058F068E5C8
:104BE00076E08EEA92E00E944D200E9430240E94DE
:104BF000B9237AC0813009F077C0015083E0882E54
:104C000081E0982EAA24A394B12C6DE874E0F401FD
:104C1000858996890E948C22BC01CE0101960E9452
:104C2000C21FBE01675E7F4FCE0101960E942E1B00
:104C3000182FCE0101960E94531F112391F065E3B6
:104C400076E08EEA92E00E94EC1FC5010E9457199F
:104C50000E9430248FEF8A0D801719F0F12CE12C7F
:104C6000D12CF7E18F0E911C8FEFA81AB80AEBE058
:104C7000AE16B10451F669E774E0CE0149960E9480
:104C80009D19F7E10F9F800111240D5F1E4F69E709
:104C900074E0F801858996890E945822F801858977
:104CA00096896D2D43960E94B222F80185899689D6
:104CB0006C2D44960E94B222F801858996896E2D4A
:104CC00045960E94B222F801858996896F2D4696F5
:104CD0000E94B22268E276E08EEA92E00E944D20C5
:104CE0000E9430240E94A123CE0149960E94531FA6
:104CF0002CC0123051F580911801909119016D2D41
:104D000043960E94B22280911801909119016C2D56
:104D100044960E94B22280911801909119016E2D43
:104D200045960E94B22280911801909119016F2D31
:104D300046960E94B22266E876E08EEA92E00E94F1
:104D40004D200E9430240E94A123CE0107960E948C
:104D5000531FCE010D960E94531FCE0143960E9411
:104D6000531F6E960FB6F894DEBF0FBECDBFDF9116
:104D7000CF911F910F91FF90EF90DF90CF90BF9058
:104D8000AF909F908F9008950F931F93CF93DF93D1
:104D900000D000D000D0CDB7DEB760ED77E080E086
:104DA00090E00E944C210E9419181092A4031092C6
:104DB000A3031092A2031092A1031092A0031092D9
:104DC0009F038DE991E09093A6038093A5039091B2
:104DD0009503963108F057C02DEB30E03093A003D7
:104DE00020939F032BE931E03093A2032093A1038A
:104DF0002CE231E03093A4032093A30320916800B8
:104E0000983050F031E09E3008F430E081E001C08D
:104E1000880F3A95EAF701C084E0822B80936800FE
:104E2000983038F09E3040F0963148F020E030E085
:104E300008C02DE630E005C02BE630E002C02CE6CD
:104E400030E030939D0320939C03983030F481E050
:104E500001C0880F9A95EAF70EC0292F30E09E30E6
:104E600018F42850310902C02E50310981E001C0E8
:104E7000880F2A95EAF780939E038091A50390916D
:104E8000A6030197F1F78091A3039091A403892BC6
:104E900049F1E091AA03F091AB0383E0E938F80708
:104EA00009F1309739F0A389B4899C91858980955F
:104EB00089238C938091A7038E7F8093A703109200
:104EC000A8031092A90389E893E09093AB03809321
:104ED000AA03E0919C03F0919D03908180919E0331
:104EE000892B80831AE06DE176E089E893E00E94E7
:104EF0004D2068EC70E080E090E00E944C21115061
:104F000091F769E176E089E893E00E944D206AE03C
:104F100070E080E090E00E944C2189E893E00E94DC
:104F2000531E892B09F471C089E893E00E94531E37
:104F3000892B79F089E893E00E946B1E80937704B7
:104F40000E94F71B64E170E080E090E00E944C2139
:104F5000EBCF80917604811152C064E176E0CE01FE
:104F600001960E94B01FBE016F5F7F4F8FE693E0F6
:104F70000E94141B8C01CE0101960E94531F17FD45
:104F800003C081E0809376046DE076E0CE01019667
:104F90000E94B01FBE016F5F7F4F8FE693E00E94BB
:104FA000141B8C01CE0101960E94531F17FD03C0F4
:104FB00082E0809376046AE076E0CE0101960E945A
:104FC000B01FBE016F5F7F4F8FE693E00E94141BFE
:104FD0008C01CE0101960E94531F17FD03C083E090
:104FE0008093760467EF75E08EEA92E00E94EC1FF2
:104FF00080917604082E000C990B0E94571967E6E1
:1050000072E08FE693E00E94251F6DEE75E089E85F
:1050100093E00E944D2064E670E080E090E00E9402
:105020004C2163EE75E089E893E00E944D2064E630
:1050300070E080E090E00E944C2165ED75E089E829
:1050400093E00E944D2064E670E080E090E00E94D2
:105050004C2169EC75E089E893E00E944D2064E6FC
:1050600070E080E090E00E944C21809175048130D6
:1050700019F464EC75E002C06FEB75E089E893E029
:105080000E944D2026960FB6F894DEBF0FBECDBF0E
:10509000DF91CF911F910F91089560E086E00E940B
:1050A000E02064EF71E080E090E00E944C2161E03C
:1050B00086E00E94E02060E177E280E090E00E94DC
:1050C0004C216EE976E08EEA92E00E944D200C942D
:1050D000C426CF93DF9380E090E00E94CE228130FF
:1050E00009F45AC063E278E08EEA92E00E944D2013
:1050F000C0E0D0E06FEFCE010E94B2226AE070E023
:1051000080E090E00E944C212196CE31D10591F7AC
:1051100063E078E08EEA92E00E944D200E94302405
:1051200060E08CE090E00E94B22261E08DE090E0CF
:105130000E94B22261E08EE090E00E94B22260E024
:105140008FE090E00E94B2226AE082E190E00E944B
:10515000B22261E083E190E00E94B2226AE084E141
:1051600090E00E94B22266E485E190E00E94B222C3
:1051700060E087E190E00E94B22268E288E190E07E
:105180000E94B22260E089E190E00E94B22261E0D8
:1051900080E090E00E94B22280E090E00E94CE2267
:1051A000813009F0FBC060EF77E08EEA92E00E9468
:1051B0004D200E94302488E190E00E94CE2290E0B1
:1051C0009093B7048093B60465EE77E08EEA92E0A0
:1051D0000E94EC1F6091B6047091B70480E090E0EB
:1051E0004AE00E9441188EEA92E00E9425208CE05D
:1051F00090E00E94CE22809375046EED77E08EEAF7
:1052000092E00E94EC1F80917504082E000C990B0F
:105210000E9457198DE090E00E94CE228093EB010E
:1052200068ED77E08EEA92E00E94EC1F8091EB013E
:10523000082E000C990B0E9457198EE090E00E94F6
:10524000CE228093020160ED77E08EEA92E00E9428
:10525000EC1F80910201082E000C990B0E94571937
:105260008FE090E00E94CE2290E09093B50480936E
:10527000B40461EC77E08EEA92E00E94EC1F60914A
:10528000B4047091B50480E090E04AE00E944118B7
:105290008EEA92E00E94252082E190E00E94CE22D8
:1052A0008093B30461EB77E08EEA92E00E94EC1FFA
:1052B0008091B304082E000C990B0E94571984E1C9
:1052C00090E00E94CE228093B20467EA77E08EEAF3
:1052D00092E00E94EC1F8091B204082E000C990B02
:1052E0000E94571985E190E00E94CE228093B1047C
:1052F0006CE977E08EEA92E00E94EC1F8091B104A5
:10530000082E000C990B0E94571983E190E00E942F
:10531000CE228093EA0187E190E00E94CE22809322
:10532000B00461E977E08EEA92E00E944D2069E8DE
:1053300077E08EEA92E00E94EC1F8091EA01082E4D
:10534000000C990B0E94571961E877E08EEA92E011
:105350000E94EC1F8091B0040E948A1989E190E0BC
:105360000E94CE228093760467E777E08EEA92E08F
:105370000E94EC1F80917604811107C06CE677E0F3
:105380008EEA92E00E944D2005C0082E000C990B79
:105390000E945719DF91CF910C943024DF91CF9167
:1053A0000895AF92BF92CF92DF92EF92FF920F9348
:1053B0001F93CF93DF9300D000D000D0CDB7DEB7DE
:1053C0006AE577E08EEA92E00E944D2066E577E09C
:1053D0008EEA92E00E94EC1F6DE573E0CE0101962B
:1053E0000E94B91F60E577E0CE0101960E94901BF4
:1053F000BC018EEA92E00E94DE1FCE0101960E945F
:10540000531F6DE573E0CE0101960E94B91F6EE453
:1054100077E0CE0101960E94901BBC018EEA92E0DB
:105420000E94DE1FCE0101960E94531F6DE573E0BE
:10543000CE0101960E94B91F6CE477E0CE0101967F
:105440000E94901BBC018EEA92E00E94DE1FCE01FA
:1054500001960E94531F6DE573E0CE0101960E94F4
:10546000B91F6AE477E0CE0101960E94901BBC014F
:105470008EEA92E00E94DE1FCE0101960E94531F29
:105480006DE573E0CE0101960E94B91F68E477E0F4
:10549000CE0101960E94901BBC018EEA92E00E9410
:1054A0003B20CE0101960E94531F03E011E0E12C46
:1054B000F12C6DE874E0F801858996890E948C22B0
:1054C000F8018589968943960E94CE22B82EFFEF77
:1054D000EF1AFF0A4AE0B701CE0101960E94841F2D
:1054E0006DE573E0CE0101960E94371C6C01EDE87A
:1054F000F4E001900020E9F73197AF014D58544096
:105500006DE874E00E949E1B882309F45FC06DE57E
:1055100073E0C6010E94371C6B2D0E94751CBC01F4
:105520008EEA92E00E94DE1FCE0101960E94531F78
:10553000F801C588D688C60146960E94CE22B82EAC
:10554000C60145960E94CE22A82EC60144960E940E
:10555000CE22D82E6DE573E0CE0101960E94B91FD0
:105560006D2DCE0101960E94751C6DE573E00E94C1
:10557000371C6A2D0E94751C6DE573E00E94371C74
:105580006B2D0E94751CBC018EEA92E00E943B20AC
:10559000CE0101960E94531F095E1F4FFAE0EF16DD
:1055A000F10409F086CF0E94302426960FB6F894B5
:1055B000DEBF0FBECDBFDF91CF911F910F91FF9046
:1055C000EF90DF90CF90BF90AF900895C6010E94FA
:1055D000F21E9DCFCF93DF9383E690E00E94CE2210
:1055E000813009F450C063E377E08EEA92E00E94D4
:1055F0004D20C4E6D0E06FEFCE010E94B2226AE0F7
:1056000070E080E090E00E944C212196C03981E05A
:10561000D80789F76AE177E08EEA92E00E944D2090
:105620000E943024C7E1D1E0BE0164517109898133
:105630009A810E945822FE01339789819A81608164
:1056400043960E94B222FE01329789819A8160813D
:1056500044960E94B222FE01319789819A8160812D
:1056600045960E94B22289819A81688146960E945D
:10567000B222679681E0CD3FD807B1F661E083E6BC
:1056800090E00E94B22283E690E00E94CE22813018
:1056900021F4DF91CF910C94D129DF91CF9108951E
:1056A00081E390E00E94CE22813071F165E077E0E5
:1056B0008EEA92E00E944D206AEE76E08EEA92E059
:1056C0000E944D200E9430246AE472E085E793E056
:1056D0000E94251F86E18093E9016FE974E085E768
:1056E00093E00E949D196FE974E08EE190E00E94C2
:1056F00058226091E90180E390E00E94B22261E0CB
:1057000081E390E00E94B22281E390E00E94CE22E9
:10571000813049F56FE974E08EE190E00E948C22BF
:10572000BC0185E793E00E94251F80E390E00E9482
:10573000CE228093E90169ED76E08EEA92E00E9444
:10574000EC1F65E773E08EEA92E00E943B2066EC76
:1057500076E08EEA92E00E94EC1F8091E9010E94BF
:105760008A190C943024089580918A04813031F490
:1057700064EB76E08BE493E00C94601B6DEB76E0D9
:105780008BE493E00E94601B409167035091680393
:1057900060916303709164038BE493E00C949E1B0F
:1057A0000F931F93CF93DF93CDB7DEB762970FB6FA
:1057B000F894DEBF0FBECDBF182F81E080930201A9
:1057C00010929E0461E08EE090E00E94B2226AEAAC
:1057D00076E08BE493E00E94921C113011F4109358
:1057E0008A040E94B42B6BE473E08EEA92E00E947C
:1057F0003B206BE473E081E593E00E943C1F68EE80
:1058000073E080E090E00E944C2103E011E0F80199
:105810008589968946960E94CE228130D1F568EE20
:1058200073E080E090E00E944C216DE874E0F801A4
:10583000858996890E948C22BC01CE0107960E9420
:10584000C21F63E272E0CE0101960E94C21FBE0138
:10585000695F7F4FCE0101960E94371CBC01CE01CB
:105860000D960E94B91FCE010D960E94D022CE0146
:105870000D960E94531FCE0101960E94531FCE0128
:1058800007960E94531F68EE73E080E090E00E944C
:105890004C21095E1F4FF1E0093E1F0709F0B7CF09
:1058A00010928A0462960FB6F894DEBF0FBECDBF89
:1058B000DF91CF911F910F9108950F931F93CF9375
:1058C000DF93CDB7DEB762970FB6F894DEBF0FBE99
:1058D000CDBF182F1092020160E08EE090E00E9490
:1058E000B2226FE378E08BE493E00E94921C1130C7
:1058F00011F410938A040E94B42B6BE473E08EEAD7
:1059000092E00E943B206BE473E081E593E00E940B
:105910003C1F68EE73E080E090E00E944C2103E0C1
:1059200011E0F8018589968946960E94CE22813041
:10593000D1F568EE73E080E090E00E944C216DE8C4
:1059400074E0F801858996890E948C22BC01CE0101
:1059500007960E94C21F63E272E0CE0101960E9488
:10596000C21FBE01695F7F4FCE0101960E94371CA6
:10597000BC01CE010D960E94B91FCE010D960E946A
:10598000D022CE010D960E94531FCE0101960E9497
:10599000531FCE0107960E94531F68EE73E080E00C
:1059A00090E00E944C21095E1F4FF1E0093E1F0765
:1059B00009F0B7CF10928A0462960FB6F894DEBF52
:1059C0000FBECDBFDF91CF911F910F91089510921F
:1059D000B1021092B00288EE93E0A0E0B0E08093B4
:1059E000B2029093B302A093B402B093B5022AEF2F
:1059F00031E03093AF022093AE0225EC30E03093DB
:105A0000BB022093BA0224EC30E03093BD02209315
:105A1000BC0220EC30E03093BF022093BE0221ECA8
:105A200030E03093C1022093C00222EC30E030938A
:105A3000C3022093C20226EC30E03093C5022093CB
:105A4000C4021092C7021092C8021092C9021092AA
:105A5000CA0210928C0310928B0380938D03909353
:105A60008E03A0938F03B09390038CE092E0909309
:105A70008A03809389031092A00310929F031092CF
:105A8000A2031092A1031092A4031092A3031092F8
:105A9000A6031092A5036091A7036E7F6D7F6093AC
:105AA000A7036695617081E0682789E00E94E02085
:105AB00061E089E00E941021EAE8F5E0E491E093DA
:105AC0009903E6E7F5E0E491F0E0EE0FFF1FE75AF7
:105AD000FA4F8591949190939B0380939A0360E091
