:100000000C941D040C9445040C9445040C9452204B
:100010000C9452200C9452200C9445040C944504EA
:100020000C9445040C9445040C9445040C9445042C
:100030000C9445040C9445040C9445040C9445041C
:100040000C9408200C9445040C942A1E0C94041E55
:100050000C9445040C9445040C9445040C944504FC
:100060000C9445040C94450400407A10F35A00A007
:10007000724E18090010A5D4E80000E87648170071
:1000800000E40B54020000CA9A3B000000E1F505B1
:10009000000080969800000040420F000000A086FB
:1000A00001000000102700000000E803000000002D
:1000B0006400000000000A000000000001000000D1
:1000C00000002C76D888DC674F0823DFC1DFAE59EB
:1000D000E1B1B796E5E3E453C63AE651997696E87E
:1000E000E6C28426EB898C9B62ED407C6FFCEFBC02
:1000F0009C9F40F2BAA56FA5F490055A2AF75C932D
:100100006B6CF9676DC11BFCE0E40D47FEF520E662
:10011000B500D0ED902E0300943577050080841E45
:10012000080000204E0A000000C80C333333330FA0
:10013000986E12831141EF8D2114893BE65516CF3D
:10014000FEE6DB18D1844B381BF77C1D901DA4BB49
:10015000E424203284725E228100C9F124ECA1E5FE
:100160003D274572726F722064656C6574696E67B5
:100170002070686F6E653A202B0044656C6574656D
:100180002070686F6E653A202B0057617463685069
:100190006F77657254696D652069733A2000526902
:1001A0006E6754696D652069733A20004C6F77540F
:1001B000656D702069733A20004869676854656D01
:1001C000702069733A20004E6574436865636B5410
:1001D000696D652069733A200054656D70436865E8
:1001E000636B54696D652069733A20006661696CC0
:1001F00065642E007061737365642E0054657374BA
:1002000020004661696C65642063656C6C3A20006F
:100210004200454550524F4D3A20004E6F742075B4
:1002200073652E0041362E0053494D3830304C2E28
:10023000004D353930652E005265626F6F742E00A7
:100240004175746F6465746563742E002E204D6F64
:1002500064656D3A200043757272656E742049447E
:100260003A200050726576696F75732049443A20D0
:100270000041542B435553443D312C2200534D53E0
:100280002072656D6F766564003400302C34004157
:10029000542B434D47443D00636C656172736D732D
:1002A000006C65646F00746573746F0067756172CC
:1002B000646F006E6574737461747573006D6F6E36
:1002C0006579000A00206D696E000A54656D7043FF
:1002D0006865636B54696D653A20000A4869676810
:1002E0003A20000A4C6F773A20000A53656E736F0C
:1002F00072206572726F72210043757272656E743E
:100300002074656D70657261747572653A2000695C
:100310006E666F006D6F64656D6964007265626F13
:100320006F74006C69737470686F6E65006D656DD5
:1003300074657374006C697374636F6E66696700CB
:10034000656469746D61696E70686F6E6500330015
:1003500032006E320031006E3100576174636820E4
:1003600074686520706F776572204F0077617463E1
:1003700068706F7765726F007265736574636F6E16
:1003800066696700726573657470686F6E65006694
:10039000756C6C72657365740074656D7063686507
:1003A000636B74696D65006E6574636865636B7417
:1003B000696D65006869676874656D70006C6F775A
:1003C00074656D700072696E6774696D6500776140
:1003D000746368706F77657274696D650062616CD3
:1003E000616E63656E756D0064656C6574657068DB
:1003F0006F6E650061646470686F6E6500506F7742
:10040000657220737570706C7920726573746F7289
:10041000656400506F77657220737570706C792019
:10042000646973636F6E6E65637465642000206D2C
:10043000696E757465732061676F000A4C6F772071
:1004400074656D70657261747572653A20000A4852
:100450006967682074656D70657261747572653A5C
:1004600020000A436865636B2074656D7065726176
:10047000747572652073656E736F7221003B004165
:1004800054442B00416C61726D2052696E673A20B2
:100490002B005072696D6172792070686F6E653AD9
:1004A000202B002B4353513A002B435245473A002F
:1004B00041542B435553443D300055535344207110
:1004C000756572793A20002B435553443A00534DD9
:1004D000532066726F6D3A202B002C22002C2C00CA
:1004E0002B434D543A0052696E672066726F6D3A25
:1004F000202B002C0052494E470054656D706572E8
:1005000061747572653A20004572726F722073656E
:100510006E736F722E0000000008000201000003DD
:100520000407000000000000000020617420626FDA
:100530006F742E0047534D2054656D706572617461
:1005400075726520416C61726D20323031382E3108
:10055000322E32322D30310041542B434855500059
:1005600050686F6E652061646465642E0050686F2A
:100570006E6520616C726561647920657869737459
:100580007320696E207468652063656C6C3A200086
:100590004572726F722C2077726F6E672063656C84
:1005A0006C2E004572726F722C206E6F7420736512
:1005B00074206D61696E2070686F6E652E005068E2
:1005C0006F6E652073657474696E6773206368610C
:1005D0006E6765642E005265626F6F744D6F64655F
:1005E0006D00220041542B434D47533D2200000033
:1005F0000000240027002A004775617264204F46DE
:10060000462E004775617264204F4E2E0020436FC6
:100610006E736F6C65002050686F6E65202B004C08
:10062000656E67746820746F2072657475726E3AB7
:10063000200042616C616E6365206E756D6265724B
:100640003A20004C6F61642064656661756C7420AB
:1006500062616C616E636520646174612E00446543
:100660006C6574652062616C616E636520646174A1
:10067000612E004C6F61642064656661756C742046
:1006800070686F6E6520646174612E0044656C65EE
:1006900074696E672070686F6E6520646174612E86
:1006A00000690070007200730050686F6E6500E2B0
:1006B000849600526561642061727261792070686D
:1006C0006F6E653A004175746F646574656374009C
:1006D0004D6F64656D49443A20002054696D653A58
:1006E0002000204D6F64653A2000576174636850A4
:1006F0006F776572004869676854656D703A2000CD
:100700004C6F7754656D703A200054656D70436886
:1007100065636B54696D653A20004E657443686586
:10072000636B54696D653A200047756172643A20C5
:10073000004C65643A2000546573743A2000526995
:100740006E6754696D653A20005265616420656585
:1007500070726F6D636F6E6669673A004C6F6164AB
:100760002064656661756C7420656570726F6D6379
:100770006F6E66696720646174612E0044656C6504
:1007800074696E6720656570726F6D636F6E666900
:100790006720646174612E00415445300041544526
:1007A000310041542B434E4D493D322C32004154CF
:1007B0002B435343533D2247534D220041542B4377
:1007C0004D47463D310041542B434C49503D31008B
:1007D0004465746563746564204D6F64656D494458
:1007E0003A200041360053494D383030004D3539FC
:1007F0003000415449004154000000000025002809
:10080000002B00000000002300260029000404043F
:1008100004040404040202020202020303030303A9
:100820000301020408102040800102040810200186
:100830000204081020004C2E102E11241FBECFEFF2
:10084000D8E0DEBFCDBF12E0A0E0B1E0E0EAFFE615
:1008500002C005900D92A838B107D9F724E0A8E8A6
:10086000B2E001C01D92AC3BB207E1F714E0CCE16D
:10087000D4E004C02197FE010E946535CB31D10739
:10088000C9F70E94522D0C94C3370C940000CF92EC
:10089000DF92EF92FF920F931F93CF93DF93CDB729
:1008A000DEB7AA970FB6F894DEBF0FBECDBF80911A
:1008B0008F02813031F46FE774E08EEB93E00E9499
:1008C000E01D6CE472E0CE0142960E94211D6AE1B7
:1008D00072E0CE0101960E94211DAE014E5E5F4F77
:1008E000BE016F5F7F4F8FE794E00E94D819CE0161
:1008F00001960E94B21CCE0142960E94B21C6CE48A
:1009000072E0CE0142960E94211D6BE472E0CE019E
:1009100001960E94211DAE014E5E5F4FBE016F5FCA
:100920007F4F8FE794E00E94D819CE0101960E9474
:10093000B21CCE0142960E94B21C00917F0410911D
:1009400080040115110531F480918E02813009F087
:10095000ACC70DC0F80180818823B1F3082E000CCC
:10096000990B0E946737F80181938F01F3CF64EFF1
:1009700073E0CE0101960E940F1DBE016F5F7F4F95
:100980008FE794E00E94DD1A8C01CE0101960E944F
:10099000B21C17FD0FC06FE774E0CE0101960E94F4
:1009A000181D61E0CE0101960E94C622CE0101967B
:1009B0000E94B21C68EE73E0CE0101960E940F1DEA
:1009C000BE016F5F7F4F8FE794E00E94DD1A8C01BC
:1009D000CE0101960E94B21C17FD0EC16FE774E0B4
:1009E000CE0184960E94181D6CE172E0CE01429601
:1009F0000E94211DBE016E5E7F4FCE0184960E9433
:100A0000D31A4AE0BC01CE0101960E94E31CCE013C
:100A100001960E94CD19AB014F5F5F4FBE016C5D27
:100A20007F4FCE014E960E94A110CE0101960E94EA
:100A3000B21CCE0142960E94B21C6CE472E0CE0160
:100A400001960E94211D6EE172E0CE0142960E9445
:100A5000211DAE014F5F5F4FBE016E5E7F4FCE0125
:100A60004E960E94D819CE0142960E94B21CCE0129
:100A700001960E94B21C63E272E0CE0142960E948F
:100A8000211DBE016E5E7F4FCE014E960E94D31A8D
:100A90004AE0BC01CE0101960E94E31CCE01019602
:100AA0000E94CD19AB014F5F5F4FBE01625E7F4F69
:100AB000CE0148960E94A110CE0101960E94B21C60
:100AC000CE0142960E94B21CBE01685E7F4FCE01ED
:100AD00042960E94181D0FE211E021E09DE0F92EE0
:100AE0006E01F5E0CF0ED11C63EC72E0F80180815D
:100AF00091812AA70E940221BC01CE0101960E9489
:100B0000211DBE016E5E7F4FCE0101960E94F71A35
:100B1000E82ECE0101960E94B21C2AA5EE2009F40F
:100B200041C019821A821B821C82F6018F2D1192FC
:100B30008A95E9F7BE016F5F7F4FF801808191814F
:100B40000E94CE20F8018081918160E043960E944E
:100B50002821F8018081918160E044960E9428213B
:100B6000F8018081918160E045960E942821F8017A
:100B70008081918160E046960E9428216AE771E0B9
:100B80008EEB93E00E94911DBE016E5E7F4F8EEB57
:100B900093E00E94E01D0E94C2220E9463280E94EE
:100BA000332220E0095E1F4FF1E00E3F1F0709F0DE
:100BB0009BCF213089F462E671E08EEB93E00E94D6
:100BC000911DBE016E5E7F4F8EEB93E00E94E01D93
:100BD0000E94C2220E944B22CE0142960E94B21C69
:100BE000CE0148960E94B21CCE014E960E94B21CC5
:100BF000CE0184960E94B21C6DED73E0CE01019689
:100C00000E940F1DBE016F5F7F4F8FE794E00E942F
:100C1000DD1A8C01CE0101960E94B21C17FDB5C0F1
:100C20006CE172E0CE0101960E94211DBE016F5F52
:100C30007F4F8FE794E00E94D31A4AE0BC01CE01B7
:100C400042960E94E31CCE0142960E94CD19AB0150
:100C50004F5F5F4F6FE774E0CE0148960E94A1108E
:100C6000CE0142960E94B21CCE0101960E94B21C97
:100C700065E272E0CE0101960E94211DBE016F5F08
:100C80007F4FCE0148960E94DD1A4AE0BC01CE019A
:100C90004E960E94E31CCE014E960E94CD199B01F8
:100CA00040E050E0BE01685E7F4FCE0142960E9458
:100CB000361DCE014E960E94B21CCE0101960E94B6
:100CC000B21C65E272E0CE014E960E94211DBE016B
:100CD000625E7F4F8FE794E00E94D31A4AE0BC0126
:100CE000CE0184960E94E31CCE0184960E94CD1909
:100CF000AB014F5F5F4F6FE774E0CE0101960E943A
:100D0000A110CE0184960E94B21CCE014E960E9484
:100D1000B21CCE0101960E94CD19162FBE016E5E47
:100D20007F4FCE014E960E94181D62EA73E0CE01FD
:100D30004E960E94C62C62EA73E08EE190E00E941B
:100D4000CE20612F80E390E00E94282161E081E3C2
:100D500090E00E9428210E94E2298EEB93E00E94FD
:100D6000CA1D0E94C2220E943322CE014E960E94CA
:100D7000B21CCE0101960E94B21CCE0142960E9486
:100D8000B21CCE0148960E94B21C6EEC73E0CE01FC
:100D900001960E940F1DBE016F5F7F4F8FE794E0A9
:100DA0000E94DD1A8C01CE0101960E94B21C17FD33
:100DB0005DC06CE172E0CE0101960E94211DBE0172
:100DC0006F5F7F4F8FE794E00E94D31A4AE0BC0127
:100DD000CE0142960E94E31CCE0142960E94CD199C
:100DE000AB014F5F5F4F6FE774E0CE0148960E9402
:100DF000A110CE0142960E94B21CCE0101960E9423
:100E0000B21CBE01685E7F4FCE0142960E94181D43
:100E1000CE0142960E94CD196F3F71058105910563
:100E200011F008F029C7CE0142960E94CD19162F65
:100E300087E190E00E9428211093B3036AE871E0F3
:100E40008EEB93E00E94911D87E190E00E94442187
:100E50000E94B32C0E94C2220E943322CE014296ED
:100E60000E94B21CCE0148960E94B21C65EC73E051
:100E7000CE0101960E940F1DBE016F5F7F4F8FE76D
:100E800094E00E94DD1A8C01CE0101960E94B21CF2
:100E900017FD65C06CE172E0CE0101960E94211D34
:100EA000BE016F5F7F4F8FE794E00E94D31A4AE044
:100EB000BC01CE0148960E94E31CCE0148960E94D8
:100EC000CD19AB014F5F5F4F6FE774E0CE014296E3
:100ED0000E94A110CE0148960E94B21CCE0101963C
:100EE0000E94B21CBE016E5E7F4FCE0101960E9431
:100EF000181DCE0101960E94CD19DC01CB010A9785
:100F0000A109B109863F9105A105B10508F0D6C632
:100F1000CE0101960E94CD19162F88E190E00E9423
:100F20002821612F70E07093BA036093B9036EE9D2
:100F300071E08EEB93E00E94911D88E190E00E94A9
:100F400044210E94B32C0E94C2220E943322CE016F
:100F500001960E94B21CCE0142960E94B21C6DEB1B
:100F600073E0CE0101960E940F1DBE016F5F7F4F9F
:100F70008FE794E00E94DD1A8C01CE0101960E9459
:100F8000B21C17FD6FC06CE172E0CE0101960E94A9
:100F9000211DBE016F5F7F4F8FE794E00E94D31A3F
:100FA0004AE0BC01CE0148960E94E31CCE0148965F
:100FB0000E94CD19AB014F5F5F4F6FE774E0CE0128
:100FC00042960E94A110CE0148960E94B21CCE010A
:100FD00001960E94B21CBE016E5E7F4FCE0101964B
:100FE0000E94181DCE0101960E94CD198B019C0113
:100FF0000E5C1F4F2F4F3F4F003B11052105310560
:1010000008F071C62091B403022F220F110B220B9E
:10101000330B60177107820793070CF064C6CE018B
:1010200001960E94CD19162F84E190E00E9428219C
:101030001093B5036CEA71E08EEB93E00E94911D72
:1010400084E190E00E9444210E94B32C0E94C222BD
:101050000E943322CE0101960E94B21CCE0142961C
:101060000E94B21C64EB73E0CE0101960E940F1D3A
:10107000BE016F5F7F4F8FE794E00E94DD1A8C0105
:10108000CE0101960E94B21C17FD6FC06CE172E0A8
:10109000CE0101960E94211DBE016F5F7F4F8FE739
:1010A00094E00E94D31A4AE0BC01CE0148960E9407
:1010B000E31CCE0148960E94CD19AB014F5F5F4FF4
:1010C0006FE774E0CE0142960E94A110CE014896CF
:1010D0000E94B21CCE0101960E94B21CBE016E5E3F
:1010E0007F4FCE0101960E94181DCE0101960E94ED
:1010F000CD198B019C010E5C1F4F2F4F3F4F003BC2
:1011000011052105310508F004C62091B503022F11
:10111000220F110B220B330B06171707280739076D
:101120000CF0F7C5CE0101960E94CD19162F85E16E
:1011300090E00E9428211093B40369EB71E08EEBDC
:1011400093E00E94911D85E190E00E9444210E945D
:10115000B32C0E94C2220E943322CE0101960E942B
:10116000B21CCE0142960E94B21C67EA73E0CE0127
:1011700001960E940F1DBE016F5F7F4F8FE794E0C5
:101180000E94DD1A8C01CE0101960E94B21C17FD4F
:1011900060C06CE172E0CE0101960E94211DBE018B
:1011A0006F5F7F4F8FE794E00E94D31A4AE0BC0143
:1011B000CE0148960E94E31CCE0148960E94CD19AC
:1011C000AB014F5F5F4F6FE774E0CE0142960E9424
:1011D000A110CE0148960E94B21CCE0101960E9439
:1011E000B21CBE016E5E7F4FCE0101960E94181D9B
:1011F000CE0101960E94CD196D33710581059105CF
:1012000008F09DC5CE0101960E94CD19162F8FE0E2
:1012100090E00E942821612F70E07093B8036093E2
:10122000B70367EC71E08EEB93E00E94911D8FE0B5
:1012300090E00E9444210E94B32C0E94C2220E948E
:101240003322CE0101960E94B21CCE0142960E942A
:10125000B21C69E973E0CE0101960E940F1DBE0128
:101260006F5F7F4F8FE794E00E94DD1A8C01CE0103
:1012700001960E94B21C17FD60C06CE172E0CE01C5
:1012800001960E94211DBE016F5F7F4F8FE794E0A2
:101290000E94D31A4AE0BC01CE0148960E94E31C8A
:1012A000CE0148960E94CD19AB014F5F5F4F6FE7AB
:1012B00074E0CE0142960E94A110CE0148960E9491
:1012C000B21CCE0101960E94B21CBE016E5E7F4F21
:1012D000CE0101960E94181DCE0101960E94CD19E3
:1012E000DC01CB010197A109B109CC97A105B1059A
:1012F00008F03AC5CE0101960E94CD19162F82E161
:1013000090E00E9428211093B60369ED71E08EEB06
:1013100093E00E94911D82E190E00E9444210E948E
:10132000B32C0E94C2220E943322CE0101960E9459
:10133000B21CCE0142960E94B21C6FE873E0CE014F
:1013400001960E940F1DBE016F5F7F4F8FE794E0F3
:101350000E94DD1A8C01CE0101960E94B21C17FD7D
:101360001AC06FEF80E090E00E9428210E94FB26C7
:101370006FEF83E690E00E9428210E947C296FEFA6
:1013800081E390E00E9428210E94E2290E943322FA
:10139000E0E0F0E0099564E873E0CE0101960E9478
:1013A0000F1DBE016F5F7F4F8FE794E00E94DD1A33
:1013B0008C01CE0101960E94B21C17FD0CC06FEF8C
:1013C00083E690E00E9428210E947C290E9433221B
:1013D000E0E0F0E0099568E773E0CE0101960E9435
:1013E0000F1DBE016F5F7F4F8FE794E00E94DD1AF3
:1013F0008C01CE0101960E94B21C17FD0CC06FEF4C
:1014000080E090E00E9428210E94FB260E94332267
:10141000E0E0F0E009956CE673E0CE0101960E94F1
:101420000F1DBE016F5F7F4F8FE794E00E94DD1AB2
:101430008C01CE0101960E94B21C17FD75C06AE5B1
:1014400073E081E694E00E943B1C67E573E0CE0107
:1014500001960E940F1DBE016F5F7F4F8FE794E0E2
:101460000E94DD1A8C01CE0101960E94B21C17FD6C
:1014700006C081E08093EA0165E573E019C062E58A
:1014800073E0CE0101960E940F1DBE016F5F7F4F7A
:101490008FE794E00E94DD1A8C01CE0101960E9434
:1014A000B21C17FD0CC082E08093EA0160E573E096
:1014B0008EEB93E00E94911D67E272E00AC01092E9
:1014C000EA016EE473E08EEB93E00E94911D69E205
:1014D00072E081E694E00E94B21B6091EA0183E130
:1014E00090E00E94282180918D028130E9F463E22E
:1014F00072E0CE0101960E94211D63E774E0CE01E7
:1015000001960E94281CBC01CE0142960E94181D23
:10151000CE0142960E944621CE0142960E94B21C04
:10152000CE0101960E94B21C60E473E0CE010196E8
:101530000E940F1DBE016F5F7F4F8FE794E00E94F6
:10154000DD1A8C01CE0101960E94B21C17FD0FC05E
:101550006FE774E0CE0101960E94181D62E0CE0193
:1015600001960E94C622CE0101960E94B21C65E33C
:1015700073E0CE0101960E940F1DBE016F5F7F4F89
:101580008FE794E00E94DD1A8C01CE0101960E9443
:10159000B21C17FD04C00E94FB260E94E2296DE2E6
:1015A00073E0CE0101960E940F1DBE016F5F7F4F59
:1015B0008FE794E00E94DD1A8C01CE0101960E9413
:1015C000B21C17FD84C00E94B82F2DEF30E040E020
:1015D00050E00E94FD3382E0D82ED60E62E172E028
:1015E0008EEB93E00E94911D4AE060E074E080E0A1
:1015F00090E00E94152C60E172E08EEB93E00E9477
:10160000F21D00E010E06D2DC8010E94EF3365E08F
:1016100070E080E090E00E94C21F0F5F1F4F011535
:10162000F4E01F0781F7E12CF12C00E010E0C80185
:101630000E9444218D1529F162E072E08EEB93E067
:101640000E94911DC8010E944421C82E4AE0B801A1
:10165000CE0101960E94B71C6DE674E0CE010196A2
:101660000E94281C6C2D0E941A1CBC018EEB93E07A
:101670000E94E01DCE0101960E94B21C8FEFE81A75
:10168000F80A65E070E080E090E00E94C21F0F5F02
:101690001F4F0115E4E01E0751F66CEF71E08EEB71
:1016A00093E00E94911DE114F10409F073C364EF0B
:1016B00071E08EEB93E00E94F21D0E94C22264EF63
:1016C00071E080E090E00E94C21FF701099563E29B
:1016D00073E0CE0101960E940F1DBE016F5F7F4F28
:1016E0008FE794E00E94DD1A8C01CE0101960E94E2
:1016F000B21C17FF0E9463286CE173E0CE010196D3
:101700000E940F1DBE016F5F7F4F8FE794E00E9424
:10171000DD1A8C01CE0101960E94B21C17FD09C092
:1017200064EF71E080E090E00E94C21FE0E0F0E032
:10173000099564E173E0CE0101960E940F1DBE0180
:101740006F5F7F4F8FE794E00E94DD1A8C01CE011E
:1017500001960E94B21C17FDA6C06CE172E0CE019A
:1017600042960E94211DBE016E5E7F4F8FE794E07E
:101770000E94D31A4AE0BC01CE0148960E94E31CA5
:10178000CE0148960E94CD19AB014F5F5F4F6FE7C6
:1017900074E0CE0101960E94A110CE0148960E94ED
:1017A000B21CCE0142960E94B21CCE0101960E944C
:1017B000CD196B3071058105910508F0F2C2CE019B
:1017C00001960E94CD19162F63E672E08EEB93E02E
:1017D0000E94911D8091BC03082E000C990B0E9461
:1017E000802C612F89E190E00E9428211093BC0396
:1017F00066E572E08EEB93E00E94911DC090BC0301
:101800000C2C000CDD08EE08FF08F7FE0EC06DE2A0
:101810008EEB93E00E947C1D66277727CB016C1925
:101820007D098E099F094AE003C04AE0C701B6015D
:101830000E94152C6CE472E08EEB93E00E94911DE7
:10184000111116C060E472E08EEB93E00E94F21D6D
:1018500068E372E08EEB93E00E94F21D64EF71E0AA
:1018600080E090E00E94C21FE0E0F0E0099515C022
:10187000113019F461E372E00CC0123019F468E21F
:1018800072E007C0133019F464E272E002C06BE149
:1018900072E08EEB93E00E94F21D0E94C222CE0104
:1018A00001960E94B21C10928E026FE073E0CE018E
:1018B00001960E940F1DBE016F5F7F4F8FE794E07E
:1018C0000E94DD1A8C01CE0101960E94B21C17FD08
:1018D0009EC00E94E70E69EF72E081E694E00E94EC
:1018E0003B1C6091890270918A0280918B029091D9
:1018F0008C020E94E72CC0908902D0908A02E0906E
:101900008B02F0908C0220E030E04CE552ECC701F5
:10191000B6010E94C33287FD0AC020E030E04AEFE2
:1019200052E4C701B6010E943335181634F46AEE4A
:1019300072E081E694E00E94291B63EE72E081E68A
:1019400094E00E94291B8091B503082E000C990B8E
:101950000E94272D6BED72E081E694E00E94291B26
:101960008091B403082E000C990B0E94272D6AEC7D
:1019700072E081E694E00E94291B8091B603082E54
:10198000000C990B0E94272D65EC72E081E694E033
:101990000E94291B63EC72E081E694E00E94291BFF
:1019A00040915F045091600460915B0470915C040D
:1019B00081E694E00E94591B80918D028130E9F408
:1019C00063E272E0CE0101960E94211D63E774E09C
:1019D000CE0101960E94281CBC01CE0142960E94B5
:1019E000181DCE0142960E944621CE0142960E94C9
:1019F000B21CCE0101960E94B21C80918F028130F0
:101A000031F461E674E08EEB93E00E94E01D6DEB33
:101A100072E0CE0101960E940F1DBE016F5F7F4FE5
:101A20008FE794E00E94DD1A8C01CE0101960E949E
:101A3000B21C17FD18C080918F02813011F4809381
:101A4000C00261E772E089E994E00E94911D65E8B7
:101A500074E089E994E00E94831D6CE272E089E9F8
:101A600094E00E94CE1D63EB72E0CE0101960E94CD
:101A70000F1DBE016F5F7F4F8FE794E00E94DD1A5C
:101A80008C01CE0101960E94B21C17FD12C08091FC
:101A90008802811108C080918F020E945F2281E03C
:101AA0008093880206C080918F020E944F2210927C
:101AB00088026CEA72E0CE0101960E940F1DBE0101
:101AC0006F5F7F4F8FE794E00E94DD1A8C01CE019B
:101AD00001960E94B21C17FD1BC063E372E0CE01A9
:101AE00001960E94211DBE016F5F7F4F8FE794E03A
:101AF0000E94DD1A8C01CE0101960E94B21C8091D9
:101B00008F0217FD03C00E94462A02C00E94D32AFA
:101B100066EA72E0CE0101960E940F1DBE016F5F62
:101B20007F4F8FE794E00E94DD1A8C01CE01019671
:101B30000E94B21C17FD22C063E372E0CE01019641
:101B40000E94211DBE016F5F7F4F8FE794E00E94CE
:101B5000DD1A8C01CE0101960E94B21C17FD04C053
:101B600081E08093BB0302C01092BB036091BB0372
:101B70008CE090E00E9428210E94722561EA72E0C8
:101B8000CE0101960E940F1DBE016F5F7F4F8FE750
:101B900094E00E94DD1A8C01CE0101960E94B21CD5
:101BA00017FD20C063E372E0CE0101960E94211D63
:101BB000BE016F5F7F4F8FE794E00E94DD1A8C01BA
:101BC000CE0101960E94B21C17FD04C081E08093F3
:101BD000EB0102C01092EB016091EB018DE090E00F
:101BE0000E94282168E972E0CE0101960E940F1D33
:101BF000BE016F5F7F4F8FE794E00E94DD1A8C017A
:101C0000CE0101960E94B21C17FD23C06FE872E05E
:101C100089E994E00E94911D8091BC03813031F4E8
:101C20006BE872E089E994E00E94F21D8091BC03A8
:101C30008250823030F469E872E089E994E00E94D1
:101C4000F21D6DE772E08EEB93E00E94F21D0E94A0
:101C5000332210928D0210928F02AA960FB6F8943A
:101C6000DEBF0FBECDBFDF91CF911F910F91FF90CF
:101C7000EF90DF90CF9008958091B3031F8E1E8E5A
:101C800019A218A21BA21AA24AE0BE016F5F7F4FE1
:101C900090E00E943330BE016F5F7F4FCE014E96C1
:101CA0000E94841CBE01625E7F4FCE0142960E945C
:101CB000C11BCE014E960E94B21CB5C86091B903FB
:101CC0007091BA034AE0CE0148960E94B71CBE014B
:101CD000685E7F4FCE0101960E94C11BCE014896DF
:101CE0000E94B21C15C96091B503062E000C770B3B
:101CF0004AE0CE0148960E94E31CBE01685E7F4F19
:101D0000CE0101960E94C11BCE0148960E94B21CD2
:101D100086C96091B403062E000C770B4AE0CE0111
:101D200048960E94E31CBE01685E7F4FCE0101967B
:101D30000E94C11BCE0148960E94B21CF3C960915B
:101D4000B7037091B8034AE0CE0148960E94B71CD1
:101D5000BE01685E7F4FCE0101960E94C11BCE017D
:101D600048960E94B21C4ECA6091B603062E000C23
:101D7000770B4AE0CE0148960E94E31CBE01685EE4
:101D80007F4FCE0101960E94C11BCE0148960E9452
:101D9000B21CB0CA6CEE71E08EEB93E00E94F21DB3
:101DA00096CC6091BC03062E000C770B4AE0CE0166
:101DB00042960E94E31CBE016E5E7F4FCE010196EB
:101DC0000E94C11BCE0142960E94B21CF8CC8F9299
:101DD0009F92AF92BF92CF92DF92EF92FF920F93BA
:101DE0001F93CF93DF93CDB7DEB729970FB6F89443
:101DF000DEBF0FBECDBF10929604109298041092D1
:101E0000970426E9C22E24E0D22EF601129284E035
:101E1000EE38F807D9F70E945D2B811113C010929C
:101E20009604109298041092970468E075E08EEB87
:101E300093E00E94F21D1092960410929804109262
:101E4000970452C080EF0E94C62B01E0F12CE12CD8
:101E500011E00E94F02B89870E94F02B9985913028
:101E600019F48130C1F435C02F2D30E098131DC016
:101E700080919604181738F4F901E557FB4F8381D8
:101E8000802349F402C0181731F090E0193060F453
:101E90001093970409C0EF2DF0E0E557FB4F8381C5
:101EA000802B838391E009C0E12EF901E557FB4FB8
:101EB0002381802F809582238383892F0E94942BF6
:101EC0001F5F000F11F4F39401E0E7E0EF1508F055
:101ED000C0CF113408F4A3CFE0929604E1100FC0F4
:101EE00081E0809398040BC0F60112926F01FEE826
:101EF000CF16F4E0DF06C1F7109201010FC1809107
:101F00008E04882309F48BCFAEE8B4E0FE0131964D
:101F1000CE0109962D912193E817F907D9F70E9470
:101F20005D2B8CEC0E94C62B84E40E94C62B68EECD
:101F300073E080E090E00E94C21F0E945D2B8CEC59
:101F40000E94C62B8EEB0E94C62B88E0E82EF12C57
:101F500001E010E00E94F02B8111102B000F81E0B6
:101F6000E81AF108B9F798E0E92EF12CDD24D394B2
:101F700000E00E94F02B81110D29DD0CE1E0EE1A4A
:101F8000F108B9F7612F70E0702B072E000C880B59
:101F9000990B0E94CA3220E030E040E85DE30E94E5
:101FA00029336093890270938A0280938B02909305
:101FB0008C026AEF74E08EEB93E00E94911DC0905A
:101FC0008902D0908A02E0908B02F0908C02A701E7
:101FD0009601C701B6010E943835882319F061E3E4
:101FE00072E01AC046015701E894B7F82FEF3FEFAF
:101FF0004FE75FE7C501B4010E943835811111C078
:102000002FEF3FEF4FE75FE7C501B4010E94C332F6
:1020100018163CF465E372E08EEB93E00E94B51D68
:1020200076C02FEF3FEF4FE75FE4C701B6010E9494
:10203000333518161CF469E372E0EECF2FEF3FEF53
:102040004FE75FECC701B6010E94C33287FDF3CFB3
:1020500020E030E0A901C701B6010E94C33287FF2A
:1020600009C06DE28EEB93E00E947C1DF7FAF094BC
:10207000F7F8F0942AE037ED43EA5BE3C701B601D5
:102080000E9498344B015C010E9404356B017C0175
:102090000E94C8329B01AC01C501B4010E94973473
:1020A0004B015C014AE0C701B6010E94152C6EE2AB
:1020B0008EEB93E00E947C1D20E030E040E251E492
:1020C000C501B4010E9429334B015C010E94043513
:1020D0006B01E12CF12C4AE0C701B6010E94152CDE
:1020E000C701B6010E94C8329B01AC01C501B40111
:1020F0000E94973420E030E040E251E40E9429330E
:102100000E94043580E090E04AE00E94152C8EEB9E
:1021100093E00E94CA1D81E08093010129960FB6C9
:10212000F894DEBF0FBECDBFDF91CF911F910F910D
:10213000FF90EF90DF90CF90BF90AF909F908F90E7
:102140000895CF93DF93EC01FB01248135810E9438
:10215000361DCE01DF91CF9108958F929F92AF925D
:10216000BF92CF92DF92EF92FF920F931F93CF9384
:10217000DF93CDB7DEB76F970FB6F894DEBF0FBE13
:10218000CDBF8091EA01813031F48091020181302C
:1021900009F081C003C0823009F07DC0EDE1F5E0B7
:1021A0008491E8E2F8E0F490E4E1F8E0149111237E
:1021B000A1F081110E945D1FE12FF0E0EE0FFF1FE3
:1021C000ED5FF74FA591B491EC91EF2131E020E064
:1021D00009F430E0832F922F02C080E090E08093DA
:1021E0009002892B39F580910001811123C081E093
:1021F0008093000164E670E080E090E00E94C21FDE
:1022000063E174E081E694E00E943B1C80919F02B0
:1022100081110AC00E94FC1F60939B0270939C0274
:1022200080939D0290939E0281E080939F0282E0C2
:1022300080939A02809190028130E9F480910001AC
:102240008130C9F410929F021092000164E670E0A0
:1022500080E090E00E94C21F80919902813059F481
:102260006DEF73E081E694E00E943B1C82E00E94E7
:102270009C211092990280919002813061F48091AA
:102280000001823041F41092000164E670E080E0C9
:1022900090E00E94C21F0E94FC1F6B017C01A09075
:1022A000B703B090B803A114B104E9F18091910291
:1022B00090919202A0919302B0919402A70196018D
:1022C000281B390B4A0B5B0BCA01B90128EE33E01E
:1022D00040E050E00E9466346CE36A9DC0016B9D53
:1022E000900D1124A0E0B0E082179307A407B50772
:1022F000D0F4C0929102D0929202E0929302F092B6
:10230000940280918802811108C080918F020E94FE
:102310005F2281E08093880206C080918F020E9434
:102320004F22109288020E94FC1F6B017C011091C9
:10233000B6038091950290919602A0919702B09178
:102340009802A7019601281B390B4A0B5B0BCA01A7
:10235000B90128EE33E040E050E00E9466346CE3BF
:102360001602C0011124092E000CAA0BBB0B821708
:102370009307A407B50750F4C0929502D092960235
:10238000E0929702F09298020E94E70E80919F02DD
:102390008130C9F50E94FC1F1091B303C0909B02CD
:1023A000D0909C02E0909D02F0909E026C197D09F5
:1023B0008E099F0928EE33E040E050E00E94663429
:1023C000ECE31E9FC0011124092E000CAA0BBB0BCD
:1023D00082179307A407B507B0F4112359F0612FB2
:1023E00081E694E00E94871B6EE274E081E694E04F
:1023F0000E94291B80919A020E949C2181E0809377
:10240000990210929F020E94FC1F6B017C01809137
:102410000101811129C060E08CE00E945C1E60E037
:102420008AE00E945C1E60E08BE00E945C1E80914E
:10243000A103811133C183E08093A10367E674E0B7
:10244000CE0101960E94181D62E674E0CE0101964D
:102450000E940C1CBC0181E694E00E949B1CCE01F2
:1024600001960E94B21CD5C08090890290908A0289
:10247000A0908B02B0908C026091B403062E000CE9
:10248000770B880B990B0E94CA329B01AC01C501E6
:10249000B4010E94333518160CF04AC061E08BE09D
:1024A0000E945C1E61E08CE00E945C1E8091020133
:1024B000813011F460E029C08091A3029091A402C0
:1024C000A091A502B091A602A7019601281B390B85
:1024D0004A0B5B0BDA01C901883B9B40A105B105A2
:1024E000B8F0C092A302D092A402E092A502F092AA
:1024F000A6028091A202811104C081E08093A20211
:1025000002C01092A2026091A2028AE00E945C1EA8
:102510008091A1038111C2C081E08093A10367E68D
:1025200074E0CE0101960E94181D6EE474E05AC05A
:102530008091B503682F880F770B880B990B0E9449
:10254000CA329B01AC01C501B4010E94C33261E0F3
:1025500087FF63C08CE00E945C1E61E08AE00E94FD
:102560005C1E80910201813011F460E029C08091ED
:10257000A3029091A402A091A502B091A602A70186
:102580009601281B390B4A0B5B0BDA01C901883B0A
:102590009B40A105B105B8F0C092A302D092A4025D
:1025A000E092A502F092A6028091A102811104C0DE
:1025B00081E08093A10202C01092A1026091A10269
:1025C0008BE00E945C1E8091A103811167C082E0B4
:1025D0008093A10367E674E0CE0101960E94181D66
:1025E0006BE374E0CE0101960E940C1CBC0181E6F5
:1025F00094E00E949B1CCE0101960E94B21C609147
:10260000890270918A0280918B0290918C020E94C3
:10261000E72C81E00E949C2141C08BE00E945C1E5F
:1026200061E08AE00E945C1E80910201813041F4E9
:102630008091EB01813011F460E02BC061E029C092
:102640008091A3029091A402A091A502B091A6024C
:10265000A7019601281B390B4A0B5B0BDA01C90154
:10266000883B9B40A105B105B8F0C092A302D0926F
:10267000A402E092A502F092A6028091A00281112C
:1026800004C081E08093A00202C01092A002609179
:10269000A0028CE00E945C1E1092A1038091AE0209
:1026A000813011F40E94B3228091C102813009F07F
:1026B00058C0E091AB0217E11E9FF0011124ED5FBD
:1026C000FE4F8589968944960E944421813009F005
:1026D00048C00E94FC1F6093A7027093A8028093D9
:1026E000A9029093AA0268E873E180E090E00E945A
:1026F000C21F64E874E08EEB93E00E94911DE091AC
:10270000AB021E9FF0011124ED5FFE4F63EC72E0FF
:10271000858996890E940221BC018EEB93E00E947C
:10272000CE1D6FE774E089E994E00E94911DE0916D
:10273000AB021E9FF0011124ED5FFE4F63EC72E0CF
:10274000858996890E940221BC0189E994E00E9452
:10275000B51D6DE774E089E994E00E94F21D1092C6
:10276000C1021091C202113041F50E94FC1FC090BD
:10277000A702D090A802E090A902F090AA026C19DA
:102780007D098E099F0928EE33E040E050E00E9469
:1027900066348091B9039091BA03A0E0B0E082174B
:1027A0009307A407B50748F41093AE028091AB02DB
:1027B0008F5F8093AB021093C1028091AB028B308C
:1027C00040F48091020181110DC08091C2028130DC
:1027D00049F41092C20281E08093AE021092AB02E3
:1027E0001092C10289E994E00E941E1F892B09F40E
:1027F00011C489E994E00E941E1F892B79F089E9B0
:1028000094E00E94361F8093BD030E94122D6AE05F
:1028100070E080E090E00E94C21FEBCF8091BC038B
:10282000823011F412E001C011E065EF74E0CE01D6
:1028300001960E940F1DBE016F5F7F4F8FE794E0EE
:102840000E94DD1A7C01CE0101960E94B21CF7FCA9
:10285000F8C063EF74E0CE0143960E940F1DBE01E5
:102860006D5E7F4F8FE794E00E94DD1A4AE0BC0165
:10287000CE0149960E94E31CCE0149960E94CD19D3
:102880006B017C0163E472E0CE0101960E94211D80
:10289000BE016F5F7F4F8FE794E00E94DD1A4AE030
:1028A000BC01CE010D960E94E31CCE010D960E9444
:1028B000CD19960121503109412F50E0460F571F85
:1028C0006FE774E0CE0107960E94361DCE010D968B
:1028D0000E94B21CCE0101960E94B21CCE01499604
:1028E0000E94B21CCE0143960E94B21C66EE74E0B8
:1028F0008EEB93E00E94911DBE01695F7F4F8EEBCE
:1029000093E00E94E01DBE01695F7F4FCE010D96EE
:102910000E94181D63EC72E08091180190911901DA
:102920000E940221BC01CE0101960E94211D8D81D1
:102930009E81892B41F0E981FA8111E08081882311
:1029400019F010E001C011E0CE0101960E94B21C06
:10295000112309F44AC06FEA72E0CE010D960E947D
:10296000C62C6FEA72E080911801909119010E94C3
:10297000CE20809118019091190161E043960E9448
:102980002821809118019091190161E044960E94DC
:102990002821809118019091190161E045960E94CB
:1029A0002821809118019091190161E046960E94BA
:1029B000282162E974E08EEB93E00E94911DBE0134
:1029C000635F7F4F8EEB93E00E94E01D0E94C22266
:1029D0000E9433220E94B32268EE73E080E090E010
:1029E0000E94C21FE0E0F0E00995CE010D960E9422
:1029F000B21CBE01695F7F4FCE0101960E94181D77
:102A0000CE0101960E946F22182FCE0101960E94DE
:102A1000B21C113079F40E94B322809102018130FE
:102A200021F480E00E94D32A07C0811105C00E94D2
:102A3000462A02C00E94B322CE0107960E94B21C11
:102A4000D9C260EE74E0CE0101960E940F1DBE0156
:102A50006F5F7F4F8FE794E00E94DD1A7C01CE010B
:102A600001960E94B21CF7FC09C16FE774E08EEB7F
:102A700093E00E94E01D8091BC038D7F813009F0BE
:102A800057C06DED74E0CE010D960E940F1DBE0182
:102A9000635F7F4F8FE794E00E94DD1A4AE0BC013C
:102AA000CE0143960E94E31CCE0143960E94CD19AD
:102AB0006B017C016DE372E0CE0101960E94211D45
:102AC000BE016F5F7F4F8FE794E00E94DD1A4AE0FE
:102AD000BC01CE0107960E94E31CCE0107960E941E
:102AE000CD19960121503109AB01485F5F4F6FE767
:102AF00074E0CE0149960E94361DBE01675E7F4F8D
:102B000089E794E00E94C11BCE0149960E94B21C45
:102B1000CE0107960E94B21CCE0101960E94B21C03
:102B2000CE0143960E94B21CCE010D960E94B21CAB
:102B30008091BC03823009F057C06AED74E0CE0189
:102B40000D960E940F1DBE01635F7F4F8FE794E0DB
:102B50000E94DD1A4AE0BC01CE0143960E94E31CAC
:102B6000CE0143960E94CD196B017C016DE372E0AA
:102B7000CE0101960E94211DBE016F5F7F4F8FE73E
:102B800094E00E94DD1A4AE0BC01CE0107960E9443
:102B9000E31CCE0107960E94CD1996012150310900
:102BA000AB01485F5F4F6FE774E0CE0149960E942A
:102BB000361DBE01675E7F4F89E794E00E94C11B0E
:102BC000CE0149960E94B21CCE0107960E94B21C0B
:102BD000CE0101960E94B21CCE0143960E94B21C07
:102BE000CE010D960E94B21C6EEC74E08EEB93E069
:102BF0000E94911D69E774E08EEB93E00E94E01D56
:102C000069E774E0CE0101960E94181DCE0101967D
:102C10000E946F22182FCE0101960E94B21C113023
:102C200009F0E8C169E774E0CE0107960E94181D1B
:102C300063EC72E080911801909119010E940221C9
:102C4000BC01CE0101960E94211DBE01695F7F4F2C
:102C5000CE0101960E94F71AF82ECE0101960E942D
:102C6000B21CCE0107960E94B21CF11010938E0286
:102C700081E080938D020E944704BCC167EC74E040
:102C8000CE0101960E940F1DBE016F5F7F4F8FE73F
:102C900094E00E94DD1A7C01CE0101960E94B21CD4
:102CA000F7FCAFC06AEB74E08EEB93E00E94911DDD
:102CB0006FE774E08EEB93E00E94E01D63E472E046
:102CC000CE0101960E94211DBE016F5F7F4F8FE7ED
:102CD00094E00E94DD1A7C01CE0101960E94B21C94
:102CE000F7FC82C063E472E0CE010D960E94211DC4
:102CF000BE01635F7F4F8FE794E00E94DD1A4AE0D8
:102D0000BC01CE0143960E94E31CCE0143960E9473
:102D1000CD192091E90130E08901060F171F63E406
:102D200072E0CE0101960E94211DBE016F5F7F4FB0
:102D30008FE794E00E94DD1A4AE0BC01CE010796BD
:102D40000E94E31CCE0107960E94CD19AB014F5F94
:102D50005F4F98016FE774E0CE0149960E94361DDF
:102D6000BE01675E7F4F81E694E00E94C11BCE01E9
:102D700049960E94B21CCE0107960E94B21CCE0159
:102D800001960E94B21CCE0143960E94B21CCE0155
:102D90000D960E94B21C8091C00281111DC063E299
:102DA00072E0CE0101960E94211D63E774E0CE011E
:102DB00001960E94281CBC01CE0107960E94181D96
:102DC000CE0107960E944621CE0107960E94B21CB2
:102DD000CE0101960E94B21C1092C00268EE73E010
:102DE00080E090E00E94C21F60EB74E089E994E00B
:102DF0000E94F21D68EC70E080E090E00E94C21F2B
:102E0000F9C069EA74E0CE0101960E940F1DBE016F
:102E10006F5F7F4F8FE794E00E94DD1A7C01CE0147
:102E200001960E94B21CF7FC59C06FE774E08EEB6C
:102E300093E00E94E01D65E472E0CE0101960E94DD
:102E4000211DBE016F5F7F4F8FE794E00E94DD1A66
:102E50007C01CE0101960E94B21CF7FCCBC068E455
:102E600072E0CE0101960E94211DBE016F5F7F4F6F
:102E70008FE794E00E94DD1A4AE0BC01CE0107967C
:102E80000E94E31CCE0107960E94CD19AB014F5F53
:102E90005F4F6FE774E0CE010D960E94A110CE0146
:102EA0000D960E94CD196093AD02CE010D966F8FE5
:102EB0000E94B21CCE0107960E94B21CCE01019660
:102EC0000E94B21C6F8D862F0E94B32C8091AD02A0
:102ED000813009F48FC00E9417228CC063EA74E02D
:102EE000CE0101960E940F1DBE016F5F7F4F8FE7DD
:102EF00094E00E94DD1A7C01CE0101960E94B21C72
:102F0000F7FC78C06FE774E08EEB93E00E94E01D61
:102F100065E472E0CE0101960E94211DBE016F5F43
:102F20007F4F8FE794E00E94DD1A7C01CE0101966D
:102F30000E94B21CF7FC5EC068E472E0CE010D9600
:102F40000E94211DBE01635F7F4F8FE794E00E94C6
:102F5000DD1A4AE0BC01CE0143960E94E31CCE017B
:102F600043960E94CD196B017C0165E472E0CE01AD
:102F700001960E94211DBE016F5F7F4F8FE794E095
:102F80000E94DD1A4AE0BC01CE0107960E94E31CB4
:102F9000CE0107960E94CD19AB014E5F5F4F96019F
:102FA0006FE774E0CE0149960E94361DCE01499626
:102FB0000E94CD196093AC02CE0149966F8F0E949A
:102FC000B21CCE0107960E94B21CCE0101960E944F
:102FD000B21CCE0143960E94B21CCE010D960E94F7
:102FE000B21C6F8D862F0E94B32C8091AC02833669
:102FF00009F471CF8091BB03813031F46FE774E045
:103000008EEB93E00E94E01D6CE472E08FE794E0A9
:103010000E94841C8EEB93E00E94AC18892B61F116
:103020008EEB93E00E94AC18892B79F08EEB93E045
:103030000E948A188093BD030E94122D64E170E003
:1030400080E090E00E94C21FEBCF8091BB038130F3
:1030500031F46FE774E089E994E00E94E01D81E0BB
:1030600080938E0280938F020E9447046CE472E08A
:103070008FE794E00E94841C6F960FB6F894DEBF31
:103080000FBECDBFDF91CF911F910F91FF90EF90B9
:10309000DF90CF90BF90AF909F908F90089508954C
:1030A000CF92DF92EF92FF920F931F93CF93DF9314
:1030B0006C017A018B01C0E0D0E0CE15DF0589F00C
:1030C000D8016D918D01D601ED91FC910190F081B7
:1030D000E02DC6010995892B11F47E0102C02196CD
:1030E000ECCFC701DF91CF911F910F91FF90EF902F
:1030F000DF90CF900895FC01538D448D252F30E053
:10310000842F90E0821B930B541710F0CF960895F4
:1031100001970895FC01918D828D981761F0828D41
:10312000DF01A80FB11D5D968C91928D9F5F9F73FB
:10313000928F90E008958FEF9FEF0895FC01918D9D
:10314000828D981731F0828DE80FF11D858D90E00A
:1031500008958FEF9FEF0895FC01918D228D892FA7
:1031600090E0805C9F4F821B91098F73992708958F
:103170008EEB93E00E94AC1821E0892B09F420E04B
:10318000822F0895FC01848DDF01A80FB11DA35A81
:10319000BF4F2C91848D90E001968F739927848F77
:1031A000A689B7892C93A089B1898C9180648C936E
:1031B000938D848D981306C00288F389E02D808159
:1031C0008F7D80830895EF92FF920F931F93CF938B
:1031D000DF93EC0181E0888F9B8D8C8D981305C067
:1031E000E889F989808185FD24C0F62E0B8D10E0D9
:1031F0000F5F1F4F0F731127E02E8C8DE8120CC04C
:103200000FB607FCFACFE889F989808185FFF5CFF1
:10321000CE010E94C218F1CF8B8DFE01E80FF11D87
:10322000E35AFF4FF0820B8FEA89FB89808180622D
:1032300007C0EE89FF896083E889F989808180640D
:10324000808381E090E0DF91CF911F910F91FF90FB
:10325000EF900895CF93DF93EC01888D8823C9F018
:10326000EA89FB89808185FD05C0A889B9898C918F
:1032700086FD0FC00FB607FCF5CF808185FFF2CF2A
:10328000A889B9898C9185FFEDCFCE010E94C21823
:10329000E7CFDF91CF91089580E090E0892B29F06E
:1032A0000E94B81881110C94000008950E946237A2
:1032B000AF92BF92CF92DF92EF92FF920F931F9344
:1032C000CF93DF937B018A01FB0144815581411536
:1032D000510561F1FC01248135812115310531F160
:1032E0002417350718F10217130718F08901015048
:1032F0001109FC01A080B180C501DFEFCFEF6501AE
:10330000C00ED11EC816D906A0F0F70160817181E8
:103310000E94A937009769F09C012A193B090217FE
:10332000130710F0D22FC32F0196ECCF8FEF9FEF32
:1033300002C08D2F9C2FDF91CF911F910F91FF9095
:10334000EF90DF90CF90BF90AF9008950F931F93B1
:10335000CF93DF93EC0188819981009729F02A812E
:103360003B812617370788F48B016F5F7F4F0E94E0
:103370009836009761F0998388831B830A832C8198
:103380003D81232B11F4FC01108281E001C080E01B
:10339000DF91CF911F910F910895FC018081918160
:1033A000009711F00C94C62F60E070E0CB010895F7
:1033B0002F923F924F925F926F927F928F929F9245
:1033C000AF92BF92CF92DF92EF92FF920F931F9333
:1033D000CF93DF93FC01448055804114510409F4DC
:1033E000CFC0FB01648075806114710409F4C8C00A
:1033F0007A016B01EC01FA01A480B580A618B70828
:1034000008811981A114B104C1F4F60160817181B0
:10341000C8010E94A937EC01892B09F4B1C0F7015A
:103420006081718144815581CE010E946F37F7011F
:10343000048115810C0F1D1FE8CFB7FE02C04801A3
:1034400006C0FB01208031804201C80142C0F60164
:1034500060817181C4010E94A9372C01892B19F167
:10346000320168187908A301B401C8010E946F37BE
:10347000060D171DF7016081718144815581C801D6
:103480000E946F37F70184819581080F191FF6019B
:1034900084809580840C951C8C819D818A0D9B1D58
:1034A0009D838C83D4CFB401C801DF91CF911F914C
:1034B0000F91FF90EF90DF90CF90BF90AF909F90D3
:1034C0008F907F906F905F904F903F902F900C94D3
:1034D0009337B1010E94A937009729F0860D971DF7
:1034E0008A0C9B1CF6CF8414950409F449C08A8188
:1034F0009B818815990560F4B4016F5F7F4FC80107
:103500000E9498360097E1F1998388839B828A8292
:103510004C815D814150510957FD32C0B601CE0149
:103520000E9458198C0197FD2BC088819981F60162
:1035300024813581200F311F820F931F4C815D81C3
:10354000421B530BBC018A0D9B1D0E9478378C8156
:103550009D818A0D9B1D9D838C8328813981F90172
:10356000E80FF91F108288819981F70160817181CC
:1035700044815581800F911F0E946F37A801CACFE7
:10358000DF91CF911F910F91FF90EF90DF90CF903F
:10359000BF90AF909F908F907F906F905F904F9073
:1035A0003F902F900895FC0144815581FB012481B7
:1035B0003581421B530B0C945819CF93DF93FC01B8
:1035C00024813581232B71F0FB01DC01CD91DC914D
:1035D00060817181CE010E94A937009719F08C1B80
:1035E0009D0B02C08FEF9FEFDF91CF910895FC01FB
:1035F00024813581FB01448155812417350721F54C
:10360000FC0180819181FB0160817181009719F03B
:1036100061157105A1F46115710549F0232BB1F015
:10362000FB01808190E09195819591090AC00097F6
:1036300069F0232B59F0FC01808190E002C00E94C8
:103640008A3721E0892B19F020E001C021E0822F88
:103650000895EF92FF920F931F93CF93DF9361151D
:10366000710511F480E01EC08B01EC01CB010E94BA
:10367000F42F0097B1F02C813D817C01E20EF31E06
:10368000B701CE010E94A619882361F328813981F0
:103690008C819D81B801820F931F0E94ED2FFD82C6
:1036A000EC8281E0DF91CF911F910F91FF90EF901D
:1036B0000895EF92FF920F931F93CF93DF93FC0136
:1036C000248135816115710511F480E019C041151F
:1036D0005105A9F07B01EC018A01020F131FB8010B
:1036E0000E94A619882389F3288139818C819D81C4
:1036F000B701820F931F0E9493371D830C8381E0D3
:10370000DF91CF911F910F91FF90EF900895EF926D
:10371000FF920F931F93CF93DF9300D000D0CDB7CC
:10372000DEB77C01862F4AE08E010F5F1F4FB80184
:1037300090E00E940830F80101900020E9F73197ED
:10374000AF01401B510BB801C7010E94591B0F90DC
:103750000F900F900F90DF91CF911F910F91FF90DD
:10376000EF9008956115710551F0FB010190002063
:10377000E9F73197AF01461B570B0C94591B80E0BA
:1037800008950F931F93CF93DF938C01EB01FC01FE
:10379000808191810097B1F068817981611571050F
:1037A00079F0428153812C813D814217530740F0CB
:1037B0000E9493378C819D81F8019583848313C087
:1037C0000E94003688819981F801918380838A81E3
:1037D0009B81938382838C819D81958384831982CD
:1037E00018821B821A821D821C82DF91CF911F9149
:1037F0000F910895CF93DF93EC0188819981009711
:1038000011F00E940036198218821D821C821B82D0
:103810001A82DF91CF910895CF93DF93EC010E943C
:10382000291B811103C0CE010E94FA1BCE01DF913A
:10383000CF910895CF93DF93EC010E94871B8111F4
:1038400003C0CE010E94FA1BCE01DF91CF910895F3
:10385000CF93DF93EC01FB0144815581608171813D
:103860000E94591B811103C0CE010E94FA1BCE0198
:10387000DF91CF910895EF92FF920F931F93CF9313
:10388000DF93EC018B016115710551F0CB010E94B2
:10389000F42F7C01BC01CE010E94A619811104C045
:1038A000CE010E94FA1B07C0FD82EC82B80188811C
:1038B00099810E94ED2FCE01DF91CF911F910F9141
:1038C000FF90EF900895EF92FF920F931F93CF9385
:1038D000DF93EC017B018A01BA010E94A6198111D4
:1038E00004C0CE010E94FA1B07C01D830C83B701E0
:1038F000888199810E949337CE01DF91CF911F91EA
:103900000F91FF90EF900895CF93DF93EC01611535
:10391000710559F0FB0101900020E9F73197AF01E3
:10392000461B570B0E94631C02C00E94FA1BCE016B
:10393000DF91CF910895CF93DF93EC01FB018617C0
:10394000970761F0608171816115710529F04481EB
:1039500055810E94631C02C00E94FA1BCE01DF91B8
:10396000CF910895FC01808191810C9400360F93D2
:103970001F93CF93DF93CDB7DEB761970FB6F8945F
:10398000DEBF0FBECDBF8C01CB01F80111821082CA
:10399000138212821582148250E0BE016F5F7F4F46
:1039A0000E942830BE016F5F7F4FC8010E94841CB7
:1039B00061960FB6F894DEBF0FBECDBFDF91CF91F9
:1039C0001F910F9108950F931F93CF93DF93CDB75E
:1039D000DEB762970FB6F894DEBF0FBECDBF8C0185
:1039E000CB01F80111821082138212821582148297
:1039F00050E0BE016F5F7F4F0E94FD2FBE016F5FE1
:103A00007F4FC8010E94841C62960FB6F894DEBFF7
:103A10000FBECDBFDF91CF911F910F910895FC0193
:103A20001182108213821282158214820C943B1C24
:103A3000FC011182108213821282158214820C946E
:103A40009B1CFC0111821082138212821582148247
:103A50006115710551F0FB0101900020E9F73197E4
:103A6000AF01461B570B0C94631C0895BF92CF9275
:103A7000DF92EF92FF920F931F93CF93DF937C011E
:103A80006B018A01E9012417350720F4812F890190
:103A9000C42FD82F6CE472E0C7010E94211DD6010B
:103AA00014968D919C91159708171907D0F48C17CF
:103AB0009D0708F4EC01D601ED91FC911197EC0FF4
:103AC000FD1FB08010824D915C91BA01600F711F93
:103AD000C7010E94841CD601ED91FC91EC0FFD1FE3
:103AE000B082C701DF91CF911F910F91FF90EF90AE
:103AF000DF90CF90BF900895DC01ED91FC91019093
:103B0000F081E02D0994DC01ED91FC91DB0114962C
:103B10004D915C9115976D917C910280F381E02D20
:103B20000994EF92FF920F931F93CF93DF938C0131
:103B30007B01C0E0D0E0F701EC0FFD1F649166232C
:103B400061F0D801ED91FC910190F081E02DC80168
:103B50000995892B11F02196EECFCE01DF91CF91FF
:103B60001F910F91FF90EF9008956115710579F005
:103B7000FB0101900020E9F73197AF01461B570B7D
:103B8000DC01ED91FC910280F381E02D099480E04D
:103B900090E008956AE472E00C94B51D0F931F93B2
:103BA000CF93DF93EC010E94B51D8C01CE010E94E2
:103BB000CA1D800F911FDF91CF911F910F91089522
:103BC0000F931F93CF93DF93EC010E94831D8C0111
:103BD000CE010E94CA1D800F911FDF91CF911F91CE
:103BE0000F9108950F931F93CF93DF93EC010E94E1
:103BF000911D8C01CE010E94CA1D800F911FDF9183
:103C0000CF911F910F9108951F920F920FB60F92AF
:103C100011242F933F934F935F936F937F938F93D1
:103C20009F93AF93BF93EF93FF938EEB93E00E942C
:103C3000C218FF91EF91BF91AF919F918F917F91AA
:103C40006F915F914F913F912F910F900FBE0F9009
:103C50001F9018951F920F920FB60F9211242F9359
:103C60008F939F93EF93FF93E091CE03F091CF0357
:103C70008081E091D403F091D50382FD12C0908140
:103C80008091D7038F5F8F732091D803821751F0F3
:103C9000E091D703F0E0E254FC4F958F8093D70377
:103CA00001C08081FF91EF919F918F912F910F9093
:103CB0000FBE0F901F9018951F93CF93DF93282F5F
:103CC00030E0F901EA5EFA4F8491F901EF5DF74FB8
:103CD000D491F901E35FF74FC491CC23C9F0162FBB
:103CE00081110E945D1FEC2FF0E0EE0FFF1FE750E7
:103CF000F84FA591B4918FB7F894111105C09C911C
:103D0000ED2FE095E92302C0EC91ED2BEC938FBFF2
:103D1000DF91CF911F9108953FB7F89480919D0353
:103D200090919E03A0919F03B091A00326B5A89BFC
:103D300005C02F3F19F00196A11DB11D3FBFBA2F3D
:103D4000A92F982F8827820F911DA11DB11DBC019D
:103D5000CD0142E0660F771F881F991F4A95D1F762
:103D600008952091D6023091D7022817390771F4AF
:103D70009091D5028091D402981741F0E091D5023C
:103D8000F0E0E852FD4F808190E008958FEF9FEFC3
:103D9000089508951F93CF93DF93DC015C962D91D6
:103DA0003C915D972115310539F481E090E013963F
:103DB0009C938E9312973DC05196ED91FC91529732
:103DC00050969C915097892F80951FB75E964C9185
:103DD0005E9741FB772770F941FD6095F89440812B
:103DE000772311F0492B01C048234083E901219733
:103DF000F1F748E0508160FF02C0592B01C0582301
:103E00005083E9012197F1F76695415099F777239F
:103E100021F090818923808303C08081982B908337
:103E20001FBF5C968D919C915D970197F1F721E002
:103E300030E0C901DF91CF911F9108952091D60202
:103E40003091D7022817390771F48091D40220915C
:103E5000D50290E080549F4F821B910960EC70E086
:103E60000E943D35089580E090E008952091D602AB
:103E70003091D70228173907C9F49091D502809163
:103E8000D402981799F0E091D502F0E0E852FD4F86
:103E900020818091D50290E0019660EC70E00E9454
:103EA0003D358093D502822F90E008958FEF9FEFEC
:103EB0000895089580E090E00895833081F028F41B
:103EC000813099F08230A1F008958730A9F08830D0
:103ED000B9F08430D1F4809180008F7D03C080914F
:103EE00080008F7780938000089584B58F7702C01B
:103EF00084B58F7D84BD08958091B0008F7703C015
:103F00008091B0008F7D8093B0000895CF93DF93B0
:103F100090E0FC01EF5DF74F2491FC01E35FF74F68
:103F20008491882361F190E0880F991FFC01E25190
:103F3000FA4FC591D491FC01E750F84FA591B49187
:103F4000611109C09FB7F8948881209582238883E6
:103F5000EC912E230BC0623061F49FB7F894388146
:103F6000822F809583238883EC912E2B2C939FBFE7
:103F700006C08FB7F894E8812E2B28838FBFDF917E
:103F8000CF9108958F929F92AF92BF92CF92DF927E
:103F9000EF92FF926B017C010E948C1E4B015C0131
:103FA000C114D104E104F104F1F00E948C1EDC0183
:103FB000CB0188199909AA09BB09883E9340A1053C
:103FC000B10570F321E0C21AD108E108F10888EECA
:103FD000880E83E0981EA11CB11CC114D104E10419
:103FE000F10419F7DDCFFF90EF90DF90CF90BF90F5
:103FF000AF909F908F9008952FB7F8946091990398
:1040000070919A0380919B0390919C032FBF089518
:104010001F920F920FB60F9211242F933F938F93FD
:104020009F93AF93BF938091990390919A03A0912E
:104030009B03B0919C033091980323E0230F2D370D
:1040400020F40196A11DB11D05C026E8230F02969C
:10405000A11DB11D209398038093990390939A0317
:10406000A0939B03B0939C0380919D0390919E032A
:10407000A0919F03B091A0030196A11DB11D809353
:104080009D0390939E03A0939F03B093A003BF91C1
:10409000AF919F918F913F912F910F900FBE0F90F5
:1040A0001F9018951F920F920FB60F9211242F9305
:1040B0003F934F935F936F937F938F939F93AF93B0
:1040C000BF93EF93FF93E091D602F091D702309720
:1040D00009F453C0968DA685B785858591FF04C0E8
:1040E0009C91892329F449C09C91892309F045C0FA
:1040F000A389B4899C918589809589238C9386892D
:1041000097890197F1F7608D718DA685B7855585E3
:1041100038E020E0CB010197F1F7822F90E09595F0
:104120008795282F4C91452309F02068315091F74D
:10413000868D81FD20958091D40290E0019660ECFF
:1041400070E00E943D359091D502981749F0A091FA
:10415000D402B0E0A852BD4F2C938093D40203C088
:10416000868D8160868F828D938D0197F1F7A3896B
:10417000B4899C918589892B8C93FF91EF91BF9194
:10418000AF919F918F917F916F915F914F913F91EF
:104190002F910F900FBE0F901F901895AF92BF9266
:1041A000CF92DF92EF92FF920F931F93CF93DF9303
:1041B0001F92CDB7DEB75C017B018B016C0181E101
:1041C000C80ED11CF80161918F01C50169830E945D
:1041D000E7336981681719F0C5010E94EF33FFEFDB
:1041E000AF1ABF0AAC14BD0469F7C7010F90DF9185
:1041F000CF911F910F91FF90EF90DF90CF90BF90E4
:10420000AF900895CF92DF92EF92FF920F931F939A
:10421000CF93DF93EB017B0121E1E20EF11C8B01D7
:104220006C01C61AD70AC601800F911F0E94E7339E
:10423000F80181938F01EE15FF05A9F7CE01DF91FB
:10424000CF911F910F91FF90EF90DF90CF90089545
:104250000F931F93CF93DF931F92CDB7DEB78C01DF
:1042600069830E94E7336981681741F0C8010F90A4
:10427000DF91CF911F910F910C94EF330F90DF914D
:10428000CF911F910F9108950C94E733CF93DF9353
:10429000EC0168EE73E080E090E00E94C21F64EEE3
:1042A00075E089E994E00E94911DBE0189E994E0DE
:1042B0000E94831D62EE75E089E994E00E94F21D80
:1042C00064EF71E080E090E00E94C21F61E674E05C
:1042D00089E994E00E94831D64EF71E080E090E042
:1042E0000E94C21F6AE189E994E00E947C1D64EF8C
:1042F00071E080E090E00E94C21F6DE472E08EEBFE
:1043000093E00E94B51DBE018EEB93E00E94831DD9
:104310006DE674E08EEB93E00E94831D61E674E02D
:104320008EEB93E00E94E01D68E873E180E090E08E
:10433000DF91CF910C94C21FCF92DF92EF92FF9248
:104340000F931F93CF93DF93CDB7DEB762970FB66E
:10435000F894DEBF0FBECDBF90910201913009F0FD
:1043600057C0182F83E0E82E81E0F82E0AE01130C4
:1043700031F4F701C588D688C601439607C01230CC
:10438000D9F5F701C588D688C60145960E94442113
:10439000813091F563EC72E0C6010E940221BC01FC
:1043A000CE0107960E94211D63E272E0CE010196C4
:1043B0000E94211DBE01695F7F4FCE0101960E94C0
:1043C000281CBC01CE010D960E94181DCE010D9631
:1043D0000E944621CE010D960E94B21CCE0101968C
:1043E0000E94B21CCE0107960E94B21C68EE73E0D8
:1043F00080E090E00E94C21F0150F7E1EF0EF11C37
:104400000111B5CF113021F41093C2021093C102F3
:1044100062960FB6F894DEBF0FBECDBFDF91CF918D
:104420001F910F91FF90EF90DF90CF90089560E083
:1044300086E00E945C1E64EF71E080E090E00E94E4
:10444000C21F61E086E00E945C1E60E177E280E0CE
:1044500090E00E94C21F66ED75E08EEB93E00E9433
:10446000F21D0C94722561E08BE00E945C1E64E6F4
:1044700070E080E090E00E94C21F60E08BE00E944C
:104480005C1E64E670E080E090E00E94C21F61E084
:104490008BE00C945C1E0E9433220C9433228130FA
:1044A00011F48093C00264E572E089E994E00E940F
:1044B000CE1D68EE73E080E090E00C94C21F813066
:1044C00011F48093C0026DE572E089E994E00E94E6
:1044D000CE1D68EE73E080E090E00C94C21FCF9296
:1044E000DF92FF920F931F93CF93DF9300D000D002
:1044F00000D0CDB7DEB76C0103E011E063EC72E0F1
:10450000F801858996890E940221BC01CE0101969D
:104510000E94211DB601CE0101960E94F71AF82EC5
:10452000CE0101960E94B21CFF2041F0B60183E744
:1045300094E00E949B1CFF24F39406C0095E1F4F69
:10454000F1E0093E1F07D1F68F2D26960FB6F8949D
:10455000DEBF0FBECDBFDF91CF911F910F91FF90B6
:10456000DF90CF90089560ED77E080E090E00E94CA
:10457000C21F68E575E089E994E00E94F21D10927F
:10458000AE0208958EEB93E00C94CA1D8F929F9219
:10459000AF92BF92CF92DF92EF92FF920F931F9351
:1045A000CF93DF93CDB7DEB76E970FB6F894DEBF2B
:1045B0000FBECDBF7C01162F6CE172E0CE010196DB
:1045C0000E94211DBE016F5F7F4FC7010E94D31A59
:1045D0004AE0BC01CE0107960E94E31CCE0107967B
:1045E0000E94CD19AB014F5F5F4FB701CE014396DB
:1045F0000E94A110CE0107960E94B21CCE01019626
:104600000E94B21C64E672E0CE0101960E94211D58
:10461000BE016F5F7F4FCE0143960E94DD1AD92EF7
:10462000CE0101960E94B21CD094DD1CDD24DD1C5D
:1046300066E672E0CE0101960E94211DBE016F5F09
:104640007F4FCE0143960E94DD1AC92ECE010196FE
:104650000E94B21CC094CC1CCC24CC1C68E672E036
:10466000CE0101960E94211DBE016F5F7F4FCE01DA
:1046700043960E94DD1AE92ECE0101960E94B21CDB
:10468000E094EE1CEE24EE1C6AE672E0CE01019688
:104690000E94211DBE016F5F7F4FCE0143960E9495
:1046A000DD1AF92ECE0101960E94B21CF094FF1C77
:1046B000FF24FF1C6CE472E0CE0107960E94211DCE
:1046C00064E672E0CE0101960E94211DAE01495FB1
:1046D0005F4FBE016F5F7F4FCE0143960E94D81996
:1046E000CE0101960E94B21CCE0107960E94B21C18
:1046F0006CE472E0CE0107960E94211D66E672E02E
:10470000CE0101960E94211DAE01495F5F4FBE019F
:104710006F5F7F4FCE0143960E94D819CE0101965C
:104720000E94B21CCE0107960E94B21C6CE472E09B
:10473000CE0107960E94211D68E672E0CE01019627
:104740000E94211DAE01495F5F4FBE016F5F7F4F29
:10475000CE0143960E94D819CE0101960E94B21C48
:10476000CE0107960E94B21C6CE472E0CE0107965F
:104770000E94211D6AE672E0CE0101960E94211D71
:10478000AE01495F5F4FBE016F5F7F4FCE01439621
:104790000E94D819CE0101960E94B21CCE01079644
:1047A0000E94B21C6CE472E0CE0107960E94211DAB
:1047B0006EE172E0CE0101960E94211DAE01495FBB
:1047C0005F4FBE016F5F7F4FCE0143960E94D819A5
:1047D000CE0101960E94B21CCE0107960E94B21C27
:1047E00063E272E0CE0101960E94211DBE016F5F5F
:1047F0007F4FCE0143960E94DD1A4AE0BC01CE01F4
:1048000007960E94E31CCE0107960E94CD199B01DA
:1048100040E050E0BE016D5E7F4FCE010D960E94DC
:10482000361DCE0107960E94B21CCE0101960E9451
:10483000B21C63E272E0CE0101960E94211DBE010E
:104840006F5F7F4FCE0143960E94D31A4AE0BC01AE
:10485000CE0149960E94E31CCE0149960E94CD19D3
:10486000AB014F5F5F4FBE016D5E7F4FCE0107967C
:104870000E94A110CE0149960E94B21CCE01019661
:104880000E94B21C113009F0C6C0CE010D960E94E4
:10489000CD19062FBE01695F7F4FCE0149960E9458
:1048A000181D63EC72E080911801909119010E942B
:1048B0000221BC01CE0101960E94211D8D819E81A5
:1048C000892B39F0E981FA818081882319F010E081
:1048D00001C011E0CE0101960E94B21C112361F0CB
:1048E00063EA75E08EEB93E00E94F21D0E94C22203
:1048F0000E944B2280E001C081E09EEF900F9A3031
:1049000058F060E975E08EEB93E00E94F21D0E9482
:10491000C2220E944B227AC0813009F077C0015038
:1049200083E0882E81E0982EAA24A394B12C63EC16
:1049300072E0F401858996890E940221BC01CE01B2
:1049400001960E94211DBE01675E7F4FCE01019638
:104950000E94F71A182FCE0101960E94B21C112353
:1049600091F06DE675E08EEB93E00E94911DC5011C
:104970000E94802C0E94C2228FEF8A0D801719F0AE
:10498000F12CE12CD12CF7E18F0E911C8FEFA81A9E
:10499000B80AEBE0AE16B10451F66FEA72E0CE0150
:1049A00049960E94C62CF7E10F9F800111240D5FEC
:1049B0001E4F6FEA72E0F801858996890E94CE2029
:1049C000F801858996896D2D43960E942821F8016A
:1049D000858996896C2D44960E942821F801858945
:1049E00096896E2D45960E942821F8018589968921
:1049F0006F2D46960E94282160E675E08EEB93E0CD
:104A00000E94F21D0E94C2220E943322CE014996CA
:104A10000E94B21C2CC0123051F580911801909167
:104A200019016D2D43960E942821809118019091C3
:104A300019016C2D44960E942821809118019091B3
:104A400019016E2D45960E942821809118019091A0
:104A500019016F2D46960E9428216EEB75E08EEBB2
:104A600093E00E94F21D0E94C2220E943322CE01D6
:104A700007960E94B21CCE010D960E94B21CCE0178
:104A800043960E94B21C6E960FB6F894DEBF0FBE1E
:104A9000CDBFDF91CF911F910F91FF90EF90DF90ED
:104AA000CF90BF90AF909F908F9008958091C0025B
:104AB000813031F46DE076E08BE594E00C94291BB5
:104AC00066E176E08BE594E00E94291B4091770433
:104AD0005091780460917304709174048BE594E0B4
:104AE0000C94591B0F931F93CF93DF9300D000D0EA
:104AF00000D0CDB7DEB760ED77E080E090E00E94B7
:104B0000C21F0E94582C1092B4041092B304109249
:104B1000B2041092B1041092B0041092AF048DE967
:104B200091E09093B6048093B5049091A5049631DA
:104B300008F057C02DEB30E03093B0042093AF0461
:104B40002BE931E03093B2042093B1042CE231E040
:104B50003093B4042093B30420916800983050F04F
:104B600031E09E3008F430E081E001C0880F3A95D2
:104B7000EAF701C084E0822B80936800983038F017
:104B80009E3040F0963148F020E030E008C02DE63D
:104B900030E005C02BE630E002C02CE630E0309378
:104BA000AD042093AC04983030F481E001C0880F4C
:104BB0009A95EAF70EC0292F30E09E3018F428505D
:104BC000310902C02E50310981E001C0880F2A95B9
:104BD000EAF78093AE048091B5049091B6040197F2
:104BE000F1F78091B3049091B404892B49F1E091DD
:104BF000D602F091D70284E0E939F80709F130973D
:104C000039F0A389B4899C918589809589238C93F7
:104C10008091B7048E7F8093B7041092D4021092D3
:104C2000D50289E994E09093D7028093D602E0916F
:104C3000AC04F091AD0490818091AE04892B808307
:104C40001AE066EF77E089E994E00E94F21D68ECD3
:104C500070E080E090E00E94C21F115091F762EF77
:104C600077E089E994E00E94F21D6AE070E080E05C
:104C700090E00E94C21F89E994E00E941E1F892BC8
:104C800009F471C089E994E00E941E1F892B79F014
:104C900089E994E00E94361F8093BD030E94122D83
:104CA00064E170E080E090E00E94C21FEBCF809151
:104CB000BC03811152C06DEE77E0CE0101960E94D7
:104CC0000F1DBE016F5F7F4F8FE794E00E94DD1ADA
:104CD0008C01CE0101960E94B21C17FD03C081E039
:104CE0008093BC0366EE77E0CE0101960E940F1D13
:104CF000BE016F5F7F4F8FE794E00E94DD1A8C0149
:104D0000CE0101960E94B21C17FD03C082E0809381
:104D1000BC0363EE77E0CE0101960E940F1DBE0139
:104D20006F5F7F4F8FE794E00E94DD1A8C01CE0108
:104D300001960E94B21C17FD03C083E08093BC0360
:104D400060ED77E08EEB93E00E94911D8091BC03B3
:104D5000082E000C990B0E94802C6CE472E08FE707
:104D600094E00E94841C66EC77E089E994E00E945C
:104D7000F21D64E670E080E090E00E94C21F6CEBE0
:104D800077E089E994E00E94F21D64E670E080E03B
:104D900090E00E94C21F6EEA77E089E994E00E94E9
:104DA000F21D64E670E080E090E00E94C21F62EABB
:104DB00077E089E994E00E94F21D64E670E080E00B
:104DC00090E00E94C21F8091BB03813019F46DE90D
:104DD00077E002C068E977E089E994E00E94F21D7B
:104DE00026960FB6F894DEBF0FBECDBFDF91CF91F0
:104DF0001F910F910895CF93DF9380E090E00E9480
:104E00004421813009F45AC06CE777E08EEB93E0DF
:104E10000E94F21DC0E0D0E06FEFCE010E94282179
:104E20006AE070E080E090E00E94C21F2196CE31DF
:104E3000D10591F76CE577E08EEB93E00E94F21DCF
:104E40000E94C22260E08CE090E00E94282161E094
:104E50008DE090E00E94282161E08EE090E00E94C9
:104E6000282160E08FE090E00E9428216AE082E142
:104E700090E00E94282161E083E190E00E942821D7
:104E80006AE084E190E00E94282166E485E190E0F8
:104E90000E94282160E087E190E00E94282168E2DA
:104EA00088E190E00E94282160E089E190E00E9482
:104EB000282161E080E090E00E94282180E090E0DD
:104EC0000E944421813009F0FBC069E477E08EEB59
:104ED00093E00E94F21D0E94C22288E190E00E94AD
:104EE000442190E09093BA038093B9036EE377E096
:104EF0008EEB93E00E94911D6091B9037091BA030B
:104F000080E090E04AE00E94152C8EEB93E00E9436
:104F1000CA1D8CE090E00E9444218093BB0367E3AC
:104F200077E08EEB93E00E94911D8091BB03082EE9
:104F3000000C990B0E94802C8DE090E00E9444218F
:104F40008093EB0161E377E08EEB93E00E94911D8B
:104F50008091EB01082E000C990B0E94802C8EE0B2
:104F600090E00E9444218093020169E277E08EEB99
:104F700093E00E94911D80910201082E000C990B74
:104F80000E94802C8FE090E00E94442190E090935A
:104F9000B8038093B7036AE177E08EEB93E00E9459
:104FA000911D6091B7037091B80380E090E04AE0F2
:104FB0000E94152C8EEB93E00E94CA1D82E190E0C6
:104FC0000E9444218093B6036AE077E08EEB93E081
:104FD0000E94911D8091B603082E000C990B0E942F
:104FE000802C84E190E00E9444218093B50360E02E
:104FF00077E08EEB93E00E94911D8091B503082E1F
:10500000000C990B0E94802C85E190E00E944421C5
:105010008093B40365EF76E08EEB93E00E94911DE0
:105020008091B403082E000C990B0E94802C83E120
:1050300090E00E9444218093EA0187E190E00E9481
:1050400044218093B3036AEE76E08EEB93E00E94F6
:10505000F21D62EE76E08EEB93E00E94911D80914E
:10506000EA01082E000C990B0E94802C6AED76E074
:105070008EEB93E00E94911D8091B3030E94B32CAC
:1050800089E190E00E9444218093BC0360ED76E0CA
:105090008EEB93E00E94911D8091BC03811107C0AB
:1050A00065EC76E08EEB93E00E94F21D05C0082EC1
:1050B000000C990B0E94802CDF91CF910C94C2229E
:1050C000DF91CF910895AF92BF92CF92DF92EF928E
:1050D000FF920F931F93CF93DF9300D000D000D0A7
:1050E000CDB7DEB763EB76E08EEB93E00E94F21D66
:1050F0006FEA76E08EEB93E00E94911D6DE674E01E
:10510000CE0101960E94181D69EA76E0CE01019653
:105110000E940C1CBC018EEB93E00E94831DCE010B
:1051200001960E94B21C6DE674E0CE0101960E94C9
:10513000181D67EA76E0CE0101960E940C1CBC01A6
:105140008EEB93E00E94831DCE0101960E94B21C5B
:105150006DE674E0CE0101960E94181D65EA76E0C6
:10516000CE0101960E940C1CBC018EEB93E00E94C4
:10517000831DCE0101960E94B21C6DE674E0CE0143
:1051800001960E94181D63EA76E0CE0101960E9406
:105190000C1CBC018EEB93E00E94831DCE01019696
:1051A0000E94B21C6DE674E0CE0101960E94181DAB
:1051B00061EA76E0CE0101960E940C1CBC018EEBE8
:1051C00093E00E94E01DCE0101960E94B21C03E014
:1051D00011E0E12CF12C63EC72E0F80185899689ED
:1051E0000E940221F8018589968943960E944421F4
:1051F000B82EFFEFEF1AFF0A4AE0B701CE01019681
:105200000E94E31C6DE674E0CE0101960E94281C0A
:105210006C01E3ECF2E001900020E9F73197AF0177
:10522000435C524063EC72E00E94591B882309F4EE
:105230005FC06DE674E0C6010E94281C6B2D0E94C1
:105240001A1CBC018EEB93E00E94831DCE010196D7
:105250000E94B21CF801C588D688C60146960E94F5
:105260004421B82EC60145960E944421A82EC601AD
:1052700044960E944421D82E6DE674E0CE0101963A
:105280000E94181D6D2DCE0101960E941A1C6DE61C
:1052900074E00E94281C6A2D0E941A1C6DE674E0BE
:1052A0000E94281C6B2D0E941A1CBC018EEB93E0FF
:1052B0000E94E01DCE0101960E94B21C095E1F4FA4
:1052C000FAE0EF16F10409F086CF0E94C22226967A
:1052D0000FB6F894DEBF0FBECDBFDF91CF911F9107
:1052E0000F91FF90EF90DF90CF90BF90AF90089517
:1052F000C6010E94FA1B9DCFCF93DF9383E690E017
:105300000E944421813009F450C06CE876E08EEBB5
:1053100093E00E94F21DC4E6D0E06FEFCE010E9440
:1053200028216AE070E080E090E00E94C21F219690
:10533000C03981E0D80789F763E776E08EEB93E028
:105340000E94F21D0E94C222C7E1D1E0BE01645159
:10535000710989819A810E94CE20FE01339789814B
:105360009A81608143960E942821FE0132978981AB
:105370009A81608144960E942821FE01319789819B
:105380009A81608145960E94282189819A8168814D
:1053900046960E942821679681E0CD3FD807B1F656
:1053A00061E083E690E00E94282183E690E00E947D
:1053B0004421813021F4DF91CF910C946328DF9157
:1053C000CF91089581E390E00E944421813071F1F2
:1053D0006EE576E08EEB93E00E94F21D63E476E0EA
:1053E0008EEB93E00E94F21D0E94C2226CE672E0F6
:1053F00085E894E00E94841C86E18093E90162EADA
:1054000073E085E894E00E94C62C62EA73E08EE1C6
:1054100090E00E94CE206091E90180E390E00E943C
:10542000282161E081E390E00E94282181E390E05F
:105430000E944421813049F562EA73E08EE190E0F8
:105440000E940221BC0185E894E00E94841C80E354
:1054500090E00E9444218093E90162E376E08EEBC4
:1054600093E00E94911D65E874E08EEB93E00E944A
:10547000E01D6FE176E08EEB93E00E94911D80913C
:10548000E9010E94B32C0C94C22208950F931F933C
:10549000CF93DF93CDB7DEB762970FB6F894DEBF38
:1054A0000FBECDBF182F81E0809302011092A1039F
:1054B00061E08EE090E00E94282163E076E08BE5D9
:1054C00094E00E943B1C113011F41093C0020E9422
:1054D00056256BE574E08EEB93E00E94E01D6BE5D2
:1054E00074E081E694E00E949B1C68EE73E080E02B
:1054F00090E00E94C21F03E011E0F80185899689BF
:1055000046960E9444218130D1F568EE73E080E038
:1055100090E00E94C21F63EC72E0F80185899689D1
:105520000E940221BC01CE0107960E94211D63E268
:1055300072E0CE0101960E94211DBE01695F7F4F7E
:10554000CE0101960E94281CBC01CE010D960E943E
:10555000181DCE010D960E944621CE010D960E9487
:10556000B21CCE0101960E94B21CCE0107960E9489
:10557000B21C68EE73E080E090E00E94C21F095EFA
:105580001F4FF1E0093E1F0709F0B7CF1092C0028C
:1055900062960FB6F894DEBF0FBECDBFDF91CF91FC
:1055A0001F910F9108950F931F93CF93DF93CDB762
:1055B000DEB762970FB6F894DEBF0FBECDBF182FCF
:1055C0001092020160E08EE090E00E94282168EFD6
:1055D00075E08BE594E00E943B1C113011F41093B0
:1055E000C0020E9456256BE574E08EEB93E00E94AA
:1055F000E01D6BE574E081E694E00E949B1C68EE80
:1056000073E080E090E00E94C21F03E011E0F80127
:105610008589968946960E9444218130D1F568EEAD
:1056200073E080E090E00E94C21F63EC72E0F8013A
:10563000858996890E940221BC01CE0107960E94AD
:10564000211D63E272E0CE0101960E94211DBE0180
:10565000695F7F4FCE0101960E94281CBC01CE01DC
:105660000D960E94181DCE010D960E944621CE0176
:105670000D960E94B21CCE0101960E94B21CCE0172
:1056800007960E94B21C68EE73E080E090E00E94F2
:10569000C21F095E1F4FF1E0093E1F0709F0B7CF97
:1056A0001092C00262960FB6F894DEBF0FBECDBF57
:1056B000DF91CF911F910F91089590918B04E0910C
:1056C0008C04F0918D04F8948181292F20958223F8
:1056D000818378948DE743E050E0815021F1DA0135
:1056E0001197F1F730813923C1F3F8948281822335
:1056F00082838181892B81837894ABE7B7E011970E
:10570000F1F7F894818128232183A3E1B1E0119777
:10571000F1F78081982381E009F080E07894E3E656
:10572000F6E03197F1F7089590918B04E0918C04A5
:10573000F0918D04392F309580FF13C0F8942281A9
:10574000832F822382838181892B8183A3E2B0E02E
:105750001197F1F78281982B9283789487ED90E0EE
:1057600012C0F8942281832F822382838181892B26
:105770008183AFEFB0E01197F1F78281982B92838C
:1057800078948FE090E00197F1F708950F931F93BD
:10579000CF93DF93082FC8E0D0E011E081E0912F94
:1057A000902309F480E00E94942B110F2197B1F708
:1057B000F894E0918C04F0918D04918180918B0498
:1057C000809598239183E0918C04F0918D049281CF
:1057D000892382837894DF91CF911F910F9108954F
:1057E00080918B04E0918C04F0918D04F894918168
:1057F000982B91832281982F909529232283A7E0CB
:10580000B0E01197F1F7218192239183A3E2B0E0F8
:105810001197F1F790817894EFECF0E03197F1F780
:10582000982381E009F480E008958F929F92AF92CF
:10583000BF920F931F93CF93DF93CDB7DEB7A1979E
:105840000FB6F894DEBF0FBECDBF19A2423008F4E8
:105850004AE08E010F5D1F4F842E912CA12CB12C9C
:10586000A50194010E946634E62FB901CA010150D6
:105870001109EA3014F4E05D01C0E95CD801EC9351
:10588000232B242B252B61F7B8018EEB93E00E948C
:10589000B51DA1960FB6F894DEBF0FBECDBFDF9148
:1058A000CF911F910F91BF90AF909F908F900895CF
:1058B000EEEBF3E0A089B18982E08C93A485B585F5
:1058C0001C92A685B7858FEC8C93108EA489B58920
:1058D00086E08C93A289B3898C9180618C93A28994
:1058E000B3898C9188608C93A289B3898C918068EC
:1058F0008C930288F389E02D80818F7D80830895C9
:10590000CF92DF92EF92FF92CF93DF936C01990FCA
:10591000EE08FF08F7FE14C06DE28EEB93E00E94E4
:105920007C1DEC0166277727CB016C197D098E0958
:105930009F094AE00E94152C7C01EC0EFD1E06C05A
:105940004AE0C701B6010E94152C7C018EEB93E062
:105950000E94CA1D8E0D9F1DDF91CF91FF90EF9089
:10596000DF90CF900895CF93DF93682F70E080E0B1
:1059700090E04AE00E94152CEC018EEB93E00E942F
:10598000CA1D8C0F9D1FDF91CF9108950F931F9318
:10599000CF93DF93FC01C481D581209719F4FB01DB
:1059A000108210C0C031D10510F0C0E1D0E08B01F1
:1059B000FC0160817181AE01C8010E949A37C00F5D
:1059C000D11F1882DF91CF911F910F9108950F93EE
:1059D0001F93CF93DF93CDB7DEB764970FB6F894DC
:1059E000DEBF0FBECDBF8E010F5F1F4F22E044E030
:1059F0000E944A2FFC0101900020E9F73197AF0186
:105A0000481B590BBC0181E694E00E94591B649627
:105A10000FB6F894DEBF0FBECDBFDF91CF911F91BF
:105A20000F910895CF93DF9300D0CDB7DEB7898370
:105A30001A8241E050E0BE016F5F7F4F8FE794E034
:105A40000E94591B0F900F90DF91CF9108950F93F3
:105A50001F93CF93DF93CDB7DEB728970FB6F89497
:105A6000DEBF0FBECDBF4AE08E010F5F1F4FB801F2
:105A70000E940830F80101900020E9F73197AF014A
:105A8000401B510BB80181E694E00E94591B2896F7
:105A90000FB6F894DEBF0FBECDBFDF91CF911F913F
:105AA0000F910895789484B5826084BD84B5816037
:105AB00084BD85B5826085BD85B5816085BD8091D9
:105AC0006E00816080936E00109281008091810051
:105AD0008260809381008091810081608093810049
