:100000000C940B040C9433040C9433040C9446208D
:100010000C9446200C9446200C9433040C94330426
:100020000C9433040C9433040C9433040C94330474
:100030000C9433040C9433040C9433040C94330464
:100040000C94FC1F0C9433040C941E1E0C94F81D8D
:100050000C9433040C9433040C9433040C94330444
:100060000C9433040C94330400407A10F35A00A02B
:10007000724E18090010A5D4E80000E87648170071
:1000800000E40B54020000CA9A3B000000E1F505B1
:10009000000080969800000040420F000000A086FB
:1000A00001000000102700000000E803000000002D
:1000B0006400000000000A000000000001000000D1
:1000C00000002C76D888DC674F0823DFC1DFAE59EB
:1000D000E1B1B796E5E3E453C63AE651997696E87E
:1000E000E6C28426EB898C9B62ED407C6FFCEFBC02
:1000F0009C9F40F2BAA56FA5F490055A2AF75C932D
:100100006B6CF9676DC11BFCE0E40D47FEF520E662
:10011000B500D0ED902E0300943577050080841E45
:10012000080000204E0A000000C80C333333330FA0
:10013000986E12831141EF8D2114893BE65516CF3D
:10014000FEE6DB18D1844B381BF77C1D901DA4BB49
:10015000E424203284725E228100C9F124ECA1E5FE
:100160003D274572726F722064656C6574696E67B5
:100170002070686F6E653A202B0044656C6574656D
:100180002070686F6E653A202B0057617463685069
:100190006F77657254696D652069733A2000526902
:1001A0006E6754696D652069733A20004C6F77540F
:1001B000656D702069733A20004869676854656D01
:1001C000702069733A20004E6574436865636B5410
:1001D000696D652069733A200054656D70436865E8
:1001E000636B54696D652069733A20006661696CC0
:1001F00065642E007061737365642E0054657374BA
:1002000020004661696C65642063656C6C3A20006F
:100210004200454550524F4D3A20004E6F742075B4
:1002200073652E0041362E0053494D3830304C2E28
:10023000004D353930652E005265626F6F742E00A7
:100240004175746F6465746563742E002E204D6F64
:1002500064656D3A200043757272656E742049447E
:100260003A200050726576696F75732049443A20D0
:100270000041542B435553443D312C2200534D53E0
:100280002072656D6F766564003400302C34004157
:10029000542B434D47443D00636C656172736D732D
:1002A000006C65646F00746573746F0067756172CC
:1002B000646F006E6574737461747573006D6F6E36
:1002C0006579000A00206D696E000A54656D7043FF
:1002D0006865636B54696D653A20000A4869676810
:1002E0003A20000A4C6F773A20000A53656E736F0C
:1002F00072206572726F72210043757272656E743E
:100300002074656D70657261747572653A2000695C
:100310006E666F006D6F64656D6964007265626F13
:100320006F74006C69737470686F6E65006D656DD5
:1003300074657374006C697374636F6E66696700CB
:10034000656469746D61696E70686F6E6500330015
:1003500032006E320031006E3100576174636820E4
:1003600074686520706F776572204F0077617463E1
:1003700068706F7765726F007265736574636F6E16
:1003800066696700726573657470686F6E65006694
:10039000756C6C72657365740074656D7063686507
:1003A000636B74696D65006E6574636865636B7417
:1003B000696D65006869676874656D70006C6F775A
:1003C00074656D700072696E6774696D6500776140
:1003D000746368706F77657274696D650062616CD3
:1003E000616E63656E756D0064656C6574657068DB
:1003F0006F6E650061646470686F6E6500506F7742
:10040000657220737570706C7920726573746F7289
:10041000656400506F77657220737570706C792019
:10042000646973636F6E6E65637465642000206D2C
:10043000696E757465732061676F000A4C6F772071
:1004400074656D70657261747572653A20000A4852
:100450006967682074656D70657261747572653A5C
:1004600020000A436865636B2074656D7065726176
:10047000747572652073656E736F7221003B004165
:1004800054442B00416C61726D2052696E673A20B2
:100490002B005072696D6172792070686F6E653AD9
:1004A000202B002B4353513A002B435245473A002F
:1004B00041542B435553443D300055535344207110
:1004C000756572793A20002B435553443A00534DD9
:1004D000532066726F6D3A202B002C22002C2C00CA
:1004E0002B434D543A0052696E672066726F6D3A25
:1004F000202B002C0052494E470054656D706572E8
:1005000061747572653A20004572726F722073656E
:100510006E736F722E0000000008000201000003DD
:100520000407000000000000000020617420626FDA
:100530006F742E0041542B434855500050686F6E25
:10054000652061646465642E0050686F6E6520618B
:100550006C72656164792065786973747320696E63
:10056000207468652063656C6C3A20004572726F78
:10057000722C2077726F6E672063656C6C2E00455D
:1005800072726F722C206E6F7420736574206D61AF
:10059000696E2070686F6E652E0050686F6E652002
:1005A00073657474696E6773206368616E676564F0
:1005B0002E005265626F6F744D6F64656D0022008E
:1005C00041542B434D47533D2200000000002400BE
:1005D00027002A004775617264204F46462E004767
:1005E00075617264204F4E2E0020436F6E736F6CE6
:1005F00065002050686F6E65202B004C656E677437
:100600006820746F2072657475726E3A20004261C2
:100610006C616E6365206E756D6265723A20004C88
:100620006F61642064656661756C742062616C61E1
:100630006E636520646174612E0044656C65746549
:100640002062616C616E636520646174612E004C90
:100650006F61642064656661756C742070686F6E8C
:100660006520646174612E0044656C6574696E6711
:100670002070686F6E6520646174612E006900707F
:10068000007200730050686F6E6500E2849600523D
:100690006561642061727261792070686F6E653A7D
:1006A000004175746F646574656374004D6F6465B3
:1006B0006D49443A20002054696D653A2000204D70
:1006C0006F64653A20005761746368506F77657294
:1006D000004869676854656D703A20004C6F775424
:1006E000656D703A200054656D70436865636B54A6
:1006F000696D653A20004E6574436865636B5469A3
:100700006D653A200047756172643A20004C65645B
:100710003A2000546573743A200052696E67546938
:100720006D653A20005265616420656570726F6D79
:10073000636F6E6669673A004C6F6164206465663A
:1007400061756C7420656570726F6D636F6E66693C
:100750006720646174612E0044656C6574696E671E
:1007600020656570726F6D636F6E66696720646186
:1007700074612E00415445300041544531004154CC
:100780002B434E4D493D322C320041542B435343B1
:10079000533D2247534D220041542B434D47463D84
:1007A000310041542B434C49503D31004465746540
:1007B00063746564204D6F64656D49443A2000415F
:1007C000360053494D383030004D353930004154F2
:1007D000490041540000000000250028002B0000C3
:1007E000000000230026002900040404040404047B
:1007F00004020202020202030303030303010204D0
:100800000810204080010204081020010204081092
:100810002000432E042E11241FBECFEFD8E0DEBFF0
:10082000CDBF12E0A0E0B1E0EEEAFFE602C0059025
:100830000D92AC3AB107D9F724E0ACEAB2E001C0BE
:100840001D92A63EB207E1F714E0CAE0D4E004C06E
:100850002197FE010E946C35C930D107C9F70E946B
:10086000462D0C94CA370C940000CF92DF92EF9281
:10087000FF920F931F93CF93DF93CDB7DEB7AA9765
:100880000FB6F894DEBF0FBECDBF8091B3028130AA
:1008900031F463EA74E082EE93E00E94D41D6CE4CC
:1008A00072E0CE0142960E94151D6AE172E0CE010F
:1008B00001960E94151DAE014E5E5F4FBE016F5F37
:1008C0007F4F83EA94E00E94CC19CE0101960E94EA
:1008D000A61CCE0142960E94A61C6CE472E0CE01DA
:1008E00042960E94151D6BE472E0CE0101960E94B3
:1008F000151DAE014E5E5F4FBE016F5F7F4F83EAF5
:1009000094E00E94CC19CE0101960E94A61CCE0153
:1009100042960E94A61C0091A3041091A404011504
:10092000110531F48091B202813009F0B2C70DC0D7
:10093000F80180818823B1F3082E000C990B0E94E6
:100940006E37F80181938F01F3CF64EF73E0CE012E
:1009500001960E94031DBE016F5F7F4F83EA94E002
:100960000E94D11A8C01CE0101960E94A61C17FD8F
:100970000FC063EA74E0CE0101960E940C1D61E095
:10098000CE0101960E94BA22CE0101960E94A61CB9
:1009900068EE73E0CE0101960E94031DBE016F5FF9
:1009A0007F4F83EA94E00E94D11A8C01CE01019618
:1009B0000E94A61C17FD0EC163EA74E0CE01849666
:1009C0000E940C1D6CE172E0CE0142960E94151D42
:1009D000BE016E5E7F4FCE0184960E94C71A4AE028
:1009E000BC01CE0101960E94D71CCE0101960E9447
:1009F000C119AB014F5F5F4FBE016C5D7F4FCE01F0
:100A00004E960E949510CE0101960E94A61CCE0122
:100A100042960E94A61C6CE472E0CE0101960E94F0
:100A2000151D6EE172E0CE0142960E94151DAE01C9
:100A30004F5F5F4FBE016E5E7F4FCE014E960E94AC
:100A4000CC19CE0142960E94A61CCE0101960E94AE
:100A5000A61C63E272E0CE0142960E94151DBE0103
:100A60006E5E7F4FCE014E960E94C71A4AE0BC01CF
:100A7000CE0101960E94D71CCE0101960E94C11999
:100A8000AB014F5F5F4FBE01625E7F4FCE01489664
:100A90000E949510CE0101960E94A61CCE0142969E
:100AA0000E94A61CBE01685E7F4FCE0142960E9446
:100AB0000C1D0FE211E021E09DE0F92E6E01F5E042
:100AC000CF0ED11C67EE72E0F801808191812AA7D8
:100AD0000E94F620BC01CE0101960E94151DBE01A8
:100AE0006E5E7F4FCE0101960E94EB1AE82ECE017A
:100AF00001960E94A61C2AA5EE2009F441C0198285
:100B00001A821B821C82F6018F2D11928A95E9F7B9
:100B1000BE016F5F7F4FF801808191810E94C220EA
:100B2000F8018081918160E043960E941C21F801C8
:100B30008081918160E044960E941C21F8018081AF
:100B4000918160E045960E941C21F801808191818D
:100B500060E046960E941C216AE771E082EE93E015
:100B60000E94851DBE016E5E7F4F82EE93E00E9463
:100B7000D41D0E94B6220E9457280E94272220E0FE
:100B8000095E1F4FF1E00E3F1F0709F09BCF213098
:100B900089F462E671E082EE93E00E94851DBE0159
:100BA0006E5E7F4F82EE93E00E94D41D0E94B622BB
:100BB0000E943F22CE0142960E94A61CCE0148967A
:100BC0000E94A61CCE014E960E94A61CCE018496C1
:100BD0000E94A61C6DED73E0CE0101960E94031DDC
:100BE000BE016F5F7F4F83EA94E00E94D11A8C01AF
:100BF000CE0101960E94A61C17FDB5C06CE172E003
:100C0000CE0101960E94151DBE016F5F7F4F83EAE2
:100C100094E00E94C71A4AE0BC01CE0142960E94AD
:100C2000D71CCE0142960E94C119AB014F5F5F4FA6
:100C300063EA74E0CE0148960E949510CE01429678
:100C40000E94A61CCE0101960E94A61C65E272E0DD
:100C5000CE0101960E94151DBE016F5F7F4FCE0130
:100C600048960E94D11A4AE0BC01CE014E960E94DD
:100C7000D71CCE014E960E94C1199B0140E050E066
:100C8000BE01685E7F4FCE0142960E942A1DCE01B2
:100C90004E960E94A61CCE0101960E94A61C65E2FB
:100CA00072E0CE014E960E94151DBE01625E7F4F1E
:100CB00083EA94E00E94C71A4AE0BC01CE01849600
:100CC0000E94D71CCE0184960E94C119AB014F5FD0
:100CD0005F4F63EA74E0CE0101960E949510CE0149
:100CE00084960E94A61CCE014E960E94A61CCE01A0
:100CF00001960E94C119162FBE016E5E7F4FCE0174
:100D00004E960E940C1D66EC73E0CE014E960E943A
:100D1000BA2C66EC73E08EE190E00E94C220612F55
:100D200080E390E00E941C2161E081E390E00E945A
:100D30001C210E94D62982EE93E00E94BE1D0E94D3
:100D4000B6220E942722CE014E960E94A61CCE01FA
:100D500001960E94A61CCE0142960E94A61CCE01BE
:100D600048960E94A61C6EEC73E0CE0101960E948C
:100D7000031DBE016F5F7F4F83EA94E00E94D11A8A
:100D80008C01CE0101960E94A61C17FD5DC06CE18E
:100D900072E0CE0101960E94151DBE016F5F7F4F6C
:100DA00083EA94E00E94C71A4AE0BC01CE01429651
:100DB0000E94D71CCE0142960E94C119AB014F5F21
:100DC0005F4F63EA74E0CE0148960E949510CE0111
:100DD00042960E94A61CCE0101960E94A61CBE014E
:100DE000685E7F4FCE0142960E940C1DCE01429656
:100DF0000E94C1196F3F71058105910511F008F03E
:100E00002FC7CE0142960E94C119162F87E190E0AC
:100E10000E941C211093D7036AE871E082EE93E0F0
:100E20000E94851D87E190E00E9438210E94A72C36
:100E30000E94B6220E942722CE0142960E94A61C42
:100E4000CE0148960E94A61C65EC73E0CE01019687
:100E50000E94031DBE016F5F7F4F83EA94E00E94F2
:100E6000D11A8C01CE0101960E94A61C17FD65C007
:100E70006CE172E0CE0101960E94151DBE016F5F0C
:100E80007F4F83EA94E00E94C71A4AE0BC01CE017A
:100E900048960E94D71CCE0148960E94C119AB010A
:100EA0004F5F5F4F63EA74E0CE0142960E94951057
:100EB000CE0148960E94A61CCE0101960E94A61C57
:100EC000BE016E5E7F4FCE0101960E940C1DCE01C9
:100ED00001960E94C119DC01CB010A97A109B10951
:100EE000863F9105A105B10508F0DCC6CE0101964B
:100EF0000E94C119162F88E190E00E941C21612FE9
:100F000070E07093DE036093DD036EE971E082EEC2
:100F100093E00E94851D88E190E00E9438210E94A4
:100F2000A72C0E94B6220E942722CE0101960E9481
:100F3000A61CCE0142960E94A61C6DEB73E0CE016A
:100F400001960E94031DBE016F5F7F4F83EA94E00C
:100F50000E94D11A8C01CE0101960E94A61C17FD99
:100F600072C06CE172E0CE0101960E94151DBE01B7
:100F70006F5F7F4F83EA94E00E94C71A4AE0BC018A
:100F8000CE0148960E94D71CCE0148960E94C119F6
:100F9000AB014F5F5F4F63EA74E0CE0142960E945F
:100FA0009510CE0148960E94A61CCE0101960E9483
:100FB000A61CBE016E5E7F4FCE0101960E940C1DE5
:100FC000CE0101960E94C1198B019C010E5C1F4F3E
:100FD0002F4F3F4F003B11052105310508F077C623
:100FE0002091D803022F220F110B220B330B601715
:100FF0007107820793070CF06AC6CE0101960E9422
:10100000C119162F84E190E00E941C211093D9038E
:101010006CEA71E082EE93E00E94851D84E190E02D
:101020000E943821082E000C990B0E94742C0E94FB
:10103000B6220E942722CE0101960E94A61CCE0154
:1010400042960E94A61C64EB73E0CE0101960E94BA
:10105000031DBE016F5F7F4F83EA94E00E94D11AA7
:101060008C01CE0101960E94A61C17FD72C06CE196
:1010700072E0CE0101960E94151DBE016F5F7F4F89
:1010800083EA94E00E94C71A4AE0BC01CE01489668
:101090000E94D71CCE0148960E94C119AB014F5F38
:1010A0005F4F63EA74E0CE0142960E949510CE0134
:1010B00048960E94A61CCE0101960E94A61CBE0165
:1010C0006E5E7F4FCE0101960E940C1DCE010196EF
:1010D0000E94C1198B019C010E5C1F4F2F4F3F4F87
:1010E000003B11052105310508F007C62091D90301
:1010F000022F220F110B220B330B0617170728079D
:1011000039070CF0FAC5CE0101960E94C119162FBD
:1011100085E190E00E941C211093D80369EB71E0F7
:1011200082EE93E00E94851D85E190E00E943821C7
:10113000082E000C990B0E94742C0E94B6220E946B
:101140002722CE0101960E94A61CCE0142960E9443
:10115000A61C67EA73E0CE0101960E94031DBE0142
:101160006F5F7F4F83EA94E00E94D11A8C01CE0119
:1011700001960E94A61C17FD60C06CE172E0CE01D2
:1011800001960E94151DBE016F5F7F4F83EA94E0B8
:101190000E94C71A4AE0BC01CE0148960E94D71CA3
:1011A000CE0148960E94C119AB014F5F5F4F63EAC1
:1011B00074E0CE0142960E949510CE0148960E949E
:1011C000A61CCE0101960E94A61CBE016E5E7F4F3A
:1011D000CE0101960E940C1DCE0101960E94C119FC
:1011E0006D3371058105910508F09DC5CE0101960D
:1011F0000E94C119162F8FE090E00E941C21612FE0
:1012000070E07093DC036093DB0367EC71E082EEC7
:1012100093E00E94851D8FE090E00E9438210E949B
:10122000A72C0E94B6220E942722CE0101960E947E
:10123000A61CCE0142960E94A61C69E973E0CE016D
:1012400001960E94031DBE016F5F7F4F83EA94E009
:101250000E94D11A8C01CE0101960E94A61C17FD96
:1012600060C06CE172E0CE0101960E94151DBE01C6
:101270006F5F7F4F83EA94E00E94C71A4AE0BC0187
:10128000CE0148960E94D71CCE0148960E94C119F3
:10129000AB014F5F5F4F63EA74E0CE0142960E945C
:1012A0009510CE0148960E94A61CCE0101960E9480
:1012B000A61CBE016E5E7F4FCE0101960E940C1DE2
:1012C000CE0101960E94C119DC01CB010197A10951
:1012D000B109CC97A105B10508F03AC5CE01019638
:1012E0000E94C119162F82E190E00E941C211093E8
:1012F000DA0369ED71E082EE93E00E94851D82E1E0
:1013000090E00E9438210E94A72C0E94B6220E94E1
:101310002722CE0101960E94A61CCE0142960E9471
:10132000A61C6FE873E0CE0101960E94031DBE016A
:101330006F5F7F4F83EA94E00E94D11A8C01CE0147
:1013400001960E94A61C17FD1AC06FEF80E090E086
:101350000E941C210E94EF266FEF83E690E00E941E
:101360001C210E9470296FEF81E390E00E941C21F4
:101370000E94D6290E942722E0E0F0E0099564E867
:1013800073E0CE0101960E94031DBE016F5F7F4F87
:1013900083EA94E00E94D11A8C01CE0101960E944A
:1013A000A61C17FD0CC06FEF83E690E00E941C2185
:1013B0000E9470290E942722E0E0F0E0099568E78A
:1013C00073E0CE0101960E94031DBE016F5F7F4F47
:1013D00083EA94E00E94D11A8C01CE0101960E940A
:1013E000A61C17FD0CC06FEF80E090E00E941C214E
:1013F0000E94EF260E942722E0E0F0E009956CE6CB
:1014000073E0CE0101960E94031DBE016F5F7F4F06
:1014100083EA94E00E94D11A8C01CE0101960E94C9
:10142000A61C17FD75C06AE573E085E894E00E948C
:101430002F1C67E573E0CE0101960E94031DBE01DB
:101440006F5F7F4F83EA94E00E94D11A8C01CE0136
:1014500001960E94A61C17FD06C081E08093EA0158
:1014600065E573E019C062E573E0CE0101960E9464
:10147000031DBE016F5F7F4F83EA94E00E94D11A83
:101480008C01CE0101960E94A61C17FD0CC082E0C3
:101490008093EA0160E573E082EE93E00E94851D8F
:1014A00067E272E00AC01092EA016EE473E082EE35
:1014B00093E00E94851D69E272E085E894E00E9455
:1014C000A61B6091EA0183E190E00E941C218091BB
:1014D000B1028130E9F463E272E0CE0101960E942C
:1014E000151D67E974E0CE0101960E941C1CBC0129
:1014F000CE0142960E940C1DCE0142960E943A21D6
:10150000CE0142960E94A61CCE0101960E94A61C06
:1015100060E473E0CE0101960E94031DBE016F5F7F
:101520007F4F83EA94E00E94D11A8C01CE0101968C
:101530000E94A61C17FD0FC063EA74E0CE0101965D
:101540000E940C1D62E0CE0101960E94BA22CE01DB
:1015500001960E94A61C65E373E0CE0101960E94ED
:10156000031DBE016F5F7F4F83EA94E00E94D11A92
:101570008C01CE0101960E94A61C17FD04C00E949A
:10158000EF260E94D6296DE273E0CE0101960E94FB
:10159000031DBE016F5F7F4F83EA94E00E94D11A62
:1015A0008C01CE0101960E94A61C17FD84C00E94EA
:1015B000BF2F2DEF30E040E050E00E94043482E085
:1015C000D82ED60E62E172E082EE93E00E94851D75
:1015D0004AE060E074E080E090E00E94092C60E165
:1015E00072E082EE93E00E94E61D00E010E06D2DB7
:1015F000C8010E94F63365E070E080E090E00E9450
:10160000B61F0F5F1F4F0115F4E01F0781F7E12C94
:10161000F12C00E010E0C8010E9438218D1529F15D
:1016200062E072E082EE93E00E94851DC8010E9494
:101630003821C82E4AE0B801CE0101960E94AB1CA9
:1016400061E974E0CE0101960E941C1C6C2D0E9481
:101650000E1CBC0182EE93E00E94D41DCE010196C7
:101660000E94A61C8FEFE81AF80A65E070E080E09F
:1016700090E00E94B61F0F5F1F4F0115E4E01E07A8
:1016800051F66CEF71E082EE93E00E94851DE1144B
:10169000F10409F073C364EF71E082EE93E00E94FD
:1016A000E61D0E94B62264EF71E080E090E00E94A7
:1016B000B61FF701099563E273E0CE0101960E941F
:1016C000031DBE016F5F7F4F83EA94E00E94D11A31
:1016D0008C01CE0101960E94A61C17FF0E9457287C
:1016E0006CE173E0CE0101960E94031DBE016F5FA5
:1016F0007F4F83EA94E00E94D11A8C01CE010196BB
:101700000E94A61C17FD09C064EF71E080E090E024
:101710000E94B61FE0E0F0E0099564E173E0CE01BD
:1017200001960E94031DBE016F5F7F4F83EA94E024
:101730000E94D11A8C01CE0101960E94A61C17FDB1
:10174000A6C06CE172E0CE0142960E94151DBE015A
:101750006E5E7F4F83EA94E00E94C71A4AE0BC01A4
:10176000CE0148960E94D71CCE0148960E94C1190E
:10177000AB014F5F5F4F63EA74E0CE0101960E94B8
:101780009510CE0148960E94A61CCE0142960E945A
:10179000A61CCE0101960E94C1196B30710581050E
:1017A000910508F0F2C2CE0101960E94C119162FD0
:1017B00063E672E082EE93E00E94851D8091E00373
:1017C000082E000C990B0E94742C612F89E190E087
:1017D0000E941C211093E00366E572E082EE93E024
:1017E0000E94851DC090E0030C2C000CDD08EE0863
:1017F000FF08F7FE0EC06DE282EE93E00E94701DBE
:1018000066277727CB016C197D098E099F094AE06D
:1018100003C04AE0C701B6010E94092C6CE472E0E3
:1018200082EE93E00E94851D111116C060E472E003
:1018300082EE93E00E94E61D68E372E082EE93E0A0
:101840000E94E61D64EF71E080E090E00E94B61F08
:10185000E0E0F0E0099515C0113019F461E372E0A1
:101860000CC0123019F468E272E007C0133019F4AA
:1018700064E272E002C06BE172E082EE93E00E94EB
:10188000E61D0E94B622CE0101960E94A61C10926F
:10189000B2026FE073E0CE0101960E94031DBE010B
:1018A0006F5F7F4F83EA94E00E94D11A8C01CE01D2
:1018B00001960E94A61C17FD9EC00E94DB0E69EFD8
:1018C00072E085E894E00E942F1C6091AD02709157
:1018D000AE028091AF029091B0020E94DB2CC090CA
:1018E000AD02D090AE02E090AF02F090B00220E0E6
:1018F00030E04CE552ECC701B6010E94CA3287FDC8
:101900000AC020E030E04AEF52E4C701B6010E946D
:101910003A35181634F46AEE72E085E894E00E94D5
:101920001D1B63EE72E085E894E00E941D1B809110
:10193000D903082E000C990B0E941B2D6BED72E051
:1019400085E894E00E941D1B8091D803082E000CAE
:10195000990B0E941B2D6AEC72E085E894E00E94CE
:101960001D1B8091DA03082E000C990B0E941B2D81
:1019700065EC72E085E894E00E941D1B63EC72E068
:1019800085E894E00E941D1B4091830450918404DB
:1019900060917F047091800485E894E00E944D1B63
:1019A0008091B1028130E9F463E272E0CE010196E8
:1019B0000E94151D67E974E0CE0101960E941C1C6F
:1019C000BC01CE0142960E940C1DCE0142960E949F
:1019D0003A21CE0142960E94A61CCE0101960E9499
:1019E000A61C8091B302813031F465E874E082EE88
:1019F00093E00E94D41D6DEB72E0CE0101960E942F
:101A0000031DBE016F5F7F4F83EA94E00E94D11AED
:101A10008C01CE0101960E94A61C17FD18C0809172
:101A2000B302813011F48093E40261E772E08DEB40
:101A300094E00E94851D69EA74E08DEB94E00E94B9
:101A4000771D6CE272E08DEB94E00E94C21D63EBA7
:101A500072E0CE0101960E94031DBE016F5F7F4FB1
:101A600083EA94E00E94D11A8C01CE0101960E9473
:101A7000A61C17FD12C08091AC02811108C0809194
:101A8000B3020E94532281E08093AC0206C0809191
:101A9000B3020E9443221092AC026CEA72E0CE01C3
:101AA00001960E94031DBE016F5F7F4F83EA94E0A1
:101AB0000E94D11A8C01CE0101960E94A61C17FD2E
:101AC0001BC063E372E0CE0101960E94151DBE01AA
:101AD0006F5F7F4F83EA94E00E94D11A8C01CE01A0
:101AE00001960E94A61C8091B30217FD03C00E94BC
:101AF0003A2A02C00E94C72A66EA72E0CE01019625
:101B00000E94031DBE016F5F7F4F83EA94E00E9435
:101B1000D11A8C01CE0101960E94A61C17FD22C08D
:101B200063E372E0CE0101960E94151DBE016F5F56
:101B30007F4F83EA94E00E94D11A8C01CE01019676
:101B40000E94A61C17FD04C081E08093DF0302C041
:101B50001092DF036091DF038CE090E00E941C2173
:101B60000E94662561EA72E0CE0101960E94031D83
:101B7000BE016F5F7F4F83EA94E00E94D11A8C010F
:101B8000CE0101960E94A61C17FD20C063E372E0FF
:101B9000CE0101960E94151DBE016F5F7F4F83EA43
:101BA00094E00E94D11A8C01CE0101960E94A61CDD
:101BB00017FD04C081E08093EB0102C01092EB019D
:101BC0006091EB018DE090E00E941C2168E972E0D9
:101BD000CE0101960E94031DBE016F5F7F4F83EA15
:101BE00094E00E94D11A8C01CE0101960E94A61C9D
:101BF00017FD23C06FE872E08DEB94E00E94851D15
:101C00008091E003813031F46BE872E08DEB94E079
:101C10000E94E61D8091E0038250823030F469E832
:101C200072E08DEB94E00E94E61D6DE772E082EEBB
:101C300093E00E94E61D0E9427221092B1021092AA
:101C4000B302AA960FB6F894DEBF0FBECDBFDF91E8
:101C5000CF911F910F91FF90EF90DF90CF9008955B
:101C60008091D7031F8E1E8E19A218A21BA21AA242
:101C70004AE0BE016F5F7F4F90E00E943A30BE01A4
:101C80006F5F7F4FCE014E960E94781CBE01625E50
:101C90007F4FCE0142960E94B51BCE014E960E9408
:101CA000A61CAFC86091DD037091DE034AE0CE014F
:101CB00048960E94AB1CBE01685E7F4FCE01019624
:101CC0000E94B51BCE0148960E94A61C0FC96091C8
:101CD000D903062E000C770B4AE0CE0148960E94ED
:101CE000D71CBE01685E7F4FCE0101960E94B51BD6
:101CF000CE0148960E94A61C80C96091D803062E8A
:101D0000000C770B4AE0CE0148960E94D71CBE011A
:101D1000685E7F4FCE0101960E94B51BCE014896AA
:101D20000E94A61CF0C96091DB037091DC034AE0BD
:101D3000CE0148960E94AB1CBE01685E7F4FCE016B
:101D400001960E94B51BCE0148960E94A61C4ECA61
:101D50006091DA03062E000C770B4AE0CE0148961C
:101D60000E94D71CBE01685E7F4FCE0101960E9483
:101D7000B51BCE0148960E94A61CB0CA6CEE71E05D
:101D800082EE93E00E94E61D96CC6091E003062E61
:101D9000000C770B4AE0CE0142960E94D71CBE0190
:101DA0006E5E7F4FCE0101960E94B51BCE0142961A
:101DB0000E94A61CF8CC8F929F92AF92BF92CF92B6
:101DC000DF92EF92FF920F931F93CF93DF93CDB7E4
:101DD000DEB729970FB6F894DEBF0FBECDBF1092C5
:101DE000BA041092BC041092BB042AEBC22E24E069
:101DF000D22EF601129284E0E23BF807D9F70E9456
:101E0000512B811113C01092BA041092BC0410928D
:101E1000BB0468E075E082EE93E00E94E61D10923C
:101E2000BA041092BC041092BB0452C080EF0E940E
:101E3000BA2B01E0F12CE12C11E00E94E42B898700
:101E40000E94E42B9985913019F48130C1F435C09A
:101E50002F2D30E098131DC08091BA04181738F464
:101E6000F901E155FB4F8381802349F402C0181723
:101E700031F090E0193060F41093BB0409C0EF2DED
:101E8000F0E0E155FB4F8381802B838391E009C013
:101E9000E12EF901E155FB4F2381802F80958223AC
:101EA0008383892F0E94882B1F5F000F11F4F39406
:101EB00001E0E7E0EF1508F0C0CF113408F4A3CF3C
:101EC000E092BA04E1100FC081E08093BC040BC023
:101ED000F60112926F01F2EBCF16F4E0DF06C1F7C4
:101EE000109201010FC18091B204882309F48BCFB5
:101EF000A2EBB4E0FE013196CE0109962D9121931B
:101F0000E817F907D9F70E94512B8CEC0E94BA2BE5
:101F100084E40E94BA2B68EE73E080E090E00E94B7
:101F2000B61F0E94512B8CEC0E94BA2B8EEB0E94A4
:101F3000BA2B88E0E82EF12C01E010E00E94E42B9F
:101F40008111102B000F81E0E81AF108B9F798E031
:101F5000E92EF12CDD24D39400E00E94E42B8111C2
:101F60000D29DD0CE1E0EE1AF108B9F7612F70E000
:101F7000702B072E000C880B990B0E94D13220E0A9
:101F800030E040E85DE30E9430336093AD0270932F
:101F9000AE028093AF029093B0026AEF74E082EEDB
:101FA00093E00E94851DC090AD02D090AE02E090FB
:101FB000AF02F090B002A7019601C701B6010E94DE
:101FC0003F35882319F061E372E01AC046015701DA
:101FD000E894B7F82FEF3FEF4FE75FE7C501B40193
:101FE0000E943F35811111C02FEF3FEF4FE75FE7B0
:101FF000C501B4010E94CA3218163CF465E372E0D0
:1020000082EE93E00E94A91D76C02FEF3FEF4FE7CD
:102010005FE4C701B6010E943A3518161CF469E363
:1020200072E0EECF2FEF3FEF4FE75FECC701B60155
:102030000E94CA3287FDF3CF20E030E0A901C7013A
:10204000B6010E94CA3287FF09C06DE282EE93E0BA
:102050000E94701DF7FAF094F7F8F0942AE037ED3B
:1020600043EA5BE3C701B6010E949F344B015C0168
:102070000E940B356B017C010E94CF329B01AC01A9
:10208000C501B4010E949E344B015C014AE0C701C6
:10209000B6010E94092C6EE282EE93E00E94701D50
:1020A00020E030E040E251E4C501B4010E94303349
:1020B0004B015C010E940B356B01E12CF12C4AE0D5
:1020C000C701B6010E94092CC701B6010E94CF3298
:1020D0009B01AC01C501B4010E949E3420E030E0B8
:1020E00040E251E40E9430330E940B3580E090E0E2
:1020F0004AE00E94092C82EE93E00E94BE1D81E01E
:102100008093010129960FB6F894DEBF0FBECDBFB4
:10211000DF91CF911F910F91FF90EF90DF90CF90C3
:10212000BF90AF909F908F900895CF93DF93EC0175
:10213000FB01248135810E942A1DCE01DF91CF91C0
:1021400008958F929F92AF92BF92CF92DF92EF92BB
:10215000FF920F931F93CF93DF93CDB7DEB76F97A7
:102160000FB6F894DEBF0FBECDBF8091EA0181307B
:1021700031F480910201813009F081C003C08230C6
:1021800009F07DC0EDE1F5E08491E4E0F8E0F49041
:10219000E0EFF7E014911123A1F081110E94511F8B
:1021A000E12FF0E0EE0FFF1FE152F84FA591B4913F
:1021B000EC91EF2131E020E009F430E0832F922F01
:1021C00002C080E090E08093B402892B39F58091C1
:1021D0000001811123C081E08093000164E670E07A
:1021E00080E090E00E94B61F63E174E085E894E02F
:1021F0000E942F1C8091C30281110AC00E94F01F0F
:102200006093BF027093C0028093C1029093C20298
:1022100081E08093C30282E08093BE028091B40289
:102220008130E9F4809100018130C9F41092C30239
:102230001092000164E670E080E090E00E94B61F1A
:102240008091BD02813059F46DEF73E085E894E030
:102250000E942F1C82E00E9490211092BD0280916A
:10226000B402813061F480910001823041F4109217
:10227000000164E670E080E090E00E94B61F0E94DA
:10228000F01F6B017C01A090DB03B090DC03A11474
:10229000B104E9F18091B5029091B602A091B70224
:1022A000B091B802A7019601281B390B4A0B5B0BB2
:1022B000CA01B90128EE33E040E050E00E946D34DD
:1022C0006CE36A9DC0016B9D900D1124A0E0B0E00D
:1022D00082179307A407B507D0F4C092B502D09235
:1022E000B602E092B702F092B8028091AC0281117E
:1022F00008C08091B3020E94532281E08093AC0217
:1023000006C08091B3020E9443221092AC020E9448
:10231000F01F6B017C011091DA038091B90290915A
:10232000BA02A091BB02B091BC02A7019601281B82
:10233000390B4A0B5B0BCA01B90128EE33E040E0D0
:1023400050E00E946D346CE31602C0011124092E86
:10235000000CAA0BBB0B82179307A407B50750F418
:10236000C092B902D092BA02E092BB02F092BC02D3
:102370000E94DB0E8091C3028130C9F50E94F01FDC
:102380001091D703C090BF02D090C002E090C1026C
:10239000F090C2026C197D098E099F0928EE33E086
:1023A00040E050E00E946D34ECE31E9FC001112418
:1023B000092E000CAA0BBB0B82179307A407B507C5
:1023C000B0F4112359F0612F85E894E00E947B1B43
:1023D0006EE274E085E894E00E941D1B8091BE02CD
:1023E0000E94902181E08093BD021092C3020E945E
:1023F000F01F6B017C0180910101811129C060E017
:102400008CE00E94501E60E08AE00E94501E60E056
:102410008BE00E94501E8091C503811133C183E07F
:102420008093C5036BE874E0CE0101960E940C1DF9
:1024300062E674E0CE0101960E94001CBC0185E8B2
:1024400094E00E948F1CCE0101960E94A61CD5C06C
:102450008090AD029090AE02A090AF02B090B0021A
:102460006091D803062E000C770B880B990B0E9405
:10247000D1329B01AC01C501B4010E943A35181656
:102480000CF04AC061E08BE00E94501E61E08CE0DD
:102490000E94501E80910201813011F460E029C039
:1024A0008091C7029091C802A091C902B091CA025E
:1024B000A7019601281B390B4A0B5B0BDA01C901F6
:1024C000883B9B40A105B105B8F0C092C702D092ED
:1024D000C802E092C902F092CA028091C60281113C
:1024E00004C081E08093C60202C01092C6026091CF
:1024F000C6028AE00E94501E8091C5038111C2C0AD
:1025000081E08093C5036BE874E0CE0101960E94E0
:102510000C1D6EE474E05AC08091D903682F880FB7
:10252000770B880B990B0E94D1329B01AC01C5013E
:10253000B4010E94CA3261E087FF63C08CE00E9450
:10254000501E61E08AE00E94501E8091020181309D
:1025500011F460E029C08091C7029091C802A09157
:10256000C902B091CA02A7019601281B390B4A0B78
:102570005B0BDA01C901883B9B40A105B105B8F0AE
:10258000C092C702D092C802E092C902F092CA0279
:102590008091C502811104C081E08093C50202C010
:1025A0001092C5026091C5028BE00E94501E80917E
:1025B000C503811167C082E08093C5036BE874E0B6
:1025C000CE0101960E940C1D6BE374E0CE010196D2
:1025D0000E94001CBC0185E894E00E948F1CCE0183
:1025E00001960E94A61C6091AD027091AE0280918E
:1025F000AF029091B0020E94DB2C81E00E949021FA
:1026000041C08BE00E94501E61E08AE00E94501E93
:1026100080910201813041F48091EB01813011F40D
:1026200060E02BC061E029C08091C7029091C80290
:10263000A091C902B091CA02A7019601281B390BCB
:102640004A0B5B0BDA01C901883B9B40A105B10530
:10265000B8F0C092C702D092C802E092C902F092CC
:10266000CA028091C402811104C081E08093C40237
:1026700002C01092C4026091C4028CE00E94501EFD
:102680001092C5038091D202813011F40E94A722DA
:102690008091E502813009F058C0E091CF0217E146
:1026A0001E9FF0011124ED5FFE4F858996894496A7
:1026B0000E943821813009F048C00E94F01F6093C9
:1026C000CB027093CC028093CD029093CE0268E847
:1026D00073E180E090E00E94B61F64E874E082EE4F
:1026E00093E00E94851DE091CF021E9FF00111240E
:1026F000ED5FFE4F67EE72E0858996890E94F620B5
:10270000BC0182EE93E00E94C21D6FE774E08DEB86
:1027100094E00E94851DE091CF021E9FF0011124DC
:10272000ED5FFE4F67EE72E0858996890E94F62084
:10273000BC018DEB94E00E94A91D6DE774E08DEB68
:1027400094E00E94E61D1092E5021091E60211301D
:1027500041F50E94F01FC090CB02D090CC02E090D7
:10276000CD02F090CE026C197D098E099F0928EEEA
:1027700033E040E050E00E946D348091DD039091A1
:10278000DE03A0E0B0E082179307A407B50748F482
:102790001093D2028091CF028F5F8093CF0210936B
:1027A000E5028091CF028B3040F4809102018111CB
:1027B0000DC08091E602813049F41092E60281E07A
:1027C0008093D2021092CF021092E5028DEB94E03A
:1027D0000E94121F892B09F411C48DEB94E00E9412
:1027E000121F892B79F08DEB94E00E942A1F8093B1
:1027F000E1030E94062D6AE070E080E090E00E9414
:10280000B61FEBCF8091E003823011F412E001C0DB
:1028100011E065EF74E0CE0101960E94031DBE0138
:102820006F5F7F4F83EA94E00E94D11A7C01CE0152
:1028300001960E94A61CF7FCF8C063EF74E0CE017D
:1028400043960E94031DBE016D5E7F4F83EA94E0B4
:102850000E94D11A4AE0BC01CE0149960E94D71CC1
:10286000CE0149960E94C1196B017C0163E472E0BC
:10287000CE0101960E94151DBE016F5F7F4F83EA56
:1028800094E00E94D11A4AE0BC01CE010D960E944C
:10289000D71CCE010D960E94C11996012150310915
:1028A000412F50E0460F571F63EA74E0CE010796B0
:1028B0000E942A1DCE010D960E94A61CCE010196F3
:1028C0000E94A61CCE0149960E94A61CCE014396EA
:1028D0000E94A61C66EE74E082EE93E00E94851DC5
:1028E000BE01695F7F4F82EE93E00E94D41DBE015E
:1028F000695F7F4FCE010D960E940C1D67EE72E05E
:1029000080911801909119010E94F620BC01CE011E
:1029100001960E94151D8D819E81892B41F0E981D0
:10292000FA8111E08081882319F010E001C011E0E4
:10293000CE0101960E94A61C112309F44AC063ED42
:1029400072E0CE010D960E94BA2C63ED72E0809188
:102950001801909119010E94C22080911801909154
:10296000190161E043960E941C2180911801909109
:10297000190161E044960E941C21809118019091F8
:10298000190161E045960E941C21809118019091E7
:10299000190161E046960E941C2162E974E082EE12
:1029A00093E00E94851DBE01635F7F4F82EE93E03E
:1029B0000E94D41D0E94B6220E9427220E94A722B4
:1029C00068EE73E080E090E00E94B61FE0E0F0E087
:1029D0000995CE010D960E94A61CBE01695F7F4F2E
:1029E000CE0101960E940C1DCE0101960E94632229
:1029F000182FCE0101960E94A61C113079F40E9476
:102A0000A72280910201813021F480E00E94C72A30
:102A100007C0811105C00E943A2A02C00E94A72265
:102A2000CE0107960E94A61CD9C260EE74E0CE01CA
:102A300001960E94031DBE016F5F7F4F83EA94E001
:102A40000E94D11A7C01CE0101960E94A61CF7FCBF
:102A500009C163EA74E082EE93E00E94D41D809184
:102A6000E0038D7F813009F057C06DED74E0CE0139
:102A70000D960E94031DBE01635F7F4F83EA94E0C1
:102A80000E94D11A4AE0BC01CE0143960E94D71C95
:102A9000CE0143960E94C1196B017C016DE372E087
:102AA000CE0101960E94151DBE016F5F7F4F83EA24
:102AB00094E00E94D11A4AE0BC01CE0107960E9420
:102AC000D71CCE0107960E94C119960121503109E9
:102AD000AB01485F5F4F63EA74E0CE0149960E9404
:102AE0002A1DBE01675E7F4F8DE994E00E94B51BF1
:102AF000CE0149960E94A61CCE0107960E94A61CF4
:102B0000CE0101960E94A61CCE0143960E94A61CEF
:102B1000CE010D960E94A61C8091E003823009F040
:102B200057C06AED74E0CE010D960E94031DBE01F0
:102B3000635F7F4F83EA94E00E94D11A4AE0BC01B0
:102B4000CE0143960E94D71CCE0143960E94C11924
:102B50006B017C016DE372E0CE0101960E94151DB0
:102B6000BE016F5F7F4F83EA94E00E94D11A4AE072
:102B7000BC01CE0107960E94D71CCE0107960E9489
:102B8000C119960121503109AB01485F5F4F63EADB
:102B900074E0CE0149960E942A1DBE01675E7F4FF8
:102BA0008DE994E00E94B51BCE0149960E94A61CB7
:102BB000CE0107960E94A61CCE0101960E94A61C7B
:102BC000CE0143960E94A61CCE010D960E94A61C23
:102BD0006EEC74E082EE93E00E94851D6DE974E076
:102BE00082EE93E00E94D41D6DE974E0CE0101965F
:102BF0000E940C1DCE0101960E946322182FCE0167
:102C000001960E94A61C113009F0E8C16DE974E03C
:102C1000CE0107960E940C1D67EE72E080911801AC
:102C2000909119010E94F620BC01CE0101960E94EC
:102C3000151DBE01695F7F4FCE0101960E94EB1A00
:102C4000F82ECE0101960E94A61CCE0107960E9486
:102C5000A61CF1101093B20281E08093B1020E9491
:102C60003504BCC167EC74E0CE0101960E94031DDF
:102C7000BE016F5F7F4F83EA94E00E94D11A7C010E
:102C8000CE0101960E94A61CF7FCAFC06AEB74E06F
:102C900082EE93E00E94851D63EA74E082EE93E089
:102CA0000E94D41D63E472E0CE0101960E94151DBE
:102CB000BE016F5F7F4F83EA94E00E94D11A7C01CE
:102CC000CE0101960E94A61CF7FC82C063E472E06C
:102CD000CE010D960E94151DBE01635F7F4F83EAF2
:102CE00094E00E94D11A4AE0BC01CE0143960E94B2
:102CF000D71CCE0143960E94C1192091E90130E012
:102D00008901060F171F63E472E0CE0101960E944D
:102D1000151DBE016F5F7F4F83EA94E00E94D11AB8
:102D20004AE0BC01CE0107960E94D71CCE0107964F
:102D30000E94C119AB014F5F5F4F980163EA74E0D5
:102D4000CE0149960E942A1DBE01675E7F4F85E82D
:102D500094E00E94B51BCE0149960E94A61CCE01AC
:102D600007960E94A61CCE0101960E94A61CCE01C9
:102D700043960E94A61CCE010D960E94A61C80912F
:102D8000E40281111DC063E272E0CE0101960E944F
:102D9000151D67E974E0CE0101960E941C1CBC0160
:102DA000CE0107960E940C1DCE0107960E943A2183
:102DB000CE0107960E94A61CCE0101960E94A61C79
:102DC0001092E40268EE73E080E090E00E94B61F8B
:102DD00060EB74E08DEB94E00E94E61D68EC70E01F
:102DE00080E090E00E94B61FF9C069EA74E0CE016D
:102DF00001960E94031DBE016F5F7F4F83EA94E03E
:102E00000E94D11A7C01CE0101960E94A61CF7FCFB
:102E100059C063EA74E082EE93E00E94D41D65E439
:102E200072E0CE0101960E94151DBE016F5F7F4FBB
:102E300083EA94E00E94D11A7C01CE0101960E949F
:102E4000A61CF7FCCBC068E472E0CE0101960E949C
:102E5000151DBE016F5F7F4F83EA94E00E94D11A77
:102E60004AE0BC01CE0107960E94D71CCE0107960E
:102E70000E94C119AB014F5F5F4F63EA74E0CE015E
:102E80000D960E949510CE010D960E94C119609377
:102E9000D102CE010D966F8F0E94A61CCE0107961F
:102EA0000E94A61CCE0101960E94A61C6F8D862F43
:102EB0000E94A72C8091D102813009F48FC00E941A
:102EC0000B228CC063EA74E0CE0101960E94031DC0
:102ED000BE016F5F7F4F83EA94E00E94D11A7C01AC
:102EE000CE0101960E94A61CF7FC78C063EA74E04C
:102EF00082EE93E00E94D41D65E472E0CE0101965B
:102F00000E94151DBE016F5F7F4F83EA94E00E940F
:102F1000D11A7C01CE0101960E94A61CF7FC5EC06E
:102F200068E472E0CE010D960E94151DBE01635F3C
:102F30007F4F83EA94E00E94D11A4AE0BC01CE019F
:102F400043960E94D71CCE0143960E94C1196B0183
:102F50007C0165E472E0CE0101960E94151DBE0160
:102F60006F5F7F4F83EA94E00E94D11A4AE0BC0170
:102F7000CE0107960E94D71CCE0107960E94C11968
:102F8000AB014E5F5F4F960163EA74E0CE01499654
:102F90000E942A1DCE0149960E94C1196093D00259
:102FA000CE0149966F8F0E94A61CCE0107960E9403
:102FB000A61CCE0101960E94A61CCE0143960E943B
:102FC000A61CCE010D960E94A61C6F8D862F0E9416
:102FD000A72C8091D002833609F471CF8091DF0352
:102FE000813031F463EA74E082EE93E00E94D41DF4
:102FF0006CE472E083EA94E00E94781C82EE93E035
:103000000E94A018892B61F182EE93E00E94A01823
:10301000892B79F082EE93E00E947E188093E10381
:103020000E94062D64E170E080E090E00E94B61FEF
:10303000EBCF8091DF03813031F463EA74E08DEBF4
:1030400094E00E94D41D81E08093B2028093B30289
:103050000E9435046CE472E083EA94E00E94781CDC
:103060006F960FB6F894DEBF0FBECDBFDF91CF9144
:103070001F910F91FF90EF90DF90CF90BF90AF9096
:103080009F908F9008950895CF92DF92EF92FF92D4
:103090000F931F93CF93DF936C017A018B01C0E0F4
:1030A000D0E0CE15DF0589F0D8016D918D01D601F4
:1030B000ED91FC910190F081E02DC6010995892BDD
:1030C00011F47E0102C02196ECCFC701DF91CF91B0
:1030D0001F910F91FF90EF90DF90CF900895FC012A
:1030E000538D448D252F30E0842F90E0821B930B6D
:1030F000541710F0CF96089501970895FC01918D13
:10310000828D981761F0828DDF01A80FB11D5D9649
:103110008C91928D9F5F9F73928F90E008958FEFB7
:103120009FEF0895FC01918D828D981731F0828D6B
:10313000E80FF11D858D90E008958FEF9FEF0895C2
:10314000FC01918D228D892F90E0805C9F4F821B26
:1031500091098F739927089582EE93E00E94A01839
:1031600021E0892B09F420E0822F0895FC01848D51
:10317000DF01A80FB11DA35ABF4F2C91848D90E0A1
:1031800001968F739927848FA689B7892C93A0897C
:10319000B1898C9180648C93938D848D981306C033
:1031A0000288F389E02D80818F7D80830895EF92DE
:1031B000FF920F931F93CF93DF93EC0181E0888FF1
:1031C0009B8D8C8D981305C0E889F989808185FDD8
:1031D00024C0F62E0B8D10E00F5F1F4F0F731127C9
:1031E000E02E8C8DE8120CC00FB607FCFACFE889F0
:1031F000F989808185FFF5CFCE010E94B618F1CF05
:103200008B8DFE01E80FF11DE35AFF4FF0820B8F0B
:10321000EA89FB898081806207C0EE89FF8960832B
:10322000E889F98980818064808381E090E0DF9182
:10323000CF911F910F91FF90EF900895CF93DF935F
:10324000EC01888D8823C9F0EA89FB89808185FD9E
:1032500005C0A889B9898C9186FD0FC00FB607FCFF
:10326000F5CF808185FFF2CFA889B9898C9185FF40
:10327000EDCFCE010E94B618E7CFDF91CF91089530
:1032800080E090E0892B29F00E94AC1881110C9409
:10329000000008950E946937AF92BF92CF92DF92EB
:1032A000EF92FF920F931F93CF93DF937B018A01DD
:1032B000FB01448155814115510561F1FC012481D7
:1032C00035812115310531F12417350718F1021721
:1032D000130718F0890101501109FC01A080B18089
:1032E000C501DFEFCFEF6501C00ED11EC816D906AC
:1032F000A0F0F701608171810E94B037009769F0FA
:103300009C012A193B090217130710F0D22FC32F73
:103310000196ECCF8FEF9FEF02C08D2F9C2FDF9196
:10332000CF911F910F91FF90EF90DF90CF90BF90C2
:10333000AF9008950F931F93CF93DF93EC01888193
:103340009981009729F02A813B812617370788F455
:103350008B016F5F7F4F0E949F36009761F09983CA
:1033600088831B830A832C813D81232B11F4FC016C
:10337000108281E001C080E0DF91CF911F910F9119
:103380000895FC0180819181009711F00C94CD2F5C
:1033900060E070E0CB0108952F923F924F925F92D0
:1033A0006F927F928F929F92AF92BF92CF92DF9255
:1033B000EF92FF920F931F93CF93DF93FC01448012
:1033C00055804114510409F4CFC0FB01648075801D
:1033D0006114710409F4C8C07A016B01EC01FA01AF
:1033E000A480B580A618B70808811981A114B1047A
:1033F000C1F4F60160817181C8010E94B037EC010F
:10340000892B09F4B1C0F701608171814481558134
:10341000CE010E947637F701048115810C0F1D1F24
:10342000E8CFB7FE02C0480106C0FB012080318012
:103430004201C80142C0F60160817181C4010E944D
:10344000B0372C01892B19F1320168187908A301D2
:10345000B401C8010E947637060D171DF70160817F
:10346000718144815581C8010E947637F7018481BA
:103470009581080F191FF60184809580840C951C96
:103480008C819D818A0D9B1D9D838C83D4CFB4013B
:10349000C801DF91CF911F910F91FF90EF90DF90C6
:1034A000CF90BF90AF909F908F907F906F905F90E4
:1034B0004F903F902F900C949A37B1010E94B037F3
:1034C000009729F0860D971D8A0C9B1CF6CF84145B
:1034D000950409F449C08A819B818815990560F497
:1034E000B4016F5F7F4FC8010E949F360097E1F1E2
:1034F000998388839B828A824C815D8141505109E6
:1035000057FD32C0B601CE010E944C198C0197FDC7
:103510002BC088819981F60124813581200F311FCC
:10352000820F931F4C815D81421B530BBC018A0D9E
:103530009B1D0E947F378C819D818A0D9B1D9D83E1
:103540008C8328813981F901E80FF91F1082888165
:103550009981F7016081718144815581800F911FAC
:103560000E947637A801CACFDF91CF911F910F91AA
:10357000FF90EF90DF90CF90BF90AF909F908F9093
:103580007F906F905F904F903F902F900895FC0137
:1035900044815581FB0124813581421B530B0C94DE
:1035A0004C19CF93DF93FC0124813581232B71F0DB
:1035B000FB01DC01CD91DC9160817181CE010E9423
:1035C000B037009719F08C1B9D0B02C08FEF9FEF57
:1035D000DF91CF910895FC0124813581FB01448165
:1035E00055812417350721F5FC0180819181FB016C
:1035F00060817181009719F061157105A1F4611561
:10360000710549F0232BB1F0FB01808190E0919589
:10361000819591090AC0009769F0232B59F0FC01AC
:10362000808190E002C00E94913721E0892B19F03F
:1036300020E001C021E0822F0895EF92FF920F93C6
:103640001F93CF93DF936115710511F480E01EC0C5
:103650008B01EC01CB010E94FB2F0097B1F02C8174
:103660003D817C01E20EF31EB701CE010E949A1942
:10367000882361F3288139818C819D81B801820F73
:10368000931F0E94F42FFD82EC8281E0DF91CF91A5
:103690001F910F91FF90EF900895EF92FF920F937B
:1036A0001F93CF93DF93FC01248135816115710550
:1036B00011F480E019C041155105A9F07B01EC011E
:1036C0008A01020F131FB8010E949A19882389F3F7
:1036D000288139818C819D81B701820F931F0E94BF
:1036E0009A371D830C8381E0DF91CF911F910F9159
:1036F000FF90EF900895EF92FF920F931F93CF9357
:10370000DF9300D000D0CDB7DEB77C01862F4AE032
:103710008E010F5F1F4FB80190E00E940F30F8013B
:1037200001900020E9F73197AF01401B510BB80120
:10373000C7010E944D1B0F900F900F900F90DF91CB
:10374000CF911F910F91FF90EF9008956115710532
:1037500051F0FB0101900020E9F73197AF01461BC2
:10376000570B0C944D1B80E008950F931F93CF933C
:10377000DF938C01EB01FC01808191810097B1F016
:10378000688179816115710579F0428153812C81BD
:103790003D814217530740F00E949A378C819D81EA
:1037A000F8019583848313C00E940736888199812C
:1037B000F801918380838A819B81938382838C81AA
:1037C0009D8195838483198218821B821A821D82AF
:1037D0001C82DF91CF911F910F910895CF93DF93BA
:1037E000EC0188819981009711F00E9407361982B7
:1037F00018821D821C821B821A82DF91CF9108954C
:10380000CF93DF93EC010E941D1B811103C0CE01F9
:103810000E94EE1BCE01DF91CF910895CF93DF93ED
:10382000EC010E947B1B811103C0CE010E94EE1BA4
:10383000CE01DF91CF910895CF93DF93EC01FB018F
:1038400044815581608171810E944D1B811103C0AB
:10385000CE010E94EE1BCE01DF91CF910895EF9231
:10386000FF920F931F93CF93DF93EC018B016115B0
:10387000710551F0CB010E94FB2F7C01BC01CE01F0
:103880000E949A19811104C0CE010E94EE1B07C04C
:10389000FD82EC82B801888199810E94F42FCE01CB
:1038A000DF91CF911F910F91FF90EF900895EF92CC
:1038B000FF920F931F93CF93DF93EC017B018A015B
:1038C000BA010E949A19811104C0CE010E94EE1B18
:1038D00007C01D830C83B701888199810E949A37A4
:1038E000CE01DF91CF911F910F91FF90EF9008953E
:1038F000CF93DF93EC016115710559F0FB01019045
:103900000020E9F73197AF01461B570B0E94571C67
:1039100002C00E94EE1BCE01DF91CF910895CF939C
:10392000DF93EC01FB018617970761F060817181DD
:103930006115710529F0448155810E94571C02C010
:103940000E94EE1BCE01DF91CF910895FC01808192
:1039500091810C9407360F931F93CF93DF93CDB7CC
:10396000DEB761970FB6F894DEBF0FBECDBF8C01F6
:10397000CB01F80111821082138212821582148207
:1039800050E0BE016F5F7F4F0E942F30BE016F5F1E
:103990007F4FC8010E94781C61960FB6F894DEBF75
:1039A0000FBECDBFDF91CF911F910F9108950F935F
:1039B0001F93CF93DF93CDB7DEB762970FB6F8941E
:1039C000DEBF0FBECDBF8C01CB01F801118210828A
:1039D000138212821582148250E0BE016F5F7F4F06
:1039E0000E940430BE016F5F7F4FC8010E94781CA7
:1039F00062960FB6F894DEBF0FBECDBFDF91CF91B8
:103A00001F910F910895FC0111821082138212827E
:103A1000158214820C942F1CFC01118210821382D7
:103A20001282158214820C948F1CFC011182108268
:103A300013821282158214826115710551F0FB0107
:103A400001900020E9F73197AF01461B570B0C940A
:103A5000571C0895BF92CF92DF92EF92FF920F937F
:103A60001F93CF93DF937C016B018A01E901241737
:103A7000350720F4812F8901C42FD82F6CE472E020
:103A8000C7010E94151DD60114968D919C91159722
:103A900008171907D0F48C179D0708F4EC01D6011C
:103AA000ED91FC911197EC0FFD1FB08010824D91AC
:103AB0005C91BA01600F711FC7010E94781CD6018A
:103AC000ED91FC91EC0FFD1FB082C701DF91CF910A
:103AD0001F910F91FF90EF90DF90CF90BF900895CE
:103AE000DC01ED91FC910190F081E02D0994DC0165
:103AF000ED91FC91DB0114964D915C9115976D91C0
:103B00007C910280F381E02D0994EF92FF920F9354
:103B10001F93CF93DF938C017B01C0E0D0E0F701CE
:103B2000EC0FFD1F6491662361F0D801ED91FC91CB
:103B30000190F081E02DC8010995892B11F02196A3
:103B4000EECFCE01DF91CF911F910F91FF90EF90BB
:103B500008956115710579F0FB0101900020E9F7E6
:103B60003197AF01461B570BDC01ED91FC910280B0
:103B7000F381E02D099480E090E008956AE472E01A
:103B80000C94A91D0F931F93CF93DF93EC010E9418
:103B9000A91D8C01CE010E94BE1D800F911FDF91D7
:103BA000CF911F910F9108950F931F93CF93DF93A0
:103BB000EC010E94771D8C01CE010E94BE1D800F7A
:103BC000911FDF91CF911F910F9108950F931F9334
:103BD000CF93DF93EC010E94851D8C01CE010E94E2
:103BE000BE1D800F911FDF91CF911F910F910895FE
:103BF0001F920F920FB60F9211242F933F934F9362
:103C00005F936F937F938F939F93AF93BF93EF9344
:103C1000FF9382EE93E00E94B618FF91EF91BF915F
:103C2000AF919F918F917F916F915F914F913F9154
:103C30002F910F900FBE0F901F9018951F920F920B
:103C40000FB60F9211242F938F939F93EF93FF93AF
:103C5000E091F203F091F3038081E091F803F09199
:103C6000F90382FD12C090818091FB038F5F8F73F7
:103C70002091FC03821751F0E091FB03F0E0EE513C
:103C8000FC4F958F8093FB0301C08081FF91EF91E2
:103C90009F918F912F910F900FBE0F901F901895AD
:103CA0001F93CF93DF93282F30E0F901EA5EFA4F9C
:103CB0008491F901E350F84FD491F901E751F84F9D
:103CC000C491CC23C9F0162F81110E94511FEC2FF3
:103CD000F0E0EE0FFF1FEB52F84FA591B4918FB7B4
:103CE000F894111105C09C91ED2FE095E92302C0D5
:103CF000EC91ED2BEC938FBFDF91CF911F91089545
:103D00003FB7F8948091C1039091C203A091C3037F
:103D1000B091C40326B5A89B05C02F3F19F00196AA
:103D2000A11DB11D3FBFBA2FA92F982F8827820F41
:103D3000911DA11DB11DBC01CD0142E0660F771F91
:103D4000881F991F4A95D1F708952091FA02309162
:103D5000FB022817390771F49091F9028091F8025B
:103D6000981741F0E091F902F0E0E450FD4F8081B6
:103D700090E008958FEF9FEF089508951F93CF93DC
:103D8000DF93DC015C962D913C915D972115310507
:103D900039F481E090E013969C938E9312973DC086
:103DA0005196ED91FC91529750969C915097892F86
:103DB00080951FB75E964C915E9741FB772770F90F
:103DC00041FD6095F8944081772311F0492B01C0A3
:103DD00048234083E9012197F1F748E0508160FFD3
:103DE00002C0592B01C058235083E9012197F1F7F4
:103DF0006695415099F7772321F09081892380833C
:103E000003C08081982B90831FBF5C968D919C91FD
:103E10005D970197F1F721E030E0C901DF91CF9183
:103E20001F9108952091FA023091FB02281739075B
:103E300071F48091F8022091F90290E080549F4F34
:103E4000821B910960EC70E00E944435089580E087
:103E500090E008952091FA023091FB02281739076B
:103E6000C9F49091F9028091F802981799F0E091C5
:103E7000F902F0E0E450FD4F20818091F90290E0DA
:103E8000019660EC70E00E9444358093F902822F25
:103E900090E008958FEF9FEF0895089580E090E0FF
:103EA0000895833081F028F4813099F08230A1F0B8
:103EB00008958730A9F08830B9F08430D1F480912A
:103EC00080008F7D03C0809180008F778093800079
:103ED000089584B58F7702C084B58F7D84BD089521
:103EE0008091B0008F7703C08091B0008F7D809368
:103EF000B0000895CF93DF9390E0FC01E350F84FBA
:103F00002491FC01E751F84F8491882361F190E0FE
:103F1000880F991FFC01E653FA4FC591D491FC011B
:103F2000EB52F84FA591B491611109C09FB7F89475
:103F30008881209582238883EC912E230BC06230E8
:103F400061F49FB7F8943881822F8095832388830A
:103F5000EC912E2B2C939FBF06C08FB7F894E8816D
:103F60002E2B28838FBFDF91CF9108958F929F9240
:103F7000AF92BF92CF92DF92EF92FF926B017C01E2
:103F80000E94801E4B015C01C114D104E104F104C4
:103F9000F1F00E94801EDC01CB0188199909AA0961
:103FA000BB09883E9340A105B10570F321E0C21A18
:103FB000D108E108F10888EE880E83E0981EA11C64
:103FC000B11CC114D104E104F10419F7DDCFFF9055
:103FD000EF90DF90CF90BF90AF909F908F9008951B
:103FE0002FB7F8946091BD037091BE038091BF0319
:103FF0009091C0032FBF08951F920F920FB60F929A
:1040000011242F933F938F939F93AF93BF938091EE
:10401000BD039091BE03A091BF03B091C003309146
:10402000BC0323E0230F2D3720F40196A11DB11D01
:1040300005C026E8230F0296A11DB11D2093BC03E5
:104040008093BD039093BE03A093BF03B093C003BE
:104050008091C1039091C203A091C303B091C403A6
:104060000196A11DB11D8093C1039093C203A0933B
:10407000C303B093C403BF91AF919F918F913F91C0
:104080002F910F900FBE0F901F9018951F920F92B7
:104090000FB60F9211242F933F934F935F936F931B
:1040A0007F938F939F93AF93BF93EF93FF93E09191
:1040B000FA02F091FB02309709F453C0968DA68561
:1040C000B785858591FF04C09C91892329F449C057
:1040D0009C91892309F045C0A389B4899C91858965
:1040E000809589238C93868997890197F1F7608D54
:1040F000718DA685B785558538E020E0CB01019705
:10410000F1F7822F90E095958795282F4C914523C4
:1041100009F02068315091F7868D81FD20958091BE
:10412000F80290E0019660EC70E00E9444359091B6
:10413000F902981749F0A091F802B0E0A450BD4FE1
:104140002C938093F80203C0868D8160868F828DC8
:10415000938D0197F1F7A389B4899C918589892B67
:104160008C93FF91EF91BF91AF919F918F917F9130
:104170006F915F914F913F912F910F900FBE0F90D4
:104180001F901895AF92BF92CF92DF92EF92FF925D
:104190000F931F93CF93DF931F92CDB7DEB75C01D0
:1041A0007B018B016C0181E1C80ED11CF80161918A
:1041B0008F01C50169830E94EE336981681719F088
:1041C000C5010E94F633FFEFAF1ABF0AAC14BD045D
:1041D00069F7C7010F90DF91CF911F910F91FF9069
:1041E000EF90DF90CF90BF90AF900895CF92DF9285
:1041F000EF92FF920F931F93CF93DF93EB017B011D
:1042000021E1E20EF11C8B016C01C61AD70AC6012E
:10421000800F911F0E94EE33F80181938F01EE15FC
:10422000FF05A9F7CE01DF91CF911F910F91FF906C
:10423000EF90DF90CF9008950F931F93CF93DF936C
:104240001F92CDB7DEB78C0169830E94EE3369817E
:10425000681741F0C8010F90DF91CF911F910F9126
:104260000C94F6330F90DF91CF911F910F91089529
:104270000C94EE33CF93DF93EC0168EE73E080E0B3
:1042800090E00E94B61F60EC75E08DEB94E00E9418
:10429000851DBE018DEB94E00E94771D6EEB75E0ED
:1042A0008DEB94E00E94E61D64EF71E080E090E009
:1042B0000E94B61F65E874E08DEB94E00E94771DC4
:1042C00064EF71E080E090E00E94B61F6AE18DEB40
:1042D00094E00E94701D64EF71E080E090E00E9425
:1042E000B61F6DE472E082EE93E00E94A91DBE014C
:1042F00082EE93E00E94771D61E974E082EE93E024
:104300000E94771D65E874E082EE93E00E94D41D60
:1043100068E873E180E090E0DF91CF910C94B61FE4
:10432000CF92DF92EF92FF920F931F93CF93DF9381
:10433000CDB7DEB762970FB6F894DEBF0FBECDBF24
:1043400090910201913009F057C0182F83E0E82EB8
:1043500081E0F82E0AE0113031F4F701C588D688E3
:10436000C601439607C01230D9F5F701C588D68833
:10437000C60145960E943821813091F567EE72E0C2
:10438000C6010E94F620BC01CE0107960E94151DB1
:1043900063E272E0CE0101960E94151DBE01695FC5
:1043A0007F4FCE0101960E941C1CBC01CE010D96D0
:1043B0000E940C1DCE010D960E943A21CE010D9651
:1043C0000E94A61CCE0101960E94A61CCE01079653
:1043D0000E94A61C68EE73E080E090E00E94B61F89
:1043E0000150F7E1EF0EF11C0111B5CF113021F4AE
:1043F0001093E6021093E50262960FB6F894DEBFC2
:104400000FBECDBFDF91CF911F910F91FF90EF9025
:10441000DF90CF90089560E086E00E94501E64EF28
:1044200071E080E090E00E94B61F61E086E00E94AB
:10443000501E60E177E280E090E00E94B61F62EBE0
:1044400075E082EE93E00E94E61D0C94662561E023
:104450008BE00E94501E64E670E080E090E00E94D5
:10446000B61F60E08BE00E94501E64E670E080E0C2
:1044700090E00E94B61F61E08BE00C94501E0E94F9
:1044800027220C942722813011F48093E40264E502
:1044900072E08DEB94E00E94C21D68EE73E080E054
:1044A00090E00C94B61F813011F48093E4026DE526
:1044B00072E08DEB94E00E94C21D68EE73E080E034
:1044C00090E00C94B61FCF92DF92FF920F931F9350
:1044D000CF93DF9300D000D000D0CDB7DEB76C0112
:1044E00003E011E067EE72E0F801858996890E9489
:1044F000F620BC01CE0101960E94151DB601CE0129
:1045000001960E94EB1AF82ECE0101960E94A61C7D
:10451000FF2041F0B60187E994E00E948F1CFF2440
:10452000F39406C0095E1F4FF1E0093E1F07D1F664
:104530008F2D26960FB6F894DEBF0FBECDBFDF914C
:10454000CF911F910F91FF90DF90CF90089560ED74
:1045500077E080E090E00E94B61F64E375E08DEBA9
:1045600094E00E94E61D1092D202089582EE93E03C
:104570000C94BE1D8F929F92AF92BF92CF92DF920A
:10458000EF92FF920F931F93CF93DF93CDB7DEB7D8
:104590006E970FB6F894DEBF0FBECDBF7C01162F0D
:1045A0006CE172E0CE0101960E94151DBE016F5FA5
:1045B0007F4FC7010E94C71A4AE0BC01CE0107968F
:1045C0000E94D71CCE0107960E94C119AB014F5F14
:1045D0005F4FB701CE0143960E949510CE0107961A
:1045E0000E94A61CCE0101960E94A61C64E672E001
:1045F000CE0101960E94151DBE016F5F7F4FCE0157
:1046000043960E94D11AD92ECE0101960E94A61C73
:10461000D094DD1CDD24DD1C66E672E0CE0101963F
:104620000E94151DBE016F5F7F4FCE0143960E9411
:10463000D11AC92ECE0101960E94A61CC094CC1C92
:10464000CC24CC1C68E672E0CE0101960E94151DB8
:10465000BE016F5F7F4FCE0143960E94D11AE92EB3
:10466000CE0101960E94A61CE094EE1CEE24EE1CE6
:104670006AE672E0CE0101960E94151DBE016F5FD1
:104680007F4FCE0143960E94D11AF92ECE0101969A
:104690000E94A61CF094FF1CFF24FF1C6CE472E037
:1046A000CE0107960E94151D64E672E0CE010196C8
:1046B0000E94151DAE01495F5F4FBE016F5F7F4FC6
:1046C000CE0143960E94CC19CE0101960E94A61CF1
:1046D000CE0107960E94A61C6CE472E0CE010796FC
:1046E0000E94151D66E672E0CE0101960E94151D1E
:1046F000AE01495F5F4FBE016F5F7F4FCE014396B2
:104700000E94CC19CE0101960E94A61CCE010796EC
:104710000E94A61C6CE472E0CE0107960E94151D53
:1047200068E672E0CE0101960E94151DAE01495F58
:104730005F4FBE016F5F7F4FCE0143960E94CC1941
:10474000CE0101960E94A61CCE0107960E94A61CCF
:104750006CE472E0CE0107960E94151D6AE672E0D5
:10476000CE0101960E94151DAE01495F5F4FBE014B
:104770006F5F7F4FCE0143960E94CC19CE01019608
:104780000E94A61CCE0107960E94A61C6CE472E053
:10479000CE0107960E94151D6EE172E0CE010196D2
:1047A0000E94151DAE01495F5F4FBE016F5F7F4FD5
:1047B000CE0143960E94CC19CE0101960E94A61C00
:1047C000CE0107960E94A61C63E272E0CE0101961C
:1047D0000E94151DBE016F5F7F4FCE0143960E9460
:1047E000D11A4AE0BC01CE0107960E94D71CCE0127
:1047F00007960E94C1199B0140E050E0BE016D5E2A
:104800007F4FCE010D960E942A1DCE0107960E9471
:10481000A61CCE0101960E94A61C63E272E0CE01A6
:1048200001960E94151DBE016F5F7F4FCE0143961A
:104830000E94C71A4AE0BC01CE0149960E94D71CCB
:10484000CE0149960E94C119AB014F5F5F4FBE0177
:104850006D5E7F4FCE0107960E949510CE0149965E
:104860000E94A61CCE0101960E94A61C113009F0E0
:10487000C6C0CE010D960E94C119062FBE01695F08
:104880007F4FCE0149960E940C1D67EE72E0809129
:104890001801909119010E94F620BC01CE010196E9
:1048A0000E94151D8D819E81892B39F0E981FA8145
:1048B0008081882319F010E001C011E0CE0101963B
:1048C0000E94A61C112361F06FE775E082EE93E071
:1048D0000E94E61D0E94B6220E943F2280E001C095
:1048E00081E09EEF900F9A3058F06CE675E082EE12
:1048F00093E00E94E61D0E94B6220E943F227AC0E9
:10490000813009F077C0015083E0882E81E0982E35
:10491000AA24A394B12C67EE72E0F40185899689EC
:104920000E94F620BC01CE0101960E94151DBE0119
:10493000675E7F4FCE0101960E94EB1A182FCE01C1
:1049400001960E94A61C112391F069E475E082EEA5
:1049500093E00E94851DC5010E94742C0E94B6221E
:104960008FEF8A0D801719F0F12CE12CD12CF7E193
:104970008F0E911C8FEFA81AB80AEBE0AE16B104A7
:1049800051F663ED72E0CE0149960E94BA2CF7E130
:104990000F9F800111240D5F1E4F63ED72E0F8013F
:1049A000858996890E94C220F801858996896D2D96
:1049B00043960E941C21F801858996896C2D4496A6
:1049C0000E941C21F801858996896E2D45960E94CA
:1049D0001C21F801858996896F2D46960E941C211D
:1049E0006CE375E082EE93E00E94E61D0E94B62221
:1049F0000E942722CE0149960E94A61C2CC012308C
:104A000051F580911801909119016D2D43960E94E6
:104A10001C2180911801909119016C2D44960E94DF
:104A20001C2180911801909119016E2D45960E94CC
:104A30001C2180911801909119016F2D46960E94BA
:104A40001C216AE975E082EE93E00E94E61D0E9457
:104A5000B6220E942722CE0107960E94A61CCE01F4
:104A60000D960E94A61CCE0143960E94A61C6E962F
:104A70000FB6F894DEBF0FBECDBFDF91CF911F916F
:104A80000F91FF90EF90DF90CF90BF90AF909F90ED
:104A90008F9008958091E402813031F469EE75E0E1
:104AA0008FE794E00C941D1B62EF75E08FE794E0B4
:104AB0000E941D1B40919B0450919C04609197049F
:104AC000709198048FE794E00C944D1B0F931F9303
:104AD000CF93DF9300D000D000D0CDB7DEB760ED2C
:104AE00077E080E090E00E94B61F0E944C2C10926C
:104AF000D8041092D7041092D6041092D5041092C4
:104B0000D4041092D3048DE991E09093DA04809359
:104B1000D9049091C904963108F057C02DEB30E0CC
:104B20003093D4042093D3042BE931E03093D6049E
:104B30002093D5042CE231E03093D8042093D7049D
:104B400020916800983050F031E09E3008F430E059
:104B500081E001C0880F3A95EAF701C084E0822B1A
:104B600080936800983038F09E3040F0963148F0DD
:104B700020E030E008C02DE630E005C02BE630E054
:104B800002C02CE630E03093D1042093D00498305A
:104B900030F481E001C0880F9A95EAF70EC0292F02
:104BA00030E09E3018F42850310902C02E503109EF
:104BB00081E001C0880F2A95EAF78093D2048091A2
:104BC000D9049091DA040197F1F78091D70490917C
:104BD000D804892B49F1E091FA02F091FB0284E0BC
:104BE000ED3BF80709F1309739F0A389B4899C911E
:104BF0008589809589238C938091DB048E7F8093B7
:104C0000DB041092F8021092F9028DEB94E090937D
:104C1000FB028093FA02E091D004F091D1049081DC
:104C20008091D204892B80831AE062ED77E08DEBCE
:104C300094E00E94E61D68EC70E080E090E00E9445
:104C4000B61F115091F76EEC77E08DEB94E00E9467
:104C5000E61D6AE070E080E090E00E94B61F8DEBF8
:104C600094E00E94121F892B09F471C08DEB94E02F
:104C70000E94121F892B79F08DEB94E00E942A1F6D
:104C80008093E1030E94062D64E170E080E090E0F3
:104C90000E94B61FEBCF8091E003811152C069ECF6
:104CA00077E0CE0101960E94031DBE016F5F7F4F2A
:104CB00083EA94E00E94D11A8C01CE0101960E94F1
:104CC000A61C17FD03C081E08093E00362EC77E04F
:104CD000CE0101960E94031DBE016F5F7F4F83EAE4
:104CE00094E00E94D11A8C01CE0101960E94A61C6C
:104CF00017FD03C082E08093E0036FEB77E0CE0105
:104D000001960E94031DBE016F5F7F4F83EA94E00E
:104D10000E94D11A8C01CE0101960E94A61C17FD9B
:104D200003C083E08093E0036CEA77E082EE93E0D7
:104D30000E94851D8091E003082E000C990B0E94B3
:104D4000742C6CE472E083EA94E00E94781C62EABE
:104D500077E08DEB94E00E94E61D64E670E080E071
:104D600090E00E94B61F68E977E08DEB94E00E9426
:104D7000E61D64E670E080E090E00E94B61F6AE8FD
:104D800077E08DEB94E00E94E61D64E670E080E041
:104D900090E00E94B61F6EE777E08DEB94E00E94F2
:104DA000E61D64E670E080E090E00E94B61F80910E
:104DB000DF03813019F469E777E002C064E777E048
:104DC0008DEB94E00E94E61D26960FB6F894DEBFA8
:104DD0000FBECDBFDF91CF911F910F910895CF935B
:104DE000DF9380E090E00E943821813009F45AC0BE
:104DF00068E577E082EE93E00E94E61DC0E0D0E037
:104E00006FEFCE010E941C216AE070E080E090E02C
:104E10000E94B61F2196CE31D10591F768E377E065
:104E200082EE93E00E94E61D0E94B62260E08CE0D4
:104E300090E00E941C2161E08DE090E00E941C2126
:104E400061E08EE090E00E941C2160E08FE090E045
:104E50000E941C216AE082E190E00E941C2161E036
:104E600083E190E00E941C216AE084E190E00E94CE
:104E70001C2166E485E190E00E941C2160E087E14E
:104E800090E00E941C2168E288E190E00E941C21D1
:104E900060E089E190E00E941C2161E080E090E008
:104EA0000E941C2180E090E00E943821813009F0AE
:104EB000FBC065E277E082EE93E00E94E61D0E946F
:104EC000B62288E190E00E94382190E09093DE03C2
:104ED0008093DD036AE177E082EE93E00E94851D16
:104EE0006091DD037091DE0380E090E04AE00E9473
:104EF000092C82EE93E00E94BE1D8CE090E00E949F
:104F000038218093DF0363E177E082EE93E00E9433
:104F1000851D8091DF03082E000C990B0E94742CD4
:104F20008DE090E00E9438218093EB016DE077E006
:104F300082EE93E00E94851D8091EB01082E000C0B
:104F4000990B0E94742C8EE090E00E94382180938F
:104F5000020165E077E082EE93E00E94851D80917A
:104F60000201082E000C990B0E94742C8FE090E037
:104F70000E94382190E09093DC038093DB0366EF7E
:104F800076E082EE93E00E94851D6091DB037091D4
:104F9000DC0380E090E04AE00E94092C82EE93E07E
:104FA0000E94BE1D82E190E00E9438218093DA03C6
:104FB00066EE76E082EE93E00E94851D8091DA0332
:104FC000082E000C990B0E94742C84E190E00E9442
:104FD00038218093D9036CED76E082EE93E00E9455
:104FE000851D8091D903082E000C990B0E94742C0A
:104FF00085E190E00E9438218093D80361ED76E04E
:1050000082EE93E00E94851D8091D803082E000C4B
:10501000990B0E94742C83E190E00E9438218093C8
:10502000EA0187E190E00E9438218093D70366EC83
:1050300076E082EE93E00E94E61D6EEB76E082EE73
:1050400093E00E94851D8091EA01082E000C990BC7
:105050000E94742C66EB76E082EE93E00E94851D40
:105060008091D7030E94A72C89E190E00E9438210B
:105070008093E0036CEA76E082EE93E00E94851D67
:105080008091E003811107C061EA76E082EE93E04F
:105090000E94E61D05C0082E000C990B0E94742C7E
:1050A000DF91CF910C94B622DF91CF910895AF920A
:1050B000BF92CF92DF92EF92FF920F931F93CF9305
:1050C000DF9300D000D000D0CDB7DEB76FE876E038
:1050D00082EE93E00E94E61D6BE876E082EE93E0BC
:1050E0000E94851D61E974E0CE0101960E940C1DAD
:1050F00065E876E0CE0101960E94001CBC0182EEBC
:1051000093E00E94771DCE0101960E94A61C61E9E2
:1051100074E0CE0101960E940C1D63E876E0CE019A
:1051200001960E94001CBC0182EE93E00E94771D54
:10513000CE0101960E94A61C61E974E0CE010196A1
:105140000E940C1D61E876E0CE0101960E94001CD1
:10515000BC0182EE93E00E94771DCE0101960E9471
:10516000A61C61E974E0CE0101960E940C1D6FE758
:1051700076E0CE0101960E94001CBC0182EE93E015
:105180000E94771DCE0101960E94A61C61E974E081
:10519000CE0101960E940C1D6DE776E0CE010196CE
:1051A0000E94001CBC0182EE93E00E94D41DCE013F
:1051B00001960E94A61C03E011E0E12CF12C67EEA1
:1051C00072E0F801858996890E94F620F8018589A8
:1051D000968943960E943821B82EFFEFEF1AFF0AF6
:1051E0004AE0B701CE0101960E94D71C61E974E044
:1051F000CE0101960E941C1C6C01E7EEF2E00190CA
:105200000020E9F73197AF01475E524067EE72E048
:105210000E944D1B882309F45FC061E974E0C60158
:105220000E941C1C6B2D0E940E1CBC0182EE93E0A0
:105230000E94771DCE0101960E94A61CF801C58828
:10524000D688C60146960E943821B82EC6014596DA
:105250000E943821A82EC60144960E943821D82EDB
:1052600061E974E0CE0101960E940C1D6D2DCE0106
:1052700001960E940E1C61E974E00E941C1C6A2DBC
:105280000E940E1C61E974E00E941C1C6B2D0E94A0
:105290000E1CBC0182EE93E00E94D41DCE0101964B
:1052A0000E94A61C095E1F4FFAE0EF16F10409F0F8
:1052B00086CF0E94B62226960FB6F894DEBF0FBEA8
:1052C000CDBFDF91CF911F910F91FF90EF90DF90B5
:1052D000CF90BF90AF900895C6010E94EE1B9DCF66
:1052E000CF93DF9383E690E00E943821813009F468
:1052F00050C068E676E082EE93E00E94E61DC4E6C8
:10530000D0E06FEFCE010E941C216AE070E080E0E7
:1053100090E00E94B61F2196C03981E0D80789F736
:105320006FE476E082EE93E00E94E61D0E94B622D2
:10533000C7E1D1E0BE016451710989819A810E945F
:10534000C220FE01339789819A81608143960E9431
:105350001C21FE01329789819A81608144960E94C6
:105360001C21FE01319789819A81608145960E94B6
:105370001C2189819A81688146960E941C2167962A
:1053800081E0CD3FD807B1F661E083E690E00E946E
:105390001C2183E690E00E943821813021F4DF91C6
:1053A000CF910C945728DF91CF91089581E390E03D
:1053B0000E943821813071F16AE376E082EE93E059
:1053C0000E94E61D6FE176E082EE93E00E94E61D0A
:1053D0000E94B6226CE672E089EA94E00E94781C92
:1053E00086E18093E90166EC73E089EA94E00E942B
:1053F000BA2C66EC73E08EE190E00E94C2206091CE
:10540000E90180E390E00E941C2161E081E390E0EB
:105410000E941C2181E390E00E943821813049F5EF
:1054200066EC73E08EE190E00E94F620BC0189EA10
:1054300094E00E94781C80E390E00E9438218093E1
:10544000E9016EE076E082EE93E00E94851D69EA54
:1054500074E082EE93E00E94D41D6BEF75E082EE63
:1054600093E00E94851D8091E9010E94A72C0C9475
:10547000B62208950F931F93CF93DF93CDB7DEB776
:1054800062970FB6F894DEBF0FBECDBF182F81E034
:10549000809302011092C50361E08EE090E00E94CB
:1054A0001C216FED75E08FE794E00E942F1C1130F6
:1054B00011F41093E4020E944A256FE774E082EE33
:1054C00093E00E94D41D6FE774E085E894E00E94A9
:1054D0008F1C68EE73E080E090E00E94B61F03E04E
:1054E00011E0F8018589968946960E94382181301D
:1054F000D1F568EE73E080E090E00E94B61F67EEA1
:1055000072E0F801858996890E94F620BC01CE01DF
:1055100007960E94151D63E272E0CE0101960E947B
:10552000151DBE01695F7F4FCE0101960E941C1CB4
:10553000BC01CE010D960E940C1DCE010D960E945D
:105540003A21CE010D960E94A61CCE0101960E9422
:10555000A61CCE0107960E94A61C68EE73E080E0B0
:1055600090E00E94B61F095E1F4FF1E0093E1F0741
:1055700009F0B7CF1092E40262960FB6F894DEBF3E
:105580000FBECDBFDF91CF911F910F9108950F9363
:105590001F93CF93DF93CDB7DEB762970FB6F89422
:1055A000DEBF0FBECDBF182F1092020160E08EE06B
:1055B00090E00E941C2164ED75E08FE794E00E946A
:1055C0002F1C113011F41093E4020E944A256FE75A
:1055D00074E082EE93E00E94D41D6FE774E085E8EA
:1055E00094E00E948F1C68EE73E080E090E00E94DF
:1055F000B61F03E011E0F8018589968946960E945E
:1056000038218130D1F568EE73E080E090E00E94AF
:10561000B61F67EE72E0F801858996890E94F62030
:10562000BC01CE0107960E94151D63E272E0CE0117
:1056300001960E94151DBE01695F7F4FCE01019644
:105640000E941C1CBC01CE010D960E940C1DCE01B7
:105650000D960E943A21CE010D960E94A61CCE0105
:1056600001960E94A61CCE0107960E94A61C68EE19
:1056700073E080E090E00E94B61F095E1F4FF1E0EA
:10568000093E1F0709F0B7CF1092E40262960FB6E9
:10569000F894DEBF0FBECDBFDF91CF911F910F9168
:1056A00008959091AF04E091B004F091B104F894A2
:1056B0008181292F20958223818378948DE743E08F
:1056C00050E0815021F1DA011197F1F7308139234F
:1056D000C1F3F8948281822382838181892B818323
:1056E0007894ABE7B7E01197F1F7F894818128231C
:1056F0002183A3E1B1E01197F1F78081982381E044
:1057000009F080E07894E3E6F6E03197F1F7089548
:105710009091AF04E091B004F091B104392F30952D
:1057200080FF13C0F8942281832F8223828381819A
:10573000892B8183A3E2B0E01197F1F78281982B46
:105740009283789487ED90E012C0F8942281832FA1
:10575000822382838181892B8183AFEFB0E011970F
:10576000F1F78281982B928378948FE090E00197F3
:10577000F1F708950F931F93CF93DF93082FC8E09D
:10578000D0E011E081E0912F902309F480E00E94A5
:10579000882B110F2197B1F7F894E091B004F091A4
:1057A000B10491818091AF04809598239183E09119
:1057B000B004F091B1049281892382837894DF91BF
:1057C000CF911F910F9108958091AF04E091B004A3
:1057D000F091B104F8949181982B91832281982FB4
:1057E000909529232283A7E0B0E01197F1F721815A
:1057F00092239183A3E2B0E01197F1F7908178941E
:10580000EFECF0E03197F1F7982381E009F480E0C4
:1058100008958F929F92AF92BF920F931F93CF9351
:10582000DF93CDB7DEB7A1970FB6F894DEBF0FBEFA
:10583000CDBF19A2423008F44AE08E010F5D1F4F20
:10584000842E912CA12CB12CA50194010E946D34C1
:10585000E62FB901CA0101501109EA3014F4E05DE4
:1058600001C0E95CD801EC93232B242B252B61F795
:10587000B80182EE93E00E94A91DA1960FB6F8949C
:10588000DEBF0FBECDBFDF91CF911F910F91BF90B3
:10589000AF909F908F900895E2EEF3E0A089B189D8
:1058A00082E08C93A485B5851C92A685B7858FEC84
:1058B0008C93108EA489B58986E08C93A289B389D4
:1058C0008C9180618C93A289B3898C9188608C9330
:1058D000A289B3898C9180688C930288F389E02D2A
:1058E00080818F7D80830895CF92DF92EF92FF9227
:1058F000CF93DF936C01990FEE08FF08F7FE14C0F9
:105900006DE282EE93E00E94701DEC01662777271E
:10591000CB016C197D098E099F094AE00E94092C70
:105920007C01EC0EFD1E06C04AE0C701B6010E94D4
:10593000092C7C0182EE93E00E94BE1D8E0D9F1DFE
:10594000DF91CF91FF90EF90DF90CF900895CF93AC
:10595000DF93682F70E080E090E04AE00E94092C1D
:10596000EC0182EE93E00E94BE1D8C0F9D1FDF9123
:10597000CF9108950F931F93CF93DF93FC01C481C0
:10598000D581209719F4FB01108210C0C031D105D8
:1059900010F0C0E1D0E08B01FC0160817181AE01AB
:1059A000C8010E94A137C00FD11F1882DF91CF918B
:1059B0001F910F9108950F931F93CF93DF93CDB74E
:1059C000DEB764970FB6F894DEBF0FBECDBF8E0171
:1059D0000F5F1F4F22E044E00E94512FFC01019015
:1059E0000020E9F73197AF01481B590BBC0185E84E
:1059F00094E00E944D1B64960FB6F894DEBF0FBE74
:105A0000CDBFDF91CF911F910F910895CF93DF9379
:105A100000D0CDB7DEB789831A8241E050E0BE01E5
:105A20006F5F7F4F83EA94E00E944D1B0F900F90B1
:105A3000DF91CF9108950F931F93CF93DF93CDB74D
:105A4000DEB728970FB6F894DEBF0FBECDBF4AE091
:105A50008E010F5F1F4FB8010E940F30F8010190B7
:105A60000020E9F73197AF01401B510BB80185E8E1
:105A700094E00E944D1B28960FB6F894DEBF0FBE2F
:105A8000CDBFDF91CF911F910F910895789484B588
:105A9000826084BD84B5816084BD85B5826085BD2A
:105AA00085B5816085BD80916E00816080936E00B8
:105AB00010928100809181008260809381008091AA
:105AC000810081608093810080918000816080935B
:105AD00080008091B10084608093B1008091B0001B
