:100000000C940E040C9436040C9436040C94752154
:100010000C9475210C9475210C9436040C943604C0
:100020000C9436040C9436040C9436040C94360468
:100030000C9436040C9436040C9436040C94360458
:100040000C942B210C9436040C941E200C94F81F55
:100050000C9436040C9436040C9436040C94360438
:100060000C9436040C94360400407A10F35A00A025
:10007000724E18090010A5D4E80000E87648170071
:1000800000E40B54020000CA9A3B000000E1F505B1
:10009000000080969800000040420F000000A086FB
:1000A00001000000102700000000E803000000002D
:1000B0006400000000000A000000000001000000D1
:1000C00000002C76D888DC674F0823DFC1DFAE59EB
:1000D000E1B1B796E5E3E453C63AE651997696E87E
:1000E000E6C28426EB898C9B62ED407C6FFCEFBC02
:1000F0009C9F40F2BAA56FA5F490055A2AF75C932D
:100100006B6CF9676DC11BFCE0E40D47FEF520E662
:10011000B500D0ED902E0300943577050080841E45
:10012000080000204E0A000000C80C333333330FA0
:10013000986E12831141EF8D2114893BE65516CF3D
:10014000FEE6DB18D1844B381BF77C1D901DA4BB49
:10015000E424203284725E228100C9F124ECA1E5FE
:100160003D274572726F722064656C6574696E67B5
:100170002070686F6E653A202B0044656C6574656D
:100180002070686F6E653A202B0057617463685069
:100190006F77657254696D652069733A2000526902
:1001A0006E6754696D652069733A20004C6F77540F
:1001B000656D702069733A20004869676854656D01
:1001C000702069733A20004E6574436865636B5410
:1001D000696D652069733A200054656D70436865E8
:1001E000636B54696D652069733A20006661696CC0
:1001F00065642E007061737365642E0054657374BA
:1002000020004661696C65642063656C6C3A20006F
:100210004200454550524F4D3A20004E6F742075B4
:1002200073652E0041362E0053494D3830304C2E28
:10023000004D353930652E005265626F6F742E00A7
:100240004175746F6465746563742E002E204D6F64
:1002500064656D3A200043757272656E742049447E
:100260003A200050726576696F75732049443A20D0
:100270000041542B435553443D312C2200534D53E0
:100280002072656D6F766564003400302C34004157
:10029000542B434D47443D007265626F6F746D6F20
:1002A00064656D00636C656172736D73006C656489
:1002B0006F00746573746F0067756172646F006EB0
:1002C0006574737461747573006D6F6E6579000A7F
:1002D00000206D696E000A54656D70436865636B3C
:1002E00054696D653A20000A486967683A20000A37
:1002F0004C6F773A20000A53656E736F72206572F7
:10030000726F72210043757272656E742074656D30
:1003100070657261747572653A2000696E666F006F
:100320006D6F64656D6964007265626F6F74006CF7
:1003300069737470686F6E65006D656D7465737454
:10034000006C697374636F6E6669670065646974D5
:100350006D61696E70686F6E6500330032006E32D9
:100360000031006E31005761746368207468652045
:10037000706F776572204F007761746368706F7774
:1003800065726F007265736574636F6E666967008E
:10039000726573657470686F6E650066756C6C72FB
:1003A000657365740074656D70636865636B74690B
:1003B0006D65006E6574636865636B74696D650077
:1003C0006869676874656D70006C6F7774656D70CF
:1003D0000072696E6774696D650077617463687037
:1003E0006F77657274696D650062616C616E6365DB
:1003F0006E756D0064656C65746570686F6E650020
:1004000061646470686F6E6500506F776572207309
:100410007570706C7920726573746F7265640050CA
:100420006F77657220737570706C7920646973637F
:100430006F6E6E65637465642000206D696E7574FF
:1004400065732061676F000A4C6F772074656D706B
:10045000657261747572653A20000A4869676820A0
:1004600074656D70657261747572653A20003B0049
:100470004154442B00416C61726D2052696E673AA1
:10048000202B005072696D6172792070686F6E6503
:100490003A202B002B4353513A002B435245473A05
:1004A0000041542B435553443D3000555353442091
:1004B00071756572793A20002B435553443A0053C5
:1004C0004D532066726F6D3A202B002C22002C2C8D
:1004D000002B434D543A0052696E672066726F6D6F
:1004E0003A202B002C0052494E470054656D706530
:1004F0007261747572653A200020617420626F6FBA
:10050000742E0047534D2054656D7065726174758B
:10051000726520416C61726D20323031382E31327B
:100520002E30332D30310000000000250028002B34
:100530000000000000230026002900040404040435
:100540000404040202020202020303030303030180
:100550000204081020408001020408102001020457
:10056000081020220041542B434D47533D220000E8
:10057000000000240027002A0000000008000201FB
:100580000000030407000000000000000041544583
:100590003000415445310041542B434E4D493D32CA
:1005A0002C320041542B435343533D2247534D2299
:1005B0000041542B434D47463D310041542B434CA1
:1005C00049503D31004465746563746564204D6F26
:1005D00064656D49443A200041360053494D383036
:1005E00030004D35393000415449004154004154E8
:1005F0002B434855500050686F6E652061646465F8
:10060000642E0050686F6E6520616C72656164795C
:100610002065786973747320696E2074686520633F
:10062000656C6C3A20004572726F722C2077726F85
:100630006E672063656C6C2E004572726F722C20A1
:100640006E6F7420736574206D61696E2070686FC1
:100650006E652E0050686F6E652073657474696EE8
:100660006773206368616E6765642E005265626F10
:100670006F744D6F64656D004775617264204F4EF5
:100680002E0020436F6E736F6C65002050686F6E94
:1006900065202B004C656E67746820746F2072654E
:1006A0007475726E3A200042616C616E6365206EF3
:1006B000756D6265723A20004C6F616420646566F6
:1006C00061756C742062616C616E63652064617435
:1006D000612E0044656C6574652062616C616E63B7
:1006E0006520646174612E004C6F616420646566EE
:1006F00061756C742070686F6E6520646174612E22
:100700000044656C6574696E672070686F6E652063
:10071000646174612E00690070007200730050689B
:100720006F6E6500E28496005265616420617272AA
:1007300061792070686F6E653A004175746F646509
:1007400074656374004D6F64656D49443A20002000
:1007500054696D653A2000204D6F64653A2000575A
:1007600061746368506F77657200486967685465A3
:100770006D703A20004C6F7754656D703A200054CC
:10078000656D70436865636B54696D653A20004E12
:100790006574436865636B54696D653A20004775FD
:1007A0006172643A20004C65643A200054657374A9
:1007B0003A200052696E6754696D653A20005265AF
:1007C000616420656570726F6D636F6E6669673A0C
:1007D000004C6F61642064656661756C74206565AA
:1007E00070726F6D636F6E66696720646174612EED
:1007F0000044656C6574696E6720656570726F6D25
:10080000636F6E66696720646174612E004775616D
:100810007264204F46462E00802C3C2E11241FBEB1
:10082000CFEFD8E0DEBFCDBF12E0A0E0B1E0ECEF4B
:10083000FDE602C005900D92A638B107D9F724E075
:10084000A6E8B2E001C01D92AA3BB207E1F714E0AE
:10085000CDE0D4E004C02197FE010E949334CC3057
:10086000D107C9F70E947E2D0C94F1360C9400003C
:10087000CF92DF92EF92FF920F931F93CF93DF936C
:10088000CDB7DEB7AA970FB6F894DEBF0FBECDBFC7
:1008900080918D02813031F46DE673E08CEA92E054
:1008A0000E94D41F66E672E0CE0142960E945B1F52
:1008B00069E172E0CE0101960E945B1FAE014E5EBF
:1008C0005F4FBE016F5F7F4F8DE693E00E9462191C
:1008D000CE0101960E94EC1ECE0142960E94EC1EB3
:1008E00066E672E0CE0142960E945B1F65E672E00A
:1008F000CE0101960E945B1FAE014E5E5F4FBE01AE
:100900006F5F7F4F8DE693E00E946219CE010196E2
:100910000E94EC1ECE0142960E94EC1E00916D03D7
:1009200010916E030115110531F480918C02813014
:1009300009F0ACC70DC0F80180818823B1F3082EFF
:10094000000C990B0E949536F80181938F01F3CF2B
:1009500060E074E0CE0101960E94491FBE016F5F06
:100960007F4F8DE693E00E94AD1A8C01CE01019677
:100970000E94EC1E17FD0FC06DE673E0CE010196DC
:100980000E94521F61E0CE0101960E94CD23CE014C
:1009900001960E94EC1E64EF73E0CE0101960E9466
:1009A000491FBE016F5F7F4F8DE693E00E94AD1A35
:1009B0008C01CE0101960E94EC1E17FD0EC16DE662
:1009C00073E0CE0184960E94521F6BE172E0CE016B
:1009D00042960E945B1FBE016E5E7F4FCE018496E1
:1009E0000E94A31A4AE0BC01CE0101960E941D1F7D
:1009F000CE0101960E945719AB014F5F5F4FBE01B8
:100A00006C5D7F4FCE014E960E94E10FCE010196A4
:100A10000E94EC1ECE0142960E94EC1E66E672E039
:100A2000CE0101960E945B1F6DE172E0CE014296FD
:100A30000E945B1FAE014F5F5F4FBE016E5E7F4F36
:100A4000CE014E960E946219CE0142960E94EC1E83
:100A5000CE0101960E94EC1E62E272E0CE01429647
:100A60000E945B1FBE016E5E7F4FCE014E960E94BC
:100A7000A31A4AE0BC01CE0101960E941D1FCE01BF
:100A800001960E945719AB014F5F5F4FBE01625E36
:100A90007F4FCE0148960E94E10FCE0101960E9441
:100AA000EC1ECE0142960E94EC1EBE01685E7F4F96
:100AB000CE0142960E94521F0EE211E021E09DE01D
:100AC000F92E6E01F5E0CF0ED11C6BE874E0F80151
:100AD000808191812AA70E942522BC01CE01019626
:100AE0000E945B1FBE016E5E7F4FCE0101960E9489
:100AF000C71AE82ECE0101960E94EC1E2AA5EE2010
:100B000009F441C019821A821B821C82F6018F2DC2
:100B100011928A95E9F7BE016F5F7F4FF8018081DE
:100B200091810E94F121F8018081918160E04396DA
:100B30000E944B22F8018081918160E044960E94DE
:100B40004B22F8018081918160E045960E944B2202
:100B5000F8018081918160E046960E944B226AE70D
:100B600071E08CEA92E00E94851FBE016E5E7F4FAD
:100B70008CEA92E00E94D41F0E94C9230E946A2935
:100B80000E943A2320E0095E1F4FF1E00D3F1F074E
:100B900009F09BCF213089F462E671E08CEA92E0A3
:100BA0000E94851FBE016E5E7F4F8CEA92E00E941C
:100BB000D41F0E94C9230E945223CE0142960E9454
:100BC000EC1ECE0148960E94EC1ECE014E960E946D
:100BD000EC1ECE0184960E94EC1E69EE73E0CE01FD
:100BE00001960E94491FBE016F5F7F4F8DE693E023
:100BF0000E94AD1A8C01CE0101960E94EC1E17FDD9
:100C0000B5C06BE172E0CE0101960E945B1FBE0190
:100C10006F5F7F4F8DE693E00E94A31A4AE0BC010C
:100C2000CE0142960E941D1FCE0142960E94571986
:100C3000AB014F5F5F4F6DE673E0CE0148960E94B7
:100C4000E10FCE0142960E94EC1ECE0101960E9459
:100C5000EC1E64E272E0CE0101960E945B1FBE01B1
:100C60006F5F7F4FCE0148960E94AD1A4AE0BC01EB
:100C7000CE014E960E941D1FCE014E960E9457191E
:100C80009B0140E050E0BE01685E7F4FCE0142967E
:100C90000E945D1ACE014E960E94EC1ECE01019676
:100CA0000E94EC1E64E272E0CE014E960E945B1F31
:100CB000BE01625E7F4F8DE693E00E94A31A4AE078
:100CC000BC01CE0184960E941D1FCE0184960E9415
:100CD0005719AB014F5F5F4F6DE673E0CE01019690
:100CE0000E94E10FCE0184960E94EC1ECE014E962A
:100CF0000E94EC1ECE0101960E945719162FBE01CC
:100D00006E5E7F4FCE014E960E94521F6DE974E0D9
:100D1000CE014E960E9436196DE974E08EE190E0A6
:100D20000E94F121612F80E390E00E944B2261E05C
:100D300081E390E00E944B220E94E92A8CEA92E033
:100D40000E94BE1F0E94C9230E943A23CE014E96E4
:100D50000E94EC1ECE0101960E94EC1ECE0142962E
:100D60000E94EC1ECE0148960E94EC1E6AED73E0D4
:100D7000CE0101960E94491FBE016F5F7F4F8DE635
:100D800093E00E94AD1A8C01CE0101960E94EC1EE8
:100D900017FD5DC06BE172E0CE0101960E945B1F02
:100DA000BE016F5F7F4F8DE693E00E94A31A4AE079
:100DB000BC01CE0142960E941D1FCE0142960E94A8
:100DC0005719AB014F5F5F4F6DE673E0CE01489658
:100DD0000E94E10FCE0142960E94EC1ECE010196C8
:100DE0000E94EC1EBE01685E7F4FCE0142960E94BB
:100DF000521FCE0142960E9457196F3F710581051F
:100E0000910511F008F03EC7CE0142960E94571995
:100E1000162F87E190E00E944B221093AE046AE8FF
:100E200071E08CEA92E00E94851F87E190E00E94C9
:100E300067220E9423190E94C9230E943A23CE01EF
:100E400042960E94EC1ECE0148960E94EC1E61ED77
:100E500073E0CE0101960E94491FBE016F5F7F4F74
:100E60008DE693E00E94AD1A8C01CE0101960E949E
:100E7000EC1E17FD65C06BE172E0CE0101960E9489
:100E80005B1FBE016F5F7F4F8DE693E00E94A31A48
:100E90004AE0BC01CE0148960E941D1FCE01489633
:100EA0000E945719AB014F5F5F4F6DE673E0CE01B3
:100EB00042960E94E10FCE0148960E94EC1ECE01A0
:100EC00001960E94EC1EBE016E5E7F4FCE01019620
:100ED0000E94521FCE0101960E945719DC01CB01DE
:100EE0000A97A109B109863F9105A105B10508F04E
:100EF000EBC6CE0101960E945719162F88E190E0AB
:100F00000E944B22612F70E07093B5046093B4048B
:100F10006EE971E08CEA92E00E94851F88E190E022
:100F20000E9467220E9423190E94C9230E943A232B
:100F3000CE0101960E94EC1ECE0142960E94EC1E4C
:100F400069EC73E0CE0101960E94491FBE016F5FFC
:100F50007F4F8DE693E00E94AD1A8C01CE01019681
:100F60000E94EC1E17FD6FC06BE172E0CE0101968E
:100F70000E945B1FBE016F5F7F4F8DE693E00E9472
:100F8000A31A4AE0BC01CE0148960E941D1FCE0163
:100F900048960E945719AB014F5F5F4F6DE673E0B3
:100FA000CE0142960E94E10FCE0148960E94EC1EAF
:100FB000CE0101960E94EC1EBE016E5E7F4FCE01F7
:100FC00001960E94521FCE0101960E9457198B0173
:100FD0009C010E5C1F4F2F4F3F4F003B1105210519
:100FE000310508F086C62091AF04022F220F110BA5
:100FF000220B330B60177107820793070CF079C639
:10100000CE0101960E945719162F84E190E00E94AC
:101010004B221093B0046CEA71E08CEA92E00E94DB
:10102000851F84E190E00E9467220E9423190E949C
:10103000C9230E943A23CE0101960E94EC1ECE01E4
:1010400042960E94EC1E60EC73E0CE0101960E9475
:10105000491FBE016F5F7F4F8DE693E00E94AD1A7E
:101060008C01CE0101960E94EC1E17FD6FC06BE152
:1010700072E0CE0101960E945B1FBE016F5F7F4F41
:101080008DE693E00E94A31A4AE0BC01CE01489687
:101090000E941D1FCE0148960E945719AB014F5F59
:1010A0005F4F6DE673E0CE0142960E94E10FCE01E4
:1010B00048960E94EC1ECE0101960E94EC1EBE01D5
:1010C0006E5E7F4FCE0101960E94521FCE010196A7
:1010D0000E9457198B019C010E5C1F4F2F4F3F4FF1
:1010E000003B11052105310508F019C62091B00417
:1010F000022F220F110B220B330B0617170728079D
:1011000039070CF00CC6CE0101960E945719162F14
:1011100085E190E00E944B221093AF0469EB71E0EF
:101120008CEA92E00E94851F85E190E00E94672290
:101130000E9423190E94C9230E943A23CE010196DE
:101140000E94EC1ECE0142960E94EC1E63EB73E0FF
:10115000CE0101960E94491FBE016F5F7F4F8DE651
:1011600093E00E94AD1A8C01CE0101960E94EC1E04
:1011700017FD60C06BE172E0CE0101960E945B1F1B
:10118000BE016F5F7F4F8DE693E00E94A31A4AE095
:10119000BC01CE0148960E941D1FCE0148960E94B8
:1011A0005719AB014F5F5F4F6DE673E0CE0142967A
:1011B0000E94E10FCE0148960E94EC1ECE010196DE
:1011C0000E94EC1EBE016E5E7F4FCE0101960E9412
:1011D000521FCE0101960E9457196D33710581058A
:1011E000910508F0B2C5CE0101960E945719162F3D
:1011F0008FE090E00E944B22612F70E07093B30467
:101200006093B20467EC71E08CEA92E00E94851F63
:101210008FE090E00E9467220E9423190E94C92358
:101220000E943A23CE0101960E94EC1ECE01429606
:101230000E94EC1E65EA73E0CE0101960E94491FF0
:10124000BE016F5F7F4F8DE693E00E94AD1A8C0167
:10125000CE0101960E94EC1E17FD60C06BE172E0AA
:10126000CE0101960E945B1FBE016F5F7F4F8DE62E
:1012700093E00E94A31A4AE0BC01CE0148960E9466
:101280001D1FCE0148960E945719AB014F5F5F4F5B
:101290006DE673E0CE0142960E94E10FCE014896C2
:1012A0000E94EC1ECE0101960E94EC1EBE016E5EF5
:1012B0007F4FCE0101960E94521FCE0101960E94DF
:1012C0005719DC01CB010197A109B109CC97A10500
:1012D000B10508F04FC5CE0101960E945719162F8F
:1012E00082E190E00E944B221093B10469ED71E01D
:1012F0008CEA92E00E94851F82E190E00E946722C2
:101300000E9423190E94C9230E943A23CE0101960C
:101310000E94EC1ECE0142960E94EC1E6BE973E027
:10132000CE0101960E94491FBE016F5F7F4F8DE67F
:1013300093E00E94AD1A8C01CE0101960E94EC1E32
:1013400017FD1AC06FEF80E090E00E944B220E94D0
:1013500002286FEF83E690E00E944B220E94832ACE
:101360006FEF81E390E00E944B220E94E92A0E94E5
:101370003A23E0E0F0E0099560E973E0CE010196E0
:101380000E94491FBE016F5F7F4F8DE693E00E9470
:10139000AD1A8C01CE0101960E94EC1E17FD0CC007
:1013A0006FEF83E690E00E944B220E94832A0E9406
:1013B0003A23E0E0F0E0099564E873E0CE0101969D
:1013C0000E94491FBE016F5F7F4F8DE693E00E9430
:1013D000AD1A8C01CE0101960E94EC1E17FD0CC0C7
:1013E0006FEF80E090E00E944B220E9402280E9452
:1013F0003A23E0E0F0E0099568E773E0CE0101965A
:101400000E94491FBE016F5F7F4F8DE693E00E94EF
:10141000AD1A8C01CE0101960E94EC1E17FD75C01D
:1014200066E673E08FE493E00E942B1C63E673E0B2
:10143000CE0101960E94491FBE016F5F7F4F8DE66E
:1014400093E00E94AD1A8C01CE0101960E94EC1E21
:1014500017FD06C081E08093E90161E673E019C0E1
:101460006EE573E0CE0101960E94491FBE016F5FD9
:101470007F4F8DE693E00E94AD1A8C01CE0101965C
:101480000E94EC1E17FD0CC082E08093E9016CE520
:1014900073E08CEA92E00E94851F66E272E00AC067
:1014A0001092E9016AE573E08CEA92E00E94851FE0
:1014B00068E272E08FE493E00E941C1C6091E901F5
:1014C00083E190E00E944B2280918B028130E9F40D
:1014D00062E272E0CE0101960E945B1F61E673E05A
:1014E000CE0101960E94D01BBC01CE0142960E9403
:1014F000521FCE0142960E946922CE0142960E945E
:10150000EC1ECE0101960E94EC1E6CE473E0CE014D
:1015100001960E94491FBE016F5F7F4F8DE693E0E9
:101520000E94AD1A8C01CE0101960E94EC1E17FD9F
:101530000FC06DE673E0CE0101960E94521F62E07B
:10154000CE0101960E94CD23CE0101960E94EC1E91
:1015500061E473E0CE0101960E94491FBE016F5FF6
:101560007F4F8DE693E00E94AD1A8C01CE0101966B
:101570000E94EC1E17FD04C00E9402280E94E92A66
:1015800069E373E0CE0101960E94491FBE016F5FBF
:101590007F4F8DE693E00E94AD1A8C01CE0101963B
:1015A0000E94EC1E17FD84C00E94E62E2DEF30E055
:1015B00040E050E00E942B3382E0D82ED60E62E14C
:1015C00072E08CEA92E00E94851F4AE060E074E0DD
:1015D00080E090E00E94DA1760E172E08CEA92E02D
:1015E0000E94E61F00E010E06D2DC8010E941D332F
:1015F00065E070E080E090E00E94E5200F5F1F4F03
:101600000115F4E01F0781F7E12CF12C00E010E058
:10161000C8010E9467228D1529F162E072E08CEA10
:1016200092E00E94851FC8010E946722C82E4AE0EE
:10163000B801CE0101960E94F11E6BE573E0CE0168
:1016400001960E94D01B6C2D0E940E1CBC018CEADE
:1016500092E00E94D41FCE0101960E94EC1E8FEFF3
:10166000E81AF80A65E070E080E090E00E94E5206A
:101670000F5F1F4F0115E4E01E0751F66CEF71E09C
:101680008CEA92E00E94851FE114F10409F088C3FE
:1016900064EF71E08CEA92E00E94E61F0E94C92389
:1016A00064EF71E080E090E00E94E520F701099589
:1016B0006FE273E0CE0101960E94491FBE016F5F89
:1016C0007F4F8DE693E00E94AD1A8C01CE0101960A
:1016D0000E94EC1E17FF0E946A2968E273E0CE01A7
:1016E00001960E94491FBE016F5F7F4F8DE693E018
:1016F0000E94AD1A8C01CE0101960E94EC1E17FDCE
:1017000009C064EF71E080E090E00E94E520E0E035
:10171000F0E0099560E273E0CE0101960E94491F56
:10172000BE016F5F7F4F8DE693E00E94AD1A8C0182
:10173000CE0101960E94EC1E17FDA6C06BE172E07F
:10174000CE0142960E945B1FBE016E5E7F4F8DE60A
:1017500093E00E94A31A4AE0BC01CE0148960E9481
:101760001D1FCE0148960E945719AB014F5F5F4F76
:101770006DE673E0CE0101960E94E10FCE0148961E
:101780000E94EC1ECE0142960E94EC1ECE010196F4
:101790000E9457196B3071058105910508F007C348
:1017A000CE0101960E945719162F63E672E08CEA6B
:1017B00092E00E94851F80917404082E000C990B02
:1017C0000E94F018612F89E190E00E944B22109353
:1017D000740466E572E08CEA92E00E94851FC09076
:1017E00074040C2C000CDD08EE08FF08F7FE0EC098
:1017F0006DE28CEA92E00E94701F66277727CB018A
:101800006C197D098E099F094AE003C04AE0C701AF
:10181000B6010E94DA176CE472E08CEA92E00E9452
:10182000851F111116C060E472E08CEA92E00E94FC
:10183000E61F68E372E08CEA92E00E94E61F64EF24
:1018400071E080E090E00E94E520E0E0F0E00995A2
:1018500015C0113019F461E372E00CC0123019F4B4
:1018600068E272E007C0133019F464E272E002C06B
:101870006BE172E08CEA92E00E94E61F0E94C923AD
:10188000CE0101960E94EC1E10928C026BE173E077
:10189000CE0101960E94491FBE016F5F7F4F8DE60A
:1018A00093E00E94AD1A8C01CE0101960E94EC1EBD
:1018B00017FD9EC00E94ED0E65E073E08FE493E09B
:1018C0000E942B1C6091870270918802809189028E
:1018D00090918A020E94651BC0908702D090880276
:1018E000E0908902F0908A0220E030E04CE552EC72
:1018F000C701B6010E94F13187FD0AC020E030E047
:101900004AEF52E4C701B6010E946134181634F45C
:1019100066EF72E08FE493E00E94F91A6FEE72E0D6
:101920008FE493E00E94F91A8091B004082E000C15
:10193000990B0E94A51B67EE72E08FE493E00E9472
:10194000F91A8091AF04082E000C990B0E94A51B78
:1019500066ED72E08FE493E00E94F91A8091B10481
:10196000082E000C990B0E94A51B61ED72E08FE41C
:1019700093E00E94F91A6FEC72E08FE493E00E940A
:10198000F91A40914D0350914E03609149037091B3
:101990004A038FE493E00E94371B80918B028130D1
:1019A000E9F462E272E0CE0101960E945B1F61E6FB
:1019B00073E0CE0101960E94D01BBC01CE0142967D
:1019C0000E94521FCE0142960E946922CE01429689
:1019D0000E94EC1ECE0101960E94EC1E80918D02A9
:1019E000813031F46FE473E08CEA92E00E94D41FFE
:1019F00069EC72E0CE0101960E94491FBE016F5F43
:101A00007F4F8DE693E00E94AD1A8C01CE010196C6
:101A10000E94EC1E17FD18C080918D02813011F4D8
:101A20008093880461E772E087E893E00E94851F55
:101A300063E773E087E893E00E94771F6BE272E050
:101A400087E893E00E94C21F6FEB72E0CE0101961F
:101A50000E94491FBE016F5F7F4F8DE693E00E9499
:101A6000AD1A8C01CE0101960E94EC1E17FD12C02A
:101A700080918602811108C080918D020E946623A8
:101A800081E08093860206C080918D020E945623D9
:101A90001092860268EB72E0CE0101960E94491F07
:101AA000BE016F5F7F4F8DE693E00E94AD1A8C01FF
:101AB000CE0101960E94EC1E17FD1BC062E372E08E
:101AC000CE0101960E945B1FBE016F5F7F4F8DE6C6
:101AD00093E00E94AD1A8C01CE0101960E94EC1E8B
:101AE00080918D0217FD03C00E94692B02C00E94E5
:101AF000F62B62EB72E0CE0101960E94491FBE01F7
:101B00006F5F7F4F8DE693E00E94AD1A8C01CE018E
:101B100001960E94EC1E17FD22C062E372E0CE0126
:101B200001960E945B1FBE016F5F7F4F8DE693E0C1
:101B30000E94AD1A8C01CE0101960E94EC1E17FD89
:101B400004C081E08093730402C01092730460911A
:101B500073048CE090E00E944B220E945D266DEAA7
:101B600072E0CE0101960E94491FBE016F5F7F4F58
:101B70008DE693E00E94AD1A8C01CE0101960E9481
:101B8000EC1E17FD20C062E372E0CE0101960E94B8
:101B90005B1FBE016F5F7F4F8DE693E00E94AD1A21
:101BA0008C01CE0101960E94EC1E17FD04C081E05D
:101BB0008093EA0102C01092EA016091EA018DE08F
:101BC00090E00E944B2264EA72E0CE0101960E94EE
:101BD000491FBE016F5F7F4F8DE693E00E94AD1AF3
:101BE0008C01CE0101960E94EC1E17FD23C06FE808
:101BF00072E087E893E00E94851F80917404813031
:101C000031F46BE872E087E893E00E94E61F809170
:101C100074048250823030F469E872E087E893E01F
:101C20000E94E61F6DE772E08CEA92E00E94E61FD8
:101C30000E943A2368E972E0CE0101960E94491F92
:101C4000BE016F5F7F4F8DE693E00E94AD1A8C015D
:101C5000CE0101960E94EC1E17FF0E94E62710920B
:101C60008B0210928D02AA960FB6F894DEBF0FBEBB
:101C7000CDBFDF91CF911F910F91FF90EF90DF903B
:101C8000CF9008958091AE041F8E1E8E19A218A2C7
:101C90001BA21AA24AE0BE016F5F7F4F90E00E9434
:101CA000612FBE016F5F7F4FCE014E960E94BE1E18
:101CB000BE01625E7F4FCE0142960E942B1ECE0176
:101CC0004E960E94EC1EA0C86091B4047091B504B9
:101CD0004AE0CE0148960E94F11EBE01685E7F4F29
:101CE000CE0101960E942B1ECE0148960E94EC1E4A
:101CF00000C96091B004062E000C770B4AE0CE01BB
:101D000048960E941D1FBE01685E7F4FCE0101965E
:101D10000E942B1ECE0148960E94EC1E71C9609154
:101D2000AF04062E000C770B4AE0CE0148960E94C5
:101D30001D1FBE01685E7F4FCE0101960E942B1EC3
:101D4000CE0148960E94EC1EDEC96091B2047091EB
:101D5000B3044AE0CE0148960E94F11EBE01685EBF
:101D60007F4FCE0101960E942B1ECE0148960E9405
:101D7000EC1E39CA6091B104062E000C770B4AE0C4
:101D8000CE0148960E941D1FBE01685E7F4FCE01A6
:101D900001960E942B1ECE0148960E94EC1E9BCA03
:101DA0006CEE71E08CEA92E00E94E61F81CC6091BB
:101DB0007404062E000C770B4AE0CE0142960E9476
:101DC0001D1FBE016E5E7F4FCE0101960E942B1E2D
:101DD000CE0142960E94EC1EE3CC8F929F92AF926E
:101DE000BF92CF92DF92EF92FF920E94B9188CECD3
:101DF0000E94591884E40E94591868EE73E080E04C
:101E000090E00E94E5200E94B9188CEC0E945918BD
:101E10008EEB0E9459180E941D18F82E0E941D1862
:101E20006F2D70E0782B072E000C880B990B0E9409
:101E3000F83120E030E040E85DE30E9457326093E3
:101E40008702709388028093890290938A026BEED6
:101E500074E08CEA92E00E94851FC0908702D090C7
:101E60008802E0908902F0908A02A7019601C701DA
:101E7000B6010E946634882319F060E372E01AC04C
:101E800046015701E894B7F82FEF3FEF4FE75FE7C0
:101E9000C501B4010E946634811111C02FEF3FEFDC
:101EA0004FE75FE7C501B4010E94F13118163CF419
:101EB00064E372E08CEA92E00E94A91F76C02FEFE3
:101EC0003FEF4FE75FE4C701B6010E946134181687
:101ED0001CF468E372E0EECF2FEF3FEF4FE75FECCB
:101EE000C701B6010E94F13187FDF3CF20E030E059
:101EF000A901C701B6010E94F13187FF09C06DE257
:101F00008CEA92E00E94701FF7FAF094F7F8F094D0
:101F10002AE037ED43EA5BE3C701B6010E94C6330E
:101F20004B015C010E9432346B017C010E94F6314E
:101F30009B01AC01C501B4010E94C5334B015C019A
:101F40004AE0C701B6010E94DA176EE28CEA92E01D
:101F50000E94701F20E030E040E251E4C501B4016E
:101F60000E9457324B015C010E9432346B01E12C1C
:101F7000F12C4AE0C701B6010E94DA17C701B60189
:101F80000E94F6319B01AC01C501B4010E94C5332A
:101F900020E030E040E251E40E9457320E943234A7
:101FA00080E090E04AE00E94DA178CEA92E0FF902D
:101FB000EF90DF90CF90BF90AF909F908F900C9458
:101FC000BE1FCF93DF93EC01FB01248135810E947A
:101FD0005D1ACE01DF91CF9108958F929F92AF92BB
:101FE000BF92CF92DF92EF92FF920F931F93CF9306
:101FF000DF93CDB7DEB76F970FB6F894DEBF0FBE95
:10200000CDBF8091E901813031F4809101018130AF
:1020100009F081C003C0823009F07DC0E0E8F5E03E
:102020008491E6E5F5E0F490E2E4F5E01491112303
:10203000A1F081110E945020E12FF0E0EE0FFF1F70
:10204000EF5CFA4FA591B491EC91EF2131E020E0E3
:1020500009F430E0832F922F02C080E090E080935B
:102060008E02892B39F580910001811123C081E016
:102070008093000164E670E080E090E00E94E5203B
:102080006FE174E08FE493E00E942B1C80919D022D
:1020900081110AC00E941F216093990270939A02D5
:1020A00080939B0290939C0281E080939D0282E04A
:1020B0008093980280918E028130E9F48091000132
:1020C0008130C9F410929D021092000164E670E024
:1020D00080E090E00E94E52080919702813059F4E1
:1020E00069E074E08FE493E00E942B1C82E00E9480
:1020F000BF221092970280918E02813061F480910C
:102100000001823041F41092000164E670E080E04A
:1021100090E00E94E5200E941F216B017C01A090AD
:10212000B204B090B304A114B104E9F180918F021C
:1021300090919002A0919102B0919202A701960114
:10214000281B390B4A0B5B0BCA01B90128EE33E09F
:1021500040E050E00E9494336CE36A9DC0016B9DA7
:10216000900D1124A0E0B0E082179307A407B507F3
:10217000D0F4C0928F02D0929002E0929102F0923D
:10218000920280918602811108C080918D020E9486
:10219000662381E08093860206C080918D020E94B2
:1021A0005623109286020E941F216B017C01109120
:1021B000B1048091930290919402A0919502B09104
:1021C0009602A7019601281B390B4A0B5B0BCA012B
:1021D000B90128EE33E040E050E00E9494336CE314
:1021E0001602C0011124092E000CAA0BBB0B82178A
:1021F0009307A407B50750F4C0929302D0929402BB
:10220000E0929502F09296020E94ED0E80919D025E
:102210008130C9F50E941F211091AE04C09099022F
:10222000D0909A02E0909B02F0909C026C197D097C
:102230008E099F0928EE33E040E050E00E9494337D
:10224000ECE31E9FC0011124092E000CAA0BBB0B4E
:1022500082179307A407B507B0F4112359F0612F33
:102260008FE493E00E94E31B6AE374E08FE493E061
:102270000E94F91A809198020E94BF2281E0809307
:10228000970210929D020E941F216B017C01809099
:10229000870290908802A0908902B0908A02609193
:1022A000AF04062E000C770B880B990B0E94F831B7
:1022B0009B01AC01C501B4010E94613418160CF0F9
:1022C0004AC061E08BE00E94792061E08CE00E94CE
:1022D000792080910101813011F460E029C0809162
:1022E000A1029091A202A091A302B091A402A70121
:1022F0009601281B390B4A0B5B0BDA01C901883B9D
:102300009B40A105B105B8F0C092A102D092A202F3
:10231000E092A302F092A4028091A002811104C075
:1023200081E08093A00202C01092A0026091A002FE
:102330008AE00E94792080919C048111C2C081E0D2
:1023400080939C0465E573E0CE0101960E94521FC4
:102350006AE574E05AC08091B004682F880F770B4B
:10236000880B990B0E94F8319B01AC01C501B401A7
:102370000E94F13161E087FF63C08CE00E94792008
:1023800061E08AE00E94792080910101813011F49E
:1023900060E029C08091A1029091A202A091A302C5
:1023A000B091A402A7019601281B390B4A0B5B0BC5
:1023B000DA01C901883B9B40A105B105B8F0C09284
:1023C000A102D092A202E092A302F092A402809114
:1023D0009F02811104C081E080939F0202C010928D
:1023E0009F0260919F028BE00E94792080919C0463
:1023F000811167C082E080939C0465E573E0CE01A3
:1024000001960E94521F67E474E0CE0101960E947B
:10241000291BBC018FE493E00E94D51ECE010196DA
:102420000E94EC1E6091870270918802809189025F
:1024300090918A020E94651B81E00E94BF2241C0E8
:102440008BE00E94792061E08AE00E9479208091EF
:102450000101813041F48091EA01813011F460E0A2
:102460002BC061E029C08091A1029091A202A091AD
:10247000A302B091A402A7019601281B390B4A0BB5
:102480005B0BDA01C901883B9B40A105B105B8F09F
:10249000C092A102D092A202E092A302F092A40202
:1024A00080919E02811104C081E080939E0202C04F
:1024B00010929E0260919E028CE00E947920109200
:1024C0009C0480917604813011F40E94BA2380919B
:1024D0008904813009F058C0E091A90217E11E9FDC
:1024E000F0011124EE5FFE4F8589968944960E9483
:1024F0006722813009F048C00E941F216093A50225
:102500007093A6028093A7029093A80268E873E1F3
:1025100080E090E00E94E52065E774E08CEA92E0BC
:102520000E94851FE091A9021E9FF0011124EE5F19
:10253000FE4F6BE874E0858996890E942522BC01D4
:102540008CEA92E00E94C21F60E774E087E893E0A3
:102550000E94851FE091A9021E9FF0011124EE5FE9
:10256000FE4F6BE874E0858996890E942522BC01A4
:1025700087E893E00E94A91F6EE674E087E893E085
:102580000E94E61F1092890410918A04113041F5CF
:102590000E941F21C090A502D090A602E090A70241
:1025A000F090A8026C197D098E099F0928EE33E08E
:1025B00040E050E00E9494338091B4049091B504BF
:1025C000A0E0B0E082179307A407B50748F4109382
:1025D00076048091A9028F5F8093A90210938904E9
:1025E0008091A9028B3040F48091010181110DC0CE
:1025F00080918A04813049F410928A0481E08093AA
:1026000076041092A9021092890487E893E00E9450
:10261000EC1D892B09F411C487E893E00E94EC1D9E
:10262000892B79F087E893E00E94041E809375045B
:102630000E94901B6AE070E080E090E00E94E5203C
:10264000EBCF80917404823011F412E001C011E0EC
:1026500066EE74E0CE0101960E94491FBE016F5FD5
:102660007F4F8DE693E00E94AD1A7C01CE0101966A
:102670000E94EC1EF7FCF8C064EE74E0CE014396B5
:102680000E94491FBE016D5E7F4F8DE693E00E9460
:10269000AD1A4AE0BC01CE0149960E941D1FCE0131
:1026A00049960E9457196B017C0162E472E0CE01E9
:1026B00001960E945B1FBE016F5F7F4F8DE693E026
:1026C0000E94AD1A4AE0BC01CE010D960E941D1F6A
:1026D000CE010D960E945719960121503109412FC4
:1026E00050E0460F571F6DE673E0CE0107960E943B
:1026F0005D1ACE010D960E94EC1ECE0101960E943D
:10270000EC1ECE0149960E94EC1ECE0143960E941B
:10271000EC1E67ED74E08CEA92E00E94851FBE011A
:10272000695F7F4F8CEA92E00E94D41FBE01695F0F
:102730007F4FCE010D960E94521F6BE874E080918E
:102740001701909118010E942522BC01CE0101962B
:102750000E945B1F8D819E81892B41F0E981FA8166
:1027600011E08081882319F010E001C011E0CE0152
:1027700001960E94EC1E112309F44AC067E774E039
:10278000CE010D960E94361967E774E0809117011B
:10279000909118010E94F1218091170190911801E8
:1027A00061E043960E944B2280911701909118019D
:1027B00061E044960E944B2280911701909118018C
:1027C00061E045960E944B2280911701909118017B
:1027D00061E046960E944B2263E874E08CEA92E046
:1027E0000E94851FBE01635F7F4F8CEA92E00E94CA
:1027F000D41F0E94C9230E943A230E94BA2368EE84
:1028000073E080E090E00E94E520E0E0F0E00995D0
:10281000CE010D960E94EC1EBE01695F7F4FCE0176
:1028200001960E94521FCE0101960E947623182F16
:10283000CE0101960E94EC1E113079F40E94BA2359
:1028400080910101813021F480E00E94F62B07C0C5
:10285000811105C00E94692B02C00E94BA23CE01DB
:1028600007960E94EC1ED9C261ED74E0CE0101967C
:102870000E94491FBE016F5F7F4F8DE693E00E946B
:10288000AD1A7C01CE0101960E94EC1EF7FC09C135
:102890006DE673E08CEA92E00E94D41F809174048C
:1028A0008D7F813009F057C06EEC74E0CE010D963B
:1028B0000E94491FBE01635F7F4F8DE693E00E9437
:1028C000AD1A4AE0BC01CE0143960E941D1FCE0105
:1028D00043960E9457196B017C016CE372E0CE01B4
:1028E00001960E945B1FBE016F5F7F4F8DE693E0F4
:1028F0000E94AD1A4AE0BC01CE0107960E941D1F3E
:10290000CE0107960E945719960121503109AB015B
:10291000485F5F4F6DE673E0CE0149960E945D1AF5
:10292000BE01675E7F4F87E693E00E942B1ECE01BB
:1029300049960E94EC1ECE0107960E94EC1ECE0125
:1029400001960E94EC1ECE0143960E94EC1ECE0121
:102950000D960E94EC1E80917404823009F057C0DD
:102960006BEC74E0CE010D960E94491FBE01635FBF
:102970007F4F8DE693E00E94AD1A4AE0BC01CE0184
:1029800043960E941D1FCE0143960E9457196B016A
:102990007C016CE372E0CE0101960E945B1FBE01D8
:1029A0006F5F7F4F8DE693E00E94AD1A4AE0BC0155
:1029B000CE0107960E941D1FCE0107960E9457194F
:1029C000960121503109AB01485F5F4F6DE673E01E
:1029D000CE0149960E945D1ABE01675E7F4F87E671
:1029E00093E00E942B1ECE0149960E94EC1ECE0160
:1029F00007960E94EC1ECE0101960E94EC1ECE01AD
:102A000043960E94EC1ECE010D960E94EC1E6FEBC9
:102A100074E08CEA92E00E94851F67E673E08CEA1E
:102A200092E00E94D41F67E673E0CE0101960E94F7
:102A3000521FCE0101960E947623182FCE010196D7
:102A40000E94EC1E113009F0E8C167E673E0CE0188
:102A500007960E94521F6BE874E0809117019091D5
:102A600018010E942522BC01CE0101960E945B1F25
:102A7000BE01695F7F4FCE0101960E94C71AF82EF2
:102A8000CE0101960E94EC1ECE0107960E94EC1E1C
:102A9000F11010938C0281E080938B020E94380425
:102AA000BCC168EB74E0CE0101960E94491FBE01D3
:102AB0006F5F7F4F8DE693E00E94AD1A7C01CE01DF
:102AC00001960E94EC1EF7FCAFC06BEA74E08CEA42
:102AD00092E00E94851F6DE673E08CEA92E00E940E
:102AE000D41F62E472E0CE0101960E945B1FBE011A
:102AF0006F5F7F4F8DE693E00E94AD1A7C01CE019F
:102B000001960E94EC1EF7FC82C062E472E0CE01E6
:102B10000D960E945B1FBE01635F7F4F8DE693E0C1
:102B20000E94AD1A4AE0BC01CE0143960E941D1FCF
:102B3000CE0143960E9457192091E80130E08901A7
:102B4000060F171F62E472E0CE0101960E945B1F20
:102B5000BE016F5F7F4F8DE693E00E94AD1A4AE0A1
:102B6000BC01CE0107960E941D1FCE0107960E9450
:102B70005719AB014F5F5F4F98016DE673E0CE01CF
:102B800049960E945D1ABE01675E7F4F8FE493E015
:102B90000E942B1ECE0149960E94EC1ECE01079684
:102BA0000E94EC1ECE0101960E94EC1ECE014396BF
:102BB0000E94EC1ECE010D960E94EC1E80918804AE
:102BC00081111DC062E272E0CE0101960E945B1F7E
:102BD00061E673E0CE0101960E94D01BBC01CE01DC
:102BE00007960E94521FCE0107960E946922CE01CD
:102BF00007960E94EC1ECE0101960E94EC1E1092D8
:102C0000880468EE73E080E090E00E94E52061EACD
:102C100074E087E893E00E94E61F68EC70E080E0D3
:102C200090E00E94E520F9C06AE974E0CE010196C7
:102C30000E94491FBE016F5F7F4F8DE693E00E94A7
:102C4000AD1A7C01CE0101960E94EC1EF7FC59C022
:102C50006DE673E08CEA92E00E94D41F64E472E0B7
:102C6000CE0101960E945B1FBE016F5F7F4F8DE614
:102C700093E00E94AD1A7C01CE0101960E94EC1EE9
:102C8000F7FCCBC067E472E0CE0101960E945B1FA7
:102C9000BE016F5F7F4F8DE693E00E94AD1A4AE060
:102CA000BC01CE0107960E941D1FCE0107960E940F
:102CB0005719AB014F5F5F4F6DE673E0CE010D9684
:102CC0000E94E10FCE010D960E9457196093AB024E
:102CD000CE010D966F8F0E94EC1ECE0107960E94CA
:102CE000EC1ECE0101960E94EC1E6F8D862F0E9475
:102CF00023198091AB02813009F48FC00E94E6272E
:102D00008CC064E974E0CE0101960E94491FBE01A7
:102D10006F5F7F4F8DE693E00E94AD1A7C01CE017C
:102D200001960E94EC1EF7FC78C06DE673E08CEA19
:102D300092E00E94D41F64E472E0CE0101960E94EA
:102D40005B1FBE016F5F7F4F8DE693E00E94AD1A5F
:102D50007C01CE0101960E94EC1EF7FC5EC067E488
:102D600072E0CE010D960E945B1FBE01635F7F4F34
:102D70008DE693E00E94AD1A4AE0BC01CE01439675
:102D80000E941D1FCE0143960E9457196B017C01C2
:102D900064E472E0CE0101960E945B1FBE016F5F8A
:102DA0007F4F8DE693E00E94AD1A4AE0BC01CE0150
:102DB00007960E941D1FCE0107960E945719AB016E
:102DC0004E5F5F4F96016DE673E0CE0149960E941B
:102DD0005D1ACE0149960E9457196093AA02CE014E
:102DE00049966F8F0E94EC1ECE0107960E94EC1E42
:102DF000CE0101960E94EC1ECE0143960E94EC1E6D
:102E0000CE010D960E94EC1E6F8D862F0E94231915
:102E10008091AA02833609F471CF809173048130C6
:102E200031F46DE673E08CEA92E00E94D41F66E60E
:102E300072E08DE693E00E94BE1E8CEA92E00E9452
:102E4000B01C892B61F18CEA92E00E94B01C892BA6
:102E500079F08CEA92E00E948E1C809375040E94A7
:102E6000901B64E170E080E090E00E94E520EBCFF1
:102E700080917304813031F46DE673E087E893E06C
:102E80000E94D41F81E080938C0280938D020E9467
:102E9000380466E672E08DE693E00E94BE1E6F96EF
:102EA0000FB6F894DEBF0FBECDBFDF91CF911F915B
:102EB0000F91FF90EF90DF90CF90BF90AF909F90D9
:102EC0008F9008950E949036AF92BF92CF92DF927A
:102ED000EF92FF920F931F93CF93DF937B018A01B1
:102EE000FB01448155814115510561F1FC012481AB
:102EF00035812115310531F12417350718F10217F5
:102F0000130718F0890101501109FC01A080B1805C
:102F1000C501DFEFCFEF6501C00ED11EC816D9067F
:102F2000A0F0F701608171810E94D736009769F0A7
:102F30009C012A193B090217130710F0D22FC32F47
:102F40000196ECCF8FEF9FEF02C08D2F9C2FDF916A
:102F5000CF911F910F91FF90EF90DF90CF90BF9096
:102F6000AF900895ECEAF2E0A089B18982E08C93F9
:102F7000A485B5851C92A685B7858FEC8C93108EA1
:102F8000A489B58986E08C93A289B3898C918061EC
:102F90008C93A289B3898C9188608C93A289B38920
:102FA0008C9180688C930288F389E02D80818F7DDD
:102FB000808308958F929F92AF92BF920F931F9339
:102FC000CF93DF93CDB7DEB7A1970FB6F894DEBFEE
:102FD0000FBECDBF19A2423008F44AE08E010F5D4A
:102FE0001F4F842E912CA12CB12CA50194010E947D
:102FF0009433E62FB901CA0101501109EA3014F4E3
:10300000E05D01C0E95CD801EC93232B242B252B38
:1030100061F7B8018CEA92E00E94A91FA1960FB651
:10302000F894DEBF0FBECDBFDF91CF911F910F91FE
:10303000BF90AF909F908F900895EF92FF920F9363
:103040001F93CF93DF9348E050E031E080E097E0BA
:10305000E92EF12CC3E2D0E00FEC10E0909179035F
:10306000E0917A03F0917B03F8942181292B21834D
:103070006281292F209562236283D7011197F1F78E
:10308000618126232183DE011197F1F72081789455
:10309000F8013197F1F7922309F0832B330F415058
:1030A0005109E1F6DF91CF911F910F91FF90EF90C1
:1030B0000895CF92DF92EF92FF920F931F93CF93D9
:1030C000DF9328E030E041E06FEF70E09FE0C92E31
:1030D000D12CC3E2D0E007ED10E090917903E091AC
:1030E0007A03F0917B03592F5095F42EF82281F04A
:1030F000F894F2805F2152835181592B5183DE0174
:103100001197F1F75281952B92837894F8010FC0B3
:10311000F894F2805F2152835181592B5183DB0156
:103120001197F1F75281952B92837894F60131979C
:10313000F1F7440F2150310981F6F894E0917A03B8
:10314000F0917B03918180917903809598239183FD
:10315000E0917A03F0917B039281892382837894B2
:10316000DF91CF911F910F91FF90EF90DF90CF9063
:10317000089590917903E0917A03F0917B03F8949C
:103180008181292F20958223818378948DE743E0E4
:1031900050E0815021F1DA011197F1F730813923A4
:1031A000C1F3F8948281822382838181892B818378
:1031B0007894ABE7B7E01197F1F7F8948181282371
:1031C0002183A3E1B1E01197F1F78081982381E099
:1031D00009F080E07894E3E6F6E03197F1F708959E
:1031E000CF92DF92EF92FF92CF93DF936C01990F12
:1031F000EE08FF08F7FE14C06DE28CEA92E00E9430
:10320000701FEC0166277727CB016C197D098E09A9
:103210009F094AE00E94DA177C01EC0EFD1E06C0F1
:103220004AE0C701B6010E94DA177C018CEA92E0FD
:103230000E94BE1F8E0D9F1DDF91CF91FF90EF90DA
:10324000DF90CF900895CF93DF93682F70E080E0F8
:1032500090E04AE00E94DA17EC018CEA92E00E94CA
:10326000BE1F8C0F9D1FDF91CF9108950F931F9369
:10327000CF93DF93FC01C481D581209719F4FB0122
:10328000108210C0C031D10510F0C0E1D0E08B0138
:10329000FC0160817181AE01C8010E94C836C00F77
:1032A000D11F1882DF91CF911F910F910895FC01DA
:1032B00080819181009711F00C94F42E60E070E011
:1032C000CB0108952F923F924F925F926F927F921F
:1032D0008F929F92AF92BF92CF92DF92EF92FF9226
:1032E0000F931F93CF93DF93FC01448055804114CB
:1032F000510409F4CFC0FB0164807580611471042E
:1033000009F4C8C07A016B01EC01FA01A480B58010
:10331000A618B70808811981A114B104C1F4F601F7
:1033200060817181C8010E94D736EC01892B09F4B4
:10333000B1C0F7016081718144815581CE010E9445
:103340009D36F701048115810C0F1D1FE8CFB7FED4
:1033500002C0480106C0FB01208031804201C80143
:1033600042C0F60160817181C4010E94D7362C01F0
:10337000892B19F1320168187908A301B401C80139
:103380000E949D36060D171DF701608171814481F1
:103390005581C8010E949D36F70184819581080FEF
:1033A000191FF60184809580840C951C8C819D8169
:1033B0008A0D9B1D9D838C83D4CFB401C801DF91FE
:1033C000CF911F910F91FF90EF90DF90CF90BF9022
:1033D000AF909F908F907F906F905F904F903F90B5
:1033E0002F900C94C136B1010E94D736009729F076
:1033F000860D971D8A0C9B1CF6CF8414950409F446
:1034000049C08A819B818815990560F4B4016F5F7A
:103410007F4FC8010E94C6350097E1F199838883E8
:103420009B828A824C815D814150510957FD32C097
:10343000B601CE010E9464178C0197FD2BC08881D4
:103440009981F60124813581200F311F820F931F4E
:103450004C815D81421B530BBC018A0D9B1D0E9458
:10346000A6368C819D818A0D9B1D9D838C8328812E
:103470003981F901E80FF91F108288819981F701DC
:103480006081718144815581800F911F0E949D361A
:10349000A801CACFDF91CF911F910F91FF90EF90BC
:1034A000DF90CF90BF90AF909F908F907F906F9064
:1034B0005F904F903F902F900895BF92CF92DF92F0
:1034C000EF92FF920F931F93CF93DF937C016B01D9
:1034D0008A01E9012417350720F4812F8901C42FBF
:1034E000D82F66E672E0C7010E945B1FD6011496D2
:1034F0008D919C91159708171907D0F48C179D078B
:1035000008F4EC01D601ED91FC911197EC0FFD1F31
:10351000B08010824D915C91BA01600F711FC7019C
:103520000E94BE1ED601ED91FC91EC0FFD1FB082F2
:10353000C701DF91CF911F910F91FF90EF90DF9026
:10354000CF90BF900895FC0144815581FB012481F7
:103550003581421B530B0C946417CF93DF93FC010E
:1035600024813581232B71F0FB01DC01CD91DC91AD
:1035700060817181CE010E94D736009719F08C1BB3
:103580009D0B02C08FEF9FEFDF91CF910895FC015B
:1035900024813581FB01448155812417350721F5AC
:1035A000FC0180819181FB0160817181009719F09C
:1035B00061157105A1F46115710549F0232BB1F076
:1035C000FB01808190E09195819591090AC0009757
:1035D00069F0232B59F0FC01808190E002C00E9429
:1035E000B83621E0892B19F020E001C021E0822FBC
:1035F0000895EF92FF920F931F93CF93DF9361157E
:10360000710511F480E01EC08B01EC01CB010E941A
:10361000222F0097B1F02C813D817C01E20EF31E38
:10362000B701CE010E94641E882361F3288139818D
:103630008C819D81B801820F931F0E941B2FFD82F8
:10364000EC8281E0DF91CF911F910F91FF90EF907D
:103650000895CF93DF93EC010E94F91A811103C002
:10366000CE010E948B1ECE01DF91CF910895EF9283
:10367000FF920F931F93CF93DF93FC012481358139
:103680006115710511F480E019C041155105A9F0CB
:103690007B01EC018A01020F131FB8010E94641E16
:1036A000882389F3288139818C819D81B701820F1C
:1036B000931F0E94C1361D830C8381E0DF91CF915F
:1036C0001F910F91FF90EF9008950F931F93CF9349
:1036D000DF93CDB7DEB764970FB6F894DEBF0FBEA9
:1036E000CDBF8E010F5F1F4F22E044E00E94782E75
:1036F000FC0101900020E9F73197AF01481B590BFD
:10370000BC018FE493E00E94371B64960FB6F894D7
:10371000DEBF0FBECDBFDF91CF911F910F910895F6
:10372000CF93DF9300D0CDB7DEB789831A8241E013
:1037300050E0BE016F5F7F4F8DE693E00E94371B24
:103740000F900F90DF91CF9108950F931F93CF9318
:10375000DF93CDB7DEB728970FB6F894DEBF0FBE64
:10376000CDBF4AE08E010F5F1F4FB8010E94362F78
:10377000F80101900020E9F73197AF01401B510B90
:10378000B8018FE493E00E94371B28960FB6F89497
:10379000DEBF0FBECDBFDF91CF911F910F91089576
:1037A000CF93DF93EC01FB014481558160817181EE
:1037B0000E94371B811103C0CE010E948B1ECE01D7
:1037C000DF91CF910895EF92FF920F931F93CF93C4
:1037D000DF9300D000D0CDB7DEB77C01862F4AE062
:1037E0008E010F5F1F4FB80190E00E94362FF80145
:1037F00001900020E9F73197AF01401B510BB80150
:10380000C7010E94371B0F900F900F900F90DF9110
:10381000CF911F910F91FF90EF900895CF93DF9379
:10382000EC010E94E31B811103C0CE010E948B1E9C
:10383000CE01DF91CF9108956115710551F0FB0123
:1038400001900020E9F73197AF01461B570B0C940C
:10385000371B80E00895EF92FF920F931F93CF9351
:10386000DF93EC018B016115710551F0CB010E94D2
:10387000222F7C01BC01CE010E94641E811104C074
:10388000CE010E948B1E07C0FD82EC82B8018881A8
:1038900099810E941B2FCE01DF91CF911F910F9133
:1038A000FF90EF9008950895CF92DF92EF92FF92EC
:1038B0000F931F93CF93DF936C017A018B01C0E0CC
:1038C000D0E0CE15DF0589F0D8016D918D01D601CC
:1038D000ED91FC910190F081E02DC6010995892BB5
:1038E00011F47E0102C02196ECCFC701DF91CF9188
:1038F0001F910F91FF90EF90DF90CF900895FC0102
:10390000538D448D252F30E0842F90E0821B930B44
:10391000541710F0CF96089501970895FC01918DEA
:10392000828D981761F0828DDF01A80FB11D5D9621
:103930008C91928D9F5F9F73928F90E008958FEF8F
:103940009FEF0895FC01918D828D981731F0828D43
:10395000E80FF11D858D90E008958FEF9FEF08959A
:10396000FC01918D228D892F90E0805C9F4F821BFE
:1039700091098F73992708958CEA92E00E94B01CF8
:1039800021E0892B09F420E0822F0895FC01848D29
:10399000DF01A80FB11DA35ABF4F2C91848D90E079
:1039A00001968F739927848FA689B7892C93A08954
:1039B000B1898C9180648C93938D848D981306C00B
:1039C0000288F389E02D80818F7D80830895EF92B6
:1039D000FF920F931F93CF93DF93EC0181E0888FC9
:1039E0009B8D8C8D981305C0E889F989808185FDB0
:1039F00024C0F62E0B8D10E00F5F1F4F0F731127A1
:103A0000E02E8C8DE8120CC00FB607FCFACFE889C7
:103A1000F989808185FFF5CFCE010E94C61CF1CFC8
:103A20008B8DFE01E80FF11DE35AFF4FF0820B8FE3
:103A3000EA89FB898081806207C0EE89FF89608303
:103A4000E889F98980818064808381E090E0DF915A
:103A5000CF911F910F91FF90EF900895CF93DF9337
:103A6000EC01888D8823C9F0EA89FB89808185FD76
:103A700005C0A889B9898C9186FD0FC00FB607FCD7
:103A8000F5CF808185FFF2CFA889B9898C9185FF18
:103A9000EDCFCE010E94C61CE7CFDF91CF910895F4
:103AA00080E090E0892B29F00E94BC1C81110C94CD
:103AB000000008953FB7F89480916F0490917004CE
:103AC000A0917104B091720426B5A89B05C02F3F48
:103AD00019F00196A11DB11D3FBFBA2FA92F982F34
:103AE0008827820F911DA11DB11DBC01CD0142E0AF
:103AF000660F771F881F991F4A95D1F70895209167
:103B0000A8033091A9032817390771F49091A703EE
:103B10008091A603981741F0E091A703F0E0E655E5
:103B2000FC4F808190E008958FEF9FEF08950895F6
:103B30001F93CF93DF93DC015C962D913C915D97B1
:103B40002115310539F481E090E013969C938E9312
:103B500012973DC05196ED91FC91529750969C91D1
:103B60005097892F80951FB75E964C915E9741FBC9
:103B7000772770F941FD6095F8944081772311F023
:103B8000492B01C048234083E9012197F1F748E020
:103B9000508160FF02C0592B01C058235083E901B6
:103BA0002197F1F76695415099F7772321F090819D
:103BB0008923808303C08081982B90831FBF5C96EC
:103BC0008D919C915D970197F1F721E030E0C9015B
:103BD000DF91CF911F9108952091A8033091A903FF
:103BE0002817390771F48091A6032091A70390E06C
:103BF00080549F4F821B910960EC70E00E946B34EF
:103C0000089580E090E008952091A8033091A903E1
:103C100028173907C9F49091A7038091A603981734
:103C200099F0E091A703F0E0E655FC4F20818091E8
:103C3000A70390E0019660EC70E00E946B348093E3
:103C4000A703822F90E008958FEF9FEF08950895C6
:103C500080E090E008950F931F93CF93DF938C0142
:103C6000EB01FC01808191810097B1F0688179813D
:103C70006115710579F0428153812C813D81421794
:103C8000530740F00E94C1368C819D81F8019583D5
:103C9000848313C00E942E3588819981F801918315
:103CA00080838A819B81938382838C819D8195838C
:103CB0008483198218821B821A821D821C82DF91E2
:103CC000CF911F910F9108950F931F93CF93DF937F
:103CD000EC0188819981009729F02A813B81261780
:103CE000370788F48B016F5F7F4F0E94C6350097BE
:103CF00061F0998388831B830A832C813D81232B68
:103D000011F4FC01108281E001C080E0DF91CF91CD
:103D10001F910F910895CF93DF93EC0188819981D2
:103D2000009711F00E942E35198218821D821C8284
:103D30001B821A82DF91CF910895EF92FF920F9329
:103D40001F93CF93DF93EC017B018A01BA010E949C
:103D5000641E811104C0CE010E948B1E07C01D830A
:103D60000C83B701888199810E94C136CE01DF9111
:103D7000CF911F910F91FF90EF900895CF93DF9314
:103D8000EC016115710559F0FB0101900020E9F784
:103D90003197AF01461B570B0E949D1E02C00E9427
:103DA0008B1ECE01DF91CF910895CF93DF93EC016D
:103DB000FB018617970761F06081718161157105BC
:103DC00029F0448155810E949D1E02C00E948B1ED5
:103DD000CE01DF91CF910895FC01808191810C94F7
:103DE0002E350F931F93CF93DF93CDB7DEB7619737
:103DF0000FB6F894DEBF0FBECDBF8C01CB01F8012A
:103E000011821082138212821582148250E0BE0148
:103E10006F5F7F4F0E94562FBE016F5F7F4FC801BB
:103E20000E94BE1E61960FB6F894DEBF0FBECDBFD6
:103E3000DF91CF911F910F9108950F931F93CF930F
:103E4000DF93CDB7DEB762970FB6F894DEBF0FBE33
:103E5000CDBF8C01CB01F801118210821382128236
:103E60001582148250E0BE016F5F7F4F0E942B2F9E
:103E7000BE016F5F7F4FC8010E94BE1E62960FB6E3
:103E8000F894DEBF0FBECDBFDF91CF911F910F9190
:103E90000895FC011182108213821282158214820D
:103EA0000C942B1CFC011182108213821282158249
:103EB00014820C94D51EFC0111821082138212828E
:103EC000158214826115710551F0FB0101900020EB
:103ED000E9F73197AF01461B570B0C949D1E0895CF
:103EE000DC01ED91FC910190F081E02D0994DC0161
:103EF000ED91FC91DB0114964D915C9115976D91BC
:103F00007C910280F381E02D0994EF92FF920F9350
:103F10001F93CF93DF938C017B01C0E0D0E0F701CA
:103F2000EC0FFD1F6491662361F0D801ED91FC91C7
:103F30000190F081E02DC8010995892B11F021969F
:103F4000EECFCE01DF91CF911F910F91FF90EF90B7
:103F500008956115710579F0FB0101900020E9F7E2
:103F60003197AF01461B570BDC01ED91FC910280AC
:103F7000F381E02D099480E090E0089564E672E01A
:103F80000C94A91F0F931F93CF93DF93EC010E9412
:103F9000A91F8C01CE010E94BE1F800F911FDF91CF
:103FA000CF911F910F9108950F931F93CF93DF939C
:103FB000EC010E94771F8C01CE010E94BE1F800F72
:103FC000911FDF91CF911F910F9108950F931F9330
:103FD000CF93DF93EC010E94851F8C01CE010E94DC
:103FE000BE1F800F911FDF91CF911F910F910895F8
:103FF0001F920F920FB60F9211242F933F934F935E
:104000005F936F937F938F939F93AF93BF93EF9340
:10401000FF938CEA92E00E94C61CFF91EF91BF9142
:10402000AF919F918F917F916F915F914F913F9150
:104030002F910F900FBE0F901F9018951F920F9207
:104040000FB60F9211242F938F939F93EF93FF93AB
:10405000E091BC02F091BD028081E091C202F0913A
:10406000C30282FD12C090818091C5028F5F8F7361
:104070002091C602821751F0E091C502F0E0E455AC
:10408000FD4F958F8093C50201C08081FF91EF9114
:104090009F918F912F910F900FBE0F901F901895A9
:1040A000833081F028F4813099F08230A1F00895B6
:1040B0008730A9F08830B9F08430D1F48091800045
:1040C0008F7D03C0809180008F778093800008955A
:1040D00084B58F7702C084B58F7D84BD08958091AB
:1040E000B0008F7703C08091B0008F7D8093B000C7
:1040F00008951F93CF93DF93282F30E0F901E758FD
:10410000FA4F8491F901E15BFA4FD491F901E55C32
:10411000FA4FC491CC23C9F0162F81110E94502070
:10412000EC2FF0E0EE0FFF1FE95DFA4FA591B4917F
:104130008FB7F894111105C09C91ED2FE095E923FC
:1041400002C0EC91ED2BEC938FBFDF91CF911F91CB
:104150000895CF93DF9390E0FC01E15BFA4F249147
:10416000FC01E55CFA4F8491882361F190E0880FAF
:10417000991FFC01E159FA4FC591D491FC01E95D09
:10418000FA4FA591B491611109C09FB7F894888145
:10419000209582238883EC912E230BC0623061F43A
:1041A0009FB7F8943881822F809583238883EC9180
:1041B0002E2B2C939FBF06C08FB7F894E8812E2B2F
:1041C00028838FBFDF91CF9108958F929F92AF92F6
:1041D000BF92CF92DF92EF92FF926B017C010E941F
:1041E0005A1D4B015C01C114D104E104F104F1F04A
:1041F0000E945A1DDC01CB0188199909AA09BB0943
:10420000883E9340A105B10570F321E0C21AD108A0
:10421000E108F10888EE880E83E0981EA11CB11C0D
:10422000C114D104E104F10419F7DDCFFF90EF9040
:10423000DF90CF90BF90AF909F908F9008952FB751
:10424000F89460916B0470916C0480916D0490916E
:104250006E042FBF08951F920F920FB60F92112474
:104260002F933F938F939F93AF93BF9380916B0452
:1042700090916C04A0916D04B0916E0430916A0429
:1042800023E0230F2D3720F40196A11DB11D05C099
:1042900026E8230F0296A11DB11D20936A04809386
:1042A0006B0490936C04A0936D04B0936E048091A2
:1042B0006F0490917004A0917104B0917204019602
:1042C000A11DB11D80936F0490937004A09371049D
:1042D000B0937204BF91AF919F918F913F912F91B5
:1042E0000F900FBE0F901F9018951F920F920FB650
:1042F0000F9211242F933F934F935F936F937F936C
:104300008F939F93AF93BF93EF93FF93E091A80395
:10431000F091A903309709F453C0968DA685B7850F
:10432000858591FF04C09C91892329F449C09C9103
:10433000892309F045C0A389B4899C91858980951A
:1043400089238C93868997890197F1F7608D718D08
:10435000A685B785558538E020E0CB010197F1F7B8
:10436000822F90E095958795282F4C91452309F051
:104370002068315091F7868D81FD20958091A603AC
:1043800090E0019660EC70E00E946B349091A7037E
:10439000981749F0A091A603B0E0A655BC4F2C9306
:1043A0008093A60303C0868D8160868F828D938D56
:1043B0000197F1F7A389B4899C918589892B8C9306
:1043C000FF91EF91BF91AF919F918F917F916F91ED
:1043D0005F914F913F912F910F900FBE0F901F90C3
:1043E0001895AF92BF92CF92DF92EF92FF920F9308
:1043F0001F93CF93DF931F92CDB7DEB75C017B0194
:104400008B016C0181E1C80ED11CF80161918F0113
:10441000C50169830E9415336981681719F0C501C8
:104420000E941D33FFEFAF1ABF0AAC14BD0469F739
:10443000C7010F90DF91CF911F910F91FF90EF90E7
:10444000DF90CF90BF90AF900895CF92DF92EF9220
:10445000FF920F931F93CF93DF93EB017B0121E139
:10446000E20EF11C8B016C01C61AD70AC601800F3F
:10447000911F0E941533F80181938F01EE15FF05FE
:10448000A9F7CE01DF91CF911F910F91FF90EF908F
:10449000DF90CF9008950F931F93CF93DF931F92D8
:1044A000CDB7DEB78C0169830E9415336981681727
:1044B00041F0C8010F90DF91CF911F910F910C94A3
:1044C0001D330F90DF91CF911F910F9108950C94A0
:1044D0001533CF93DF93EC0168EE73E080E090E05A
:1044E0000E94E52065E675E087E893E00E94851F5D
:1044F000BE0187E893E00E94771F63E675E087E8D6
:1045000093E00E94E61F64EF71E080E090E00E947B
:10451000E5206FE473E087E893E00E94771F64EF83
:1045200071E080E090E00E94E5206AE187E893E096
:104530000E94701F64EF71E080E090E00E94E5202F
:1045400067E672E08CEA92E00E94A91FBE018CEA45
:1045500092E00E94771F6BE573E08CEA92E00E9484
:10456000771F6FE473E08CEA92E00E94D41F68E842
:1045700073E180E090E0DF91CF910C94E520CF9241
:10458000DF92EF92FF920F931F93CF93DF93CDB7FC
:10459000DEB762970FB6F894DEBF0FBECDBF909125
:1045A0000101913009F057C0182F82E0E82E81E018
:1045B000F82E0AE0113031F4F701C588D688C6011B
:1045C000439607C01230D9F5F701C588D688C601D1
:1045D00045960E946722813091F56BE874E0C60130
:1045E0000E942522BC01CE0107960E945B1F62E259
:1045F00072E0CE0101960E945B1FBE01695F7F4F92
:10460000CE0101960E94D01BBC01CE010D960E94E6
:10461000521FCE010D960E946922CE010D960E9476
:10462000EC1ECE0101960E94EC1ECE0107960E9460
:10463000EC1E68EE73E080E090E00E94E5200150FF
:10464000F7E1EF0EF11C0111B5CF113021F41093F9
:104650008A041093890462960FB6F894DEBF0FBEE9
:10466000CDBFDF91CF911F910F91FF90EF90DF9021
:10467000CF90089561E08BE00E94792064E670E0BD
:1046800080E090E00E94E52060E08BE00E947920CD
:1046900064E670E080E090E00E94E52061E08BE05D
:1046A0000C9479200E943A230C943A23813011F41F
:1046B000809388046EE672E087E893E00E94C21F50
:1046C00068EE73E080E090E00C94E520813011F416
:1046D0008093880467E772E087E893E00E94C21F36
:1046E00068EE73E080E090E00C94E520CF92DF92DA
:1046F000FF920F931F93CF93DF9300D000D000D091
:10470000CDB7DEB76C0102E011E06BE874E0F801B0
:10471000858996890E942522BC01CE0101960E94BE
:104720005B1FB601CE0101960E94C71AF82ECE017A
:1047300001960E94EC1EFF2041F0B60181E693E055
:104740000E94D51EFF24F39406C0095E1F4FF1E0BE
:10475000083E1F07D1F68F2D26960FB6F894DEBFC0
:104760000FBECDBFDF91CF911F910F91FF90DF90D2
:10477000CF90089560ED77E080E090E00E94E52022
:104780006EEE75E087E893E00E94E61F10927604D3
:1047900008958CEA92E00C94BE1F8F929F92AF9284
:1047A000BF92CF92DF92EF92FF920F931F93CF931E
:1047B000DF93CDB7DEB76E970FB6F894DEBF0FBEAE
:1047C000CDBF7C01162F6BE172E0CE0101960E94F5
:1047D0005B1FBE016F5F7F4FC7010E94A31A4AE0B3
:1047E000BC01CE0107960E941D1FCE0107960E94B4
:1047F0005719AB014F5F5F4FB701CE0143960E943F
:10480000E10FCE0107960E94EC1ECE0101960E9498
:10481000EC1E6EE772E0CE0101960E945B1FBE01A6
:104820006F5F7F4FCE0143960E94AD1AD92ECE0105
:1048300001960E94EC1ED094DD1CDD24DD1C60E896
:1048400072E0CE0101960E945B1FBE016F5F7F4F39
:10485000CE0143960E94AD1AC92ECE0101960E9448
:10486000EC1EC094CC1CCC24CC1C62E872E0CE01BF
:1048700001960E945B1FBE016F5F7F4FCE01439682
:104880000E94AD1AE92ECE0101960E94EC1EE09422
:10489000EE1CEE24EE1C64E872E0CE0101960E944C
:1048A0005B1FBE016F5F7F4FCE0143960E94AD1A22
:1048B000F92ECE0101960E94EC1EF094FF1CFF24FD
:1048C000FF1C66E672E0CE0107960E945B1F6EE752
:1048D00072E0CE0101960E945B1FAE01495F5F4FFF
:1048E000BE016F5F7F4FCE0143960E946219CE01D9
:1048F00001960E94EC1ECE0107960E94EC1E66E611
:1049000072E0CE0107960E945B1F60E872E0CE0164
:1049100001960E945B1FAE01495F5F4FBE016F5F52
:104920007F4FCE0143960E946219CE0101960E94EC
:10493000EC1ECE0107960E94EC1E66E672E0CE01E8
:1049400007960E945B1F62E872E0CE0101960E940A
:104950005B1FAE01495F5F4FBE016F5F7F4FCE01AE
:1049600043960E946219CE0101960E94EC1ECE0170
:1049700007960E94EC1E66E672E0CE0107960E9442
:104980005B1F64E872E0CE0101960E945B1FAE01DE
:10499000495F5F4FBE016F5F7F4FCE0143960E941C
:1049A0006219CE0101960E94EC1ECE0107960E946C
:1049B000EC1E66E672E0CE0107960E945B1F6DE179
:1049C00072E0CE0101960E945B1FAE01495F5F4F0E
:1049D000BE016F5F7F4FCE0143960E946219CE01E8
:1049E00001960E94EC1ECE0107960E94EC1E62E228
:1049F00072E0CE0101960E945B1FBE016F5F7F4F88
:104A0000CE0143960E94AD1A4AE0BC01CE01079642
:104A10000E941D1FCE0107960E9457199B0140E07E
:104A200050E0BE016D5E7F4FCE010D960E945D1A73
:104A3000CE0107960E94EC1ECE0101960E94EC1E4C
:104A400062E272E0CE0101960E945B1FBE016F5FC1
:104A50007F4FCE0143960E94A31A4AE0BC01CE01CB
:104A600049960E941D1FCE0149960E945719AB011D
:104A70004F5F5F4FBE016D5E7F4FCE0107960E9474
:104A8000E10FCE0149960E94EC1ECE0101960E94D4
:104A9000EC1E113009F0C6C0CE010D960E945719C8
:104AA000062FBE01695F7F4FCE0149960E94521FBB
:104AB0006BE874E080911701909118010E94252203
:104AC000BC01CE0101960E945B1F8D819E81892BC6
:104AD00039F0E981FA818081882319F010E001C062
:104AE00011E0CE0101960E94EC1E112361F069E3F2
:104AF00076E08CEA92E00E94E61F0E94C9230E94A1
:104B0000522380E001C081E09EEF900F9A3058F070
:104B100066E276E08CEA92E00E94E61F0E94C923DA
:104B20000E9452237AC0813009F077C0015082E0A0
:104B3000882E81E0982EAA24A394B12C6BE874E00F
:104B4000F401858996890E942522BC01CE01019637
:104B50000E945B1FBE01675E7F4FCE0101960E94DF
:104B6000C71A182FCE0101960E94EC1E112391F056
:104B700063E076E08CEA92E00E94851FC5010E9406
:104B8000F0180E94C9238FEF8A0D801719F0F12CBD
:104B9000E12CD12CF7E18F0E911C8FEFA81AB80AE7
:104BA000EBE0AE16B10451F667E774E0CE0149962A
:104BB0000E943619F7E10F9F800111240E5F1E4FEE
:104BC00067E774E0F801858996890E94F121F80170
:104BD000858996896D2D43960E944B22F80185891F
:104BE00096896C2D44960E944B22F80185899689FE
:104BF0006E2D45960E944B22F801858996896F2D6E
:104C000046960E944B2266EF75E08CEA92E00E9485
:104C1000E61F0E94C9230E943A23CE0149960E94B2
:104C2000EC1E2CC0123051F58091170190911801A3
:104C30006D2D43960E944B2280911701909118018F
:104C40006C2D44960E944B2280911701909118017F
:104C50006E2D45960E944B2280911701909118016C
:104C60006F2D46960E944B2264E576E08CEA92E036
:104C70000E94E61F0E94C9230E943A23CE01079694
:104C80000E94EC1ECE010D960E94EC1ECE014396B2
:104C90000E94EC1E6E960FB6F894DEBF0FBECDBF1D
:104CA000DF91CF911F910F91FF90EF90DF90CF9008
:104CB000BF90AF909F908F9008950F931F93CF93C5
:104CC000DF9300D000D000D0CDB7DEB760ED77E045
:104CD00080E090E00E94E5200E94B2171092A203AB
:104CE0001092A1031092A00310929F0310929E03B2
:104CF00010929D038DE991E09093A4038093A30308
:104D000090919303963108F057C02DEB30E030932B
:104D10009E0320939D032BE931E03093A003209361
:104D20009F032CE231E03093A2032093A103209152
:104D30006800983050F031E09E3008F430E081E0B7
:104D400001C0880F3A95EAF701C084E0822B809376
:104D50006800983038F09E3040F0963148F020E0FE
:104D600030E008C02DE630E005C02BE630E002C0A0
:104D70002CE630E030939B0320939A03983030F474
:104D800081E001C0880F9A95EAF70EC0292F30E024
:104D90009E3018F42850310902C02E50310981E0AC
:104DA00001C0880F2A95EAF780939C038091A303A2
:104DB0009091A4030197F1F78091A1039091A20330
:104DC000892B49F1E091A803F091A90383E0E7382A
:104DD000F80709F1309739F0A389B4899C91858946
:104DE000809589238C938091A5038E7F8093A50362
:104DF0001092A6031092A70387E893E09093A9036B
:104E00008093A803E0919A03F0919B039081809195
:104E10009C03892B80831AE06BEE75E087E893E0B2
:104E20000E94E61F68EC70E080E090E00E94E520C0
:104E3000115091F767EE75E087E893E00E94E61F56
:104E40006AE070E080E090E00E94E52087E893E06F
:104E50000E94EC1D892B09F471C087E893E00E9441
:104E6000EC1D892B79F087E893E00E94041E809363
:104E700075040E94901B64E170E080E090E00E9465
:104E8000E520EBCF80917404811152C062EE75E091
:104E9000CE0101960E94491FBE016F5F7F4F8DE6D4
:104EA00093E00E94AD1A8C01CE0101960E94EC1E87
:104EB00017FD03C081E0809374046BED75E0CE01B3
:104EC00001960E94491FBE016F5F7F4F8DE693E000
:104ED0000E94AD1A8C01CE0101960E94EC1E17FDB6
:104EE00003C082E08093740468ED75E0CE01019602
:104EF0000E94491FBE016F5F7F4F8DE693E00E94C5
:104F0000AD1A8C01CE0101960E94EC1E17FD03C064
:104F100083E08093740465EC75E08CEA92E00E9473
:104F2000851F80917404082E000C990B0E94F018C4
:104F300066E672E08DE693E00E94BE1E6BEB75E0C4
:104F400087E893E00E94E61F64E670E080E090E06E
:104F50000E94E52061EB75E087E893E00E94E61F80
:104F600064E670E080E090E00E94E52063EA75E08E
:104F700087E893E00E94E61F64E670E080E090E03E
:104F80000E94E52067E975E087E893E00E94E61F4C
:104F900064E670E080E090E00E94E5208091730478
:104FA000813019F462E975E002C06DE875E087E8C8
:104FB00093E00E94E61F26960FB6F894DEBF0FBE60
:104FC000CDBFDF91CF911F910F91089560E086E0F2
:104FD0000E94792064EF71E080E090E00E94E5207B
:104FE00061E086E00E94792060E177E280E090E075
:104FF0000E94E5206CE676E08CEA92E00E94E61FD3
:105000000C945D26CF93DF9380E090E00E946722AE
:10501000813009F45AC061EF77E08CEA92E00E9497
:10502000E61FC0E0D0E06FEFCE010E944B226AE0A5
:1050300070E080E090E00E94E5202196CE31D1051D
:1050400091F761ED77E08CEA92E00E94E61F0E9402
:10505000C92360E08CE090E00E944B2261E08DE08B
:1050600090E00E944B2261E08EE090E00E944B2293
:1050700060E08FE090E00E944B226AE082E190E0E5
:105080000E944B2261E083E190E00E944B226AE0A3
:1050900084E190E00E944B2266E485E190E00E946A
:1050A0004B2260E087E190E00E944B2268E288E1B9
:1050B00090E00E944B2260E089E190E00E944B2248
:1050C00061E080E090E00E944B2280E090E00E944E
:1050D0006722813009F0FBC06EEB77E08CEA92E04A
:1050E0000E94E61F0E94C92388E190E00E94672287
:1050F00090E09093B5048093B40463EB77E08CEA7E
:1051000092E00E94851F6091B4047091B50480E024
:1051100090E04AE00E94DA178CEA92E00E94BE1FFB
:105120008CE090E00E946722809373046CEA77E041
:105130008CEA92E00E94851F80917304082E000C77
:10514000990B0E94F0188DE090E00E9467228093F6
:10515000EA0166EA77E08CEA92E00E94851F80917E
:10516000EA01082E000C990B0E94F0188EE090E0E6
:105170000E946722809301016EE977E08CEA92E059
:105180000E94851F80910101082E000C990B0E943E
:10519000F0188FE090E00E94672290E09093B304B3
:1051A0008093B2046FE877E08CEA92E00E94851F5A
:1051B0006091B2047091B30480E090E04AE00E94F4
:1051C000DA178CEA92E00E94BE1F82E190E00E9412
:1051D00067228093B1046FE777E08CEA92E00E9447
:1051E000851F8091B104082E000C990B0E94F018C5
:1051F00084E190E00E9467228093B00465E777E045
:105200008CEA92E00E94851F8091B004082E000C69
:10521000990B0E94F01885E190E00E94672280932C
:10522000AF046AE677E08CEA92E00E94851F8091E5
:10523000AF04082E000C990B0E94F01883E190E057
:105240000E9467228093E90187E190E00E94672233
:105250008093AE046FE577E08CEA92E00E94E61F4F
:1052600067E577E08CEA92E00E94851F8091E90172
:10527000082E000C990B0E94F0186FE477E08CEA7E
:1052800092E00E94851F8091AE040E94231989E15B
:1052900090E00E9467228093740465E477E08CEAD2
:1052A00092E00E94851F80917404811107C06AE317
:1052B00077E08CEA92E00E94E61F05C0082E000C01
:1052C000990B0E94F018DF91CF910C94C923DF91C4
:1052D000CF910895AF92BF92CF92DF92EF92FF925B
:1052E0000F931F93CF93DF9300D000D000D0CDB7A2
:1052F000DEB768E277E08CEA92E00E94E61F64E2A3
:1053000077E08CEA92E00E94851F6BE573E0CE01A6
:1053100001960E94521F6EE177E0CE0101960E9435
:10532000291BBC018CEA92E00E94771FCE010196F6
:105330000E94EC1E6BE573E0CE0101960E94521FA5
:105340006CE177E0CE0101960E94291BBC018CEA3A
:1053500092E00E94771FCE0101960E94EC1E6BE541
:1053600073E0CE0101960E94521F6AE177E0CE0100
:1053700001960E94291BBC018CEA92E00E94771FD3
:10538000CE0101960E94EC1E6BE573E0CE01019602
:105390000E94521F68E177E0CE0101960E94291B0E
:1053A000BC018CEA92E00E94771FCE0101960E9418
:1053B000EC1E6BE573E0CE0101960E94521F66E180
:1053C00077E0CE0101960E94291BBC018CEA92E095
:1053D0000E94D41FCE0101960E94EC1E02E011E053
:1053E000E12CF12C6BE874E0F801858996890E9424
:1053F0002522F8018589968943960E946722B82E56
:10540000FFEFEF1AFF0A4AE0B701CE0101960E94B2
:105410001D1F6BE573E0CE0101960E94D01B6C014D
:10542000EBE8F4E001900020E9F73197AF014B5829
:1054300054406BE874E00E94371B882309F45FC076
:105440006BE573E0C6010E94D01B6B2D0E940E1C01
:10545000BC018CEA92E00E94771FCE0101960E9467
:10546000EC1EF801C588D688C60146960E946722C0
:10547000B82EC60145960E946722A82EC601449602
:105480000E946722D82E6BE573E0CE0101960E9440
:10549000521F6D2DCE0101960E940E1C6BE573E02C
:1054A0000E94D01B6A2D0E940E1C6BE573E00E94C7
:1054B000D01B6B2D0E940E1CBC018CEA92E00E9456
:1054C000D41FCE0101960E94EC1E095E1F4FFAE028
:1054D000EF16F10409F086CF0E94C92326960FB675
:1054E000F894DEBF0FBECDBFDF91CF911F910F911A
:1054F000FF90EF90DF90CF90BF90AF900895C601DE
:105500000E948B1E9DCFCF93DF9383E690E00E9495
:105510006722813009F450C061E077E08CEA92E0C4
:105520000E94E61FC4E6D0E06FEFCE010E944B223E
:105530006AE070E080E090E00E94E5202196C039AA
:1055400081E0D80789F768EE76E08CEA92E00E9465
:10555000E61F0E94C923C6E1D1E0BE016451710972
:1055600089819A810E94F121FE01339789819A8174
:10557000608143960E944B22FE01329789819A8175
:10558000608144960E944B22FE01319789819A8165
:10559000608145960E944B2289819A816881469656
:1055A0000E944B22679681E0CC3FD807B1F661E0BC
:1055B00083E690E00E944B2283E690E00E946722FF
:1055C000813021F4DF91CF910C946A29DF91CF9142
:1055D000089581E390E00E946722813071F163EDCC
:1055E00076E08CEA92E00E94E61F68EB76E08CEAB7
:1055F00092E00E94E61F0E94C92369E472E083E7FB
:1056000093E00E94BE1E86E18093E8016DE974E09C
:1056100083E793E00E9436196DE974E08EE190E033
:105620000E94F1216091E80180E390E00E944B220A
:1056300061E081E390E00E944B2281E390E00E94D0
:105640006722813049F56DE974E08EE190E00E94B7
:105650002522BC0183E793E00E94BE1E80E390E018
:105660000E9467228093E80167EA76E08CEA92E084
:105670000E94851F63E773E08CEA92E00E94D41FCA
:1056800064E976E08CEA92E00E94851F8091E8014F
:105690000E9423190C94C9230895809188048130B5
:1056A00031F462E876E089E493E00C94F91A6BE84F
:1056B00076E089E493E00E94F91A409165035091E5
:1056C0006603609161037091620389E493E00C9436
:1056D000371B0F931F93CF93DF93CDB7DEB762973E
:1056E0000FB6F894DEBF0FBECDBF182F81E08093B8
:1056F000010110929C0461E08EE090E00E944B2238
:1057000068E776E089E493E00E942B1C113011F4E5
:10571000109388040E944D2B69E473E08CEA92E0B8
:105720000E94D41F69E473E08FE493E00E94D51EC9
:1057300068EE73E080E090E00E94E52002E011E076
:10574000F8018589968946960E9467228130D1F5B5
:1057500068EE73E080E090E00E94E5206BE874E082
:10576000F801858996890E942522BC01CE01079601
:105770000E945B1F62E272E0CE0101960E945B1FF5
:10578000BE01695F7F4FCE0101960E94D01BBC0114
:10579000CE010D960E94521FCE010D960E946922E5
:1057A000CE010D960E94EC1ECE0101960E94EC1EC9
:1057B000CE0107960E94EC1E68EE73E080E090E058
:1057C0000E94E520095E1F4FF1E0083E1F0709F027
:1057D000B7CF1092880462960FB6F894DEBF0FBE62
:1057E000CDBFDF91CF911F910F9108950F931F931C
:1057F000CF93DF93CDB7DEB762970FB6F894DEBFD5
:105800000FBECDBF182F1092010160E08EE090E036
:105810000E944B226DE078E089E493E00E942B1C0B
:10582000113011F4109388040E944D2B69E473E049
:105830008CEA92E00E94D41F69E473E08FE493E065
:105840000E94D51E68EE73E080E090E00E94E520A3
:1058500002E011E0F8018589968946960E94672248
:105860008130D1F568EE73E080E090E00E94E520A1
:105870006BE874E0F801858996890E942522BC01B5
:10588000CE0107960E945B1F62E272E0CE01019694
:105890000E945B1FBE01695F7F4FCE0101960E948F
:1058A000D01BBC01CE010D960E94521FCE010D9659
:1058B0000E946922CE010D960E94EC1ECE01019637
:1058C0000E94EC1ECE0107960E94EC1E68EE73E06B
:1058D00080E090E00E94E520095E1F4FF1E0083E65
:1058E0001F0709F0B7CF1092880462960FB6F8949C
:1058F000DEBF0FBECDBFDF91CF911F910F910895F5
:105900001092AF021092AE0288EE93E0A0E0B0E0F9
:105910008093B0029093B102A093B202B093B3020D
:1059200029EF31E03093AD022093AC0225EC30E05A
:105930003093B9022093B80224EC30E03093BB02DC
:105940002093BA0220EC30E03093BD022093BC02D9
:1059500021EC30E03093BF022093BE0222EC30E015
:105960003093C1022093C00226EC30E03093C30292
:105970002093C2021092C5021092C6021092C70272
:105980001092C80210928A031092890380938B03AD
:1059900090938C03A0938D03B0938E038BE092E0E1
:1059A000909388038093870310929E0310929D0327
:1059B0001092A00310929F031092A2031092A103D1
:1059C0001092A4031092A3036091A5036E7F6D7FD4
:1059D0006093A5036695617081E0682789E00E9465
:1059E000792061E089E00E94A920E8E5F5E0E491F2
:1059F000E0939703E4E4F5E0E491F0E0EE0FFF1F9D
:105A0000E95DFA4F8591949190939903809398035F
:105A100060E088E00E94A9208091A50381FD04C078
:105A200061E088E00E94792088E080939303E7E5B5
:105A3000F5E0E491E0939403E3E4F5E0E491F0E031
:105A4000EE0FFF1FEF5CFA4F8591949190939603B0
:105A50008093950360E085E00E94A920E4E5F5E0ED
:105A6000E491E0937903E0E4F5E0E491F0E0EE0FF7
:105A7000FF1FEF5CFA4F8591949190937B03809385
:105A80007A03109284031092860310928503E4E84F
:105A9000F3E0129283E0EC37F807D9F769E472E09B
:105AA00083E793E00E945B1F66E672E08DE693E079
:105AB0000E945B1F66E672E087E693E00E945B1F30
:105AC00066E672E081E693E00E945B1F6FE472E09D
:105AD0008BE593E00E945B1F64E572E085E593E04F
